{"contracts/bridge/TellorDataBridge.sol":{"TellorDataBridge":{"abi":[{"inputs":[{"internalType":"address","name":"_guardian","type":"address"},{"internalType":"bytes32","name":"_validatorSetHashDomainSeparator","type":"bytes32"}],"stateMutability":"nonpayable","type":"constructor"},{"inputs":[],"name":"AlreadyInitialized","type":"error"},{"inputs":[],"name":"ECDSAInvalidSignature","type":"error"},{"inputs":[{"internalType":"uint256","name":"length","type":"uint256"}],"name":"ECDSAInvalidSignatureLength","type":"error"},{"inputs":[{"internalType":"bytes32","name":"s","type":"bytes32"}],"name":"ECDSAInvalidSignatureS","type":"error"},{"inputs":[],"name":"InsufficientVotingPower","type":"error"},{"inputs":[],"name":"InvalidPowerThreshold","type":"error"},{"inputs":[],"name":"InvalidSignature","type":"error"},{"inputs":[],"name":"MalformedCurrentValidatorSet","type":"error"},{"inputs":[],"name":"NotDeployer","type":"error"},{"inputs":[],"name":"NotGuardian","type":"error"},{"inputs":[],"name":"StaleValidatorSet","type":"error"},{"inputs":[],"name":"SuppliedValidatorSetInvalid","type":"error"},{"inputs":[],"name":"ValidatorSetNotStale","type":"error"},{"inputs":[],"name":"ValidatorTimestampMustIncrease","type":"error"},{"anonymous":false,"inputs":[{"indexed":false,"internalType":"uint256","name":"_powerThreshold","type":"uint256"},{"indexed":false,"internalType":"uint256","name":"_validatorTimestamp","type":"uint256"},{"indexed":false,"internalType":"bytes32","name":"_validatorSetHash","type":"bytes32"}],"name":"GuardianResetValidatorSet","type":"event"},{"anonymous":false,"inputs":[{"indexed":false,"internalType":"uint256","name":"_powerThreshold","type":"uint256"},{"indexed":false,"internalType":"uint256","name":"_validatorTimestamp","type":"uint256"},{"indexed":false,"internalType":"bytes32","name":"_validatorSetHash","type":"bytes32"}],"name":"ValidatorSetUpdated","type":"event"},{"inputs":[],"name":"MS_PER_SECOND","outputs":[{"internalType":"uint256","name":"","type":"uint256"}],"stateMutability":"view","type":"function"},{"inputs":[],"name":"NEW_REPORT_ATTESTATION_DOMAIN_SEPARATOR","outputs":[{"internalType":"bytes32","name":"","type":"bytes32"}],"stateMutability":"view","type":"function"},{"inputs":[],"name":"VALIDATOR_SET_HASH_DOMAIN_SEPARATOR","outputs":[{"internalType":"bytes32","name":"","type":"bytes32"}],"stateMutability":"view","type":"function"},{"inputs":[],"name":"deployer","outputs":[{"internalType":"address","name":"","type":"address"}],"stateMutability":"view","type":"function"},{"inputs":[],"name":"guardian","outputs":[{"internalType":"address","name":"","type":"address"}],"stateMutability":"view","type":"function"},{"inputs":[{"internalType":"uint256","name":"_powerThreshold","type":"uint256"},{"internalType":"uint256","name":"_validatorTimestamp","type":"uint256"},{"internalType":"bytes32","name":"_validatorSetCheckpoint","type":"bytes32"}],"name":"guardianResetValidatorSet","outputs":[],"stateMutability":"nonpayable","type":"function"},{"inputs":[{"internalType":"uint256","name":"_powerThreshold","type":"uint256"},{"internalType":"uint256","name":"_validatorTimestamp","type":"uint256"},{"internalType":"uint256","name":"_unbondingPeriod","type":"uint256"},{"internalType":"bytes32","name":"_validatorSetCheckpoint","type":"bytes32"}],"name":"init","outputs":[],"stateMutability":"nonpayable","type":"function"},{"inputs":[],"name":"initialized","outputs":[{"internalType":"bool","name":"","type":"bool"}],"stateMutability":"view","type":"function"},{"inputs":[],"name":"lastValidatorSetCheckpoint","outputs":[{"internalType":"bytes32","name":"","type":"bytes32"}],"stateMutability":"view","type":"function"},{"inputs":[],"name":"powerThreshold","outputs":[{"internalType":"uint256","name":"","type":"uint256"}],"stateMutability":"view","type":"function"},{"inputs":[],"name":"unbondingPeriod","outputs":[{"internalType":"uint256","name":"","type":"uint256"}],"stateMutability":"view","type":"function"},{"inputs":[{"internalType":"bytes32","name":"_newValidatorSetHash","type":"bytes32"},{"internalType":"uint64","name":"_newPowerThreshold","type":"uint64"},{"internalType":"uint256","name":"_newValidatorTimestamp","type":"uint256"},{"components":[{"internalType":"address","name":"addr","type":"address"},{"internalType":"uint256","name":"power","type":"uint256"}],"internalType":"struct Validator[]","name":"_currentValidatorSet","type":"tuple[]"},{"components":[{"internalType":"uint8","name":"v","type":"uint8"},{"internalType":"bytes32","name":"r","type":"bytes32"},{"internalType":"bytes32","name":"s","type":"bytes32"}],"internalType":"struct Signature[]","name":"_sigs","type":"tuple[]"}],"name":"updateValidatorSet","outputs":[],"stateMutability":"nonpayable","type":"function"},{"inputs":[],"name":"validatorTimestamp","outputs":[{"internalType":"uint256","name":"","type":"uint256"}],"stateMutability":"view","type":"function"},{"inputs":[{"components":[{"internalType":"bytes32","name":"queryId","type":"bytes32"},{"components":[{"internalType":"bytes","name":"value","type":"bytes"},{"internalType":"uint256","name":"timestamp","type":"uint256"},{"internalType":"uint256","name":"aggregatePower","type":"uint256"},{"internalType":"uint256","name":"previousTimestamp","type":"uint256"},{"internalType":"uint256","name":"nextTimestamp","type":"uint256"},{"internalType":"uint256","name":"lastConsensusTimestamp","type":"uint256"}],"internalType":"struct ReportData","name":"report","type":"tuple"},{"internalType":"uint256","name":"attestationTimestamp","type":"uint256"}],"internalType":"struct OracleAttestationData","name":"_attestData","type":"tuple"},{"components":[{"internalType":"address","name":"addr","type":"address"},{"internalType":"uint256","name":"power","type":"uint256"}],"internalType":"struct Validator[]","name":"_currentValidatorSet","type":"tuple[]"},{"components":[{"internalType":"uint8","name":"v","type":"uint8"},{"internalType":"bytes32","name":"r","type":"bytes32"},{"internalType":"bytes32","name":"s","type":"bytes32"}],"internalType":"struct Signature[]","name":"_sigs","type":"tuple[]"}],"name":"verifyOracleData","outputs":[],"stateMutability":"view","type":"function"}],"evm":{"bytecode":{"linkReferences":{},"object":"60a06040523480156200001157600080fd5b5060405162001c0138038062001c0183398181016040528101906200003791906200016d565b816000806101000a81548173ffffffffffffffffffffffffffffffffffffffff021916908373ffffffffffffffffffffffffffffffffffffffff16021790555033600560006101000a81548173ffffffffffffffffffffffffffffffffffffffff021916908373ffffffffffffffffffffffffffffffffffffffff16021790555080608081815250505050620001b4565b600080fd5b600073ffffffffffffffffffffffffffffffffffffffff82169050919050565b6000620000fa82620000cd565b9050919050565b6200010c81620000ed565b81146200011857600080fd5b50565b6000815190506200012c8162000101565b92915050565b6000819050919050565b620001478162000132565b81146200015357600080fd5b50565b60008151905062000167816200013c565b92915050565b60008060408385031215620001875762000186620000c8565b5b600062000197858286016200011b565b9250506020620001aa8582860162000156565b9150509250929050565b608051611a2a620001d7600039600081816108bf015261093e0152611a2a6000f3fe608060405234801561001057600080fd5b50600436106100ea5760003560e01c80636cf6d6751161008c578063af082a7d11610066578063af082a7d14610213578063ba95ec2714610231578063bd7c31531461024f578063d5f394881461026d576100ea565b80636cf6d675146101bb57806384330d4c146101d95780639e45a913146101f5576100ea565b80634394f6f3116100c85780634394f6f314610147578063452a9320146101635780634f76f1ee146101815780635e0d3b0f1461019f576100ea565b8063158ef93e146100ef578063185bf52b1461010d5780631a8bcd3414610129575b600080fd5b6100f761028b565b6040516101049190610dd5565b60405180910390f35b61012760048036038101906101229190610e66565b61029e565b005b610131610409565b60405161013e9190610ec8565b60405180910390f35b610161600480360381019061015c9190610ee3565b61040f565b005b61016b61051a565b6040516101789190610f8b565b60405180910390f35b61018961053e565b6040516101969190610ec8565b60405180910390f35b6101b960048036038101906101b49190611085565b610544565b005b6101c36106f4565b6040516101d09190610ec8565b60405180910390f35b6101f360048036038101906101ee9190611176565b6106fa565b005b6101fd6108bd565b60405161020a9190611241565b60405180910390f35b61021b6108e1565b6040516102289190611241565b60405180910390f35b6102396108e7565b6040516102469190610ec8565b60405180910390f35b6102576108ed565b6040516102649190611241565b60405180910390f35b610275610914565b6040516102829190610f8b565b60405180910390f35b600560149054906101000a900460ff1681565b60008054906101000a900473ffffffffffffffffffffffffffffffffffffffff1673ffffffffffffffffffffffffffffffffffffffff163373ffffffffffffffffffffffffffffffffffffffff1614610323576040517fef6d0f0200000000000000000000000000000000000000000000000000000000815260040160405180910390fd5b6003546103e860045461033691906112ba565b4261034191906112eb565b1015610379576040517f1c36ced200000000000000000000000000000000000000000000000000000000815260040160405180910390fd5b60045482116103b4576040517f780635d000000000000000000000000000000000000000000000000000000000815260040160405180910390fd5b8260028190555081600481905550806001819055507fd7067f3840022e90166b8566f9982288b89ec7479b8eb30fad06290f18c8cb098383836040516103fc9392919061131f565b60405180910390a1505050565b6103e881565b600560009054906101000a900473ffffffffffffffffffffffffffffffffffffffff1673ffffffffffffffffffffffffffffffffffffffff163373ffffffffffffffffffffffffffffffffffffffff1614610496576040517f8b906c9700000000000000000000000000000000000000000000000000000000815260040160405180910390fd5b600560149054906101000a900460ff16156104dd576040517f0dc149f000000000000000000000000000000000000000000000000000000000815260040160405180910390fd5b6001600560146101000a81548160ff0219169083151502179055508360028190555082600481905550816003819055508060018190555050505050565b60008054906101000a900473ffffffffffffffffffffffffffffffffffffffff1681565b60045481565b818190508484905014610583576040517fc6617b7b00000000000000000000000000000000000000000000000000000000815260040160405180910390fd5b6001546105bd60025460045487876040516020016105a29291906114b5565b6040516020818303038152906040528051906020012061093a565b146105f4576040517f177b5d9200000000000000000000000000000000000000000000000000000000815260040160405180910390fd5b60007f74656c6c6f7243757272656e744174746573746174696f6e000000000000000060001b866000013587806020019061062f91906114e8565b806000019061063e9190611510565b89806020019061064e91906114e8565b602001358a806020019061066291906114e8565b604001358b806020019061067691906114e8565b606001358c806020019061068a91906114e8565b608001356001548e604001358f80602001906106a691906114e8565b60a001356040516020016106c49b9a999897969594939291906115d1565b6040516020818303038152906040528051906020012090506106ec8585858585600254610992565b505050505050565b60035481565b818190508484905014610739576040517fc6617b7b00000000000000000000000000000000000000000000000000000000815260040160405180910390fd5b600454851015610775576040517f780635d000000000000000000000000000000000000000000000000000000000815260040160405180910390fd5b60008667ffffffffffffffff16036107b9576040517fc3b70c8800000000000000000000000000000000000000000000000000000000815260040160405180910390fd5b600084846040516020016107ce9291906114b5565b6040516020818303038152906040528051906020012090506001546107f86002546004548461093a565b1461082f576040517f177b5d9200000000000000000000000000000000000000000000000000000000815260040160405180910390fd5b60006108468867ffffffffffffffff16888b61093a565b90506108588686868685600254610992565b806001819055508767ffffffffffffffff16600281905550866004819055507fe304b71f81a1aaf6d714401de28ba1ebdbb5ff9c5fee59ef2a6eb984f9e8da7e88888b6040516108aa939291906116b1565b60405180910390a1505050505050505050565b7f000000000000000000000000000000000000000000000000000000000000000081565b60015481565b60025481565b7f74656c6c6f7243757272656e744174746573746174696f6e000000000000000060001b81565b600560009054906101000a900473ffffffffffffffffffffffffffffffffffffffff1681565b60007f000000000000000000000000000000000000000000000000000000000000000084848460405160200161097394939291906116e8565b6040516020818303038152906040528051906020012090509392505050565b6003546103e86004546109a591906112ba565b426109b091906112eb565b11156109e8576040517fe5e5e46400000000000000000000000000000000000000000000000000000000815260040160405180910390fd5b6000805b87879050811015610b49576000801b868683818110610a0e57610a0d61172d565b5b90506060020160200135148015610a4357506000801b868683818110610a3757610a3661172d565b5b90506060020160400135145b8015610a7c57506000868683818110610a5f57610a5e61172d565b5b9050606002016000016020810190610a779190611795565b60ff16145b610b3657610acd888883818110610a9657610a9561172d565b5b9050604002016000016020810190610aae91906117c2565b85888885818110610ac257610ac161172d565b5b905060600201610b8d565b610b03576040517f8baa579f00000000000000000000000000000000000000000000000000000000815260040160405180910390fd5b878782818110610b1657610b1561172d565b5b9050604002016020013582610b2b91906117ef565b915082821015610b49575b8080610b4190611823565b9150506109ec565b5081811015610b84576040517fcabeb65500000000000000000000000000000000000000000000000000000000815260040160405180910390fd5b50505050505050565b6000600283604051602001610ba2919061188c565b604051602081830303815290604052604051610bbe9190611918565b602060405180830381855afa158015610bdb573d6000803e3d6000fd5b5050506040513d601f19601f82011682018060405250810190610bfe9190611944565b9250600080610c2985856000016020810190610c1a9190611795565b86602001358760400135610cc6565b509150915060006003811115610c4257610c41611971565b5b816003811115610c5557610c54611971565b5b14610c8c576040517f8baa579f00000000000000000000000000000000000000000000000000000000815260040160405180910390fd5b8173ffffffffffffffffffffffffffffffffffffffff168673ffffffffffffffffffffffffffffffffffffffff1614925050509392505050565b60008060007f7fffffffffffffffffffffffffffffff5d576e7357a4501ddfe92f46681b20a08460001c1115610d06576000600385925092509250610db0565b600060018888888860405160008152602001604052604051610d2b94939291906119af565b6020604051602081039080840390855afa158015610d4d573d6000803e3d6000fd5b505050602060405103519050600073ffffffffffffffffffffffffffffffffffffffff168173ffffffffffffffffffffffffffffffffffffffff1603610da157600060016000801b93509350935050610db0565b8060008060001b935093509350505b9450945094915050565b60008115159050919050565b610dcf81610dba565b82525050565b6000602082019050610dea6000830184610dc6565b92915050565b600080fd5b600080fd5b6000819050919050565b610e0d81610dfa565b8114610e1857600080fd5b50565b600081359050610e2a81610e04565b92915050565b6000819050919050565b610e4381610e30565b8114610e4e57600080fd5b50565b600081359050610e6081610e3a565b92915050565b600080600060608486031215610e7f57610e7e610df0565b5b6000610e8d86828701610e1b565b9350506020610e9e86828701610e1b565b9250506040610eaf86828701610e51565b9150509250925092565b610ec281610dfa565b82525050565b6000602082019050610edd6000830184610eb9565b92915050565b60008060008060808587031215610efd57610efc610df0565b5b6000610f0b87828801610e1b565b9450506020610f1c87828801610e1b565b9350506040610f2d87828801610e1b565b9250506060610f3e87828801610e51565b91505092959194509250565b600073ffffffffffffffffffffffffffffffffffffffff82169050919050565b6000610f7582610f4a565b9050919050565b610f8581610f6a565b82525050565b6000602082019050610fa06000830184610f7c565b92915050565b600080fd5b600060608284031215610fc157610fc0610fa6565b5b81905092915050565b600080fd5b600080fd5b600080fd5b60008083601f840112610fef57610fee610fca565b5b8235905067ffffffffffffffff81111561100c5761100b610fcf565b5b60208301915083604082028301111561102857611027610fd4565b5b9250929050565b60008083601f84011261104557611044610fca565b5b8235905067ffffffffffffffff81111561106257611061610fcf565b5b60208301915083606082028301111561107e5761107d610fd4565b5b9250929050565b6000806000806000606086880312156110a1576110a0610df0565b5b600086013567ffffffffffffffff8111156110bf576110be610df5565b5b6110cb88828901610fab565b955050602086013567ffffffffffffffff8111156110ec576110eb610df5565b5b6110f888828901610fd9565b9450945050604086013567ffffffffffffffff81111561111b5761111a610df5565b5b6111278882890161102f565b92509250509295509295909350565b600067ffffffffffffffff82169050919050565b61115381611136565b811461115e57600080fd5b50565b6000813590506111708161114a565b92915050565b600080600080600080600060a0888a03121561119557611194610df0565b5b60006111a38a828b01610e51565b97505060206111b48a828b01611161565b96505060406111c58a828b01610e1b565b955050606088013567ffffffffffffffff8111156111e6576111e5610df5565b5b6111f28a828b01610fd9565b9450945050608088013567ffffffffffffffff81111561121557611214610df5565b5b6112218a828b0161102f565b925092505092959891949750929550565b61123b81610e30565b82525050565b60006020820190506112566000830184611232565b92915050565b7f4e487b7100000000000000000000000000000000000000000000000000000000600052601260045260246000fd5b7f4e487b7100000000000000000000000000000000000000000000000000000000600052601160045260246000fd5b60006112c582610dfa565b91506112d083610dfa565b9250826112e0576112df61125c565b5b828204905092915050565b60006112f682610dfa565b915061130183610dfa565b92508282039050818111156113195761131861128b565b5b92915050565b60006060820190506113346000830186610eb9565b6113416020830185610eb9565b61134e6040830184611232565b949350505050565b600082825260208201905092915050565b6000819050919050565b61137a81610f6a565b811461138557600080fd5b50565b60008135905061139781611371565b92915050565b60006113ac6020840184611388565b905092915050565b6113bd81610f6a565b82525050565b60006113d26020840184610e1b565b905092915050565b6113e381610dfa565b82525050565b604082016113fa600083018361139d565b61140760008501826113b4565b5061141560208301836113c3565b61142260208501826113da565b50505050565b600061143483836113e9565b60408301905092915050565b600082905092915050565b6000604082019050919050565b60006114648385611356565b935061146f82611367565b8060005b858110156114a8576114858284611440565b61148f8882611428565b975061149a8361144b565b925050600181019050611473565b5085925050509392505050565b600060208201905081810360008301526114d0818486611458565b90509392505050565b600080fd5b600080fd5b600080fd5b60008235600160c003833603038112611504576115036114d9565b5b80830191505092915050565b6000808335600160200384360303811261152d5761152c6114d9565b5b80840192508235915067ffffffffffffffff82111561154f5761154e6114de565b5b60208301925060018202360383131561156b5761156a6114e3565b5b509250929050565b600082825260208201905092915050565b82818337600083830152505050565b6000601f19601f8301169050919050565b60006115b08385611573565b93506115bd838584611584565b6115c683611593565b840190509392505050565b6000610140820190506115e7600083018e611232565b6115f4602083018d611232565b8181036040830152611607818b8d6115a4565b9050611616606083018a610eb9565b6116236080830189610eb9565b61163060a0830188610eb9565b61163d60c0830187610eb9565b61164a60e0830186611232565b611658610100830185610eb9565b611666610120830184610eb9565b9c9b505050505050505050505050565b6000819050919050565b600061169b61169661169184611136565b611676565b610dfa565b9050919050565b6116ab81611680565b82525050565b60006060820190506116c660008301866116a2565b6116d36020830185610eb9565b6116e06040830184611232565b949350505050565b60006080820190506116fd6000830187611232565b61170a6020830186610eb9565b6117176040830185610eb9565b6117246060830184611232565b95945050505050565b7f4e487b7100000000000000000000000000000000000000000000000000000000600052603260045260246000fd5b600060ff82169050919050565b6117728161175c565b811461177d57600080fd5b50565b60008135905061178f81611769565b92915050565b6000602082840312156117ab576117aa610df0565b5b60006117b984828501611780565b91505092915050565b6000602082840312156117d8576117d7610df0565b5b60006117e684828501611388565b91505092915050565b60006117fa82610dfa565b915061180583610dfa565b925082820190508082111561181d5761181c61128b565b5b92915050565b600061182e82610dfa565b91507fffffffffffffffffffffffffffffffffffffffffffffffffffffffffffffffff82036118605761185f61128b565b5b600182019050919050565b6000819050919050565b61188661188182610e30565b61186b565b82525050565b60006118988284611875565b60208201915081905092915050565b600081519050919050565b600081905092915050565b60005b838110156118db5780820151818401526020810190506118c0565b60008484015250505050565b60006118f2826118a7565b6118fc81856118b2565b935061190c8185602086016118bd565b80840191505092915050565b600061192482846118e7565b915081905092915050565b60008151905061193e81610e3a565b92915050565b60006020828403121561195a57611959610df0565b5b60006119688482850161192f565b91505092915050565b7f4e487b7100000000000000000000000000000000000000000000000000000000600052602160045260246000fd5b6119a98161175c565b82525050565b60006080820190506119c46000830187611232565b6119d160208301866119a0565b6119de6040830185611232565b6119eb6060830184611232565b9594505050505056fea26469706673582212208a4e27db43c974b180ddea3c0f3e4138731ac4b9bd11334386ecbaa94043947564736f6c63430008130033","opcodes":"PUSH1 0xA0 PUSH1 0x40 MSTORE CALLVALUE DUP1 ISZERO PUSH3 0x11 JUMPI PUSH1 0x0 DUP1 REVERT JUMPDEST POP PUSH1 0x40 MLOAD PUSH3 0x1C01 CODESIZE SUB DUP1 PUSH3 0x1C01 DUP4 CODECOPY DUP2 DUP2 ADD PUSH1 0x40 MSTORE DUP2 ADD SWAP1 PUSH3 0x37 SWAP2 SWAP1 PUSH3 0x16D JUMP JUMPDEST DUP2 PUSH1 0x0 DUP1 PUSH2 0x100 EXP DUP2 SLOAD DUP2 PUSH20 0xFFFFFFFFFFFFFFFFFFFFFFFFFFFFFFFFFFFFFFFF MUL NOT AND SWAP1 DUP4 PUSH20 0xFFFFFFFFFFFFFFFFFFFFFFFFFFFFFFFFFFFFFFFF AND MUL OR SWAP1 SSTORE POP CALLER PUSH1 0x5 PUSH1 0x0 PUSH2 0x100 EXP DUP2 SLOAD DUP2 PUSH20 0xFFFFFFFFFFFFFFFFFFFFFFFFFFFFFFFFFFFFFFFF MUL NOT AND SWAP1 DUP4 PUSH20 0xFFFFFFFFFFFFFFFFFFFFFFFFFFFFFFFFFFFFFFFF AND MUL OR SWAP1 SSTORE POP DUP1 PUSH1 0x80 DUP2 DUP2 MSTORE POP POP POP POP PUSH3 0x1B4 JUMP JUMPDEST PUSH1 0x0 DUP1 REVERT JUMPDEST PUSH1 0x0 PUSH20 0xFFFFFFFFFFFFFFFFFFFFFFFFFFFFFFFFFFFFFFFF DUP3 AND SWAP1 POP SWAP2 SWAP1 POP JUMP JUMPDEST PUSH1 0x0 PUSH3 0xFA DUP3 PUSH3 0xCD JUMP JUMPDEST SWAP1 POP SWAP2 SWAP1 POP JUMP JUMPDEST PUSH3 0x10C DUP2 PUSH3 0xED JUMP JUMPDEST DUP2 EQ PUSH3 0x118 JUMPI PUSH1 0x0 DUP1 REVERT JUMPDEST POP JUMP JUMPDEST PUSH1 0x0 DUP2 MLOAD SWAP1 POP PUSH3 0x12C DUP2 PUSH3 0x101 JUMP JUMPDEST SWAP3 SWAP2 POP POP JUMP JUMPDEST PUSH1 0x0 DUP2 SWAP1 POP SWAP2 SWAP1 POP JUMP JUMPDEST PUSH3 0x147 DUP2 PUSH3 0x132 JUMP JUMPDEST DUP2 EQ PUSH3 0x153 JUMPI PUSH1 0x0 DUP1 REVERT JUMPDEST POP JUMP JUMPDEST PUSH1 0x0 DUP2 MLOAD SWAP1 POP PUSH3 0x167 DUP2 PUSH3 0x13C JUMP JUMPDEST SWAP3 SWAP2 POP POP JUMP JUMPDEST PUSH1 0x0 DUP1 PUSH1 0x40 DUP4 DUP6 SUB SLT ISZERO PUSH3 0x187 JUMPI PUSH3 0x186 PUSH3 0xC8 JUMP JUMPDEST JUMPDEST PUSH1 0x0 PUSH3 0x197 DUP6 DUP3 DUP7 ADD PUSH3 0x11B JUMP JUMPDEST SWAP3 POP POP PUSH1 0x20 PUSH3 0x1AA DUP6 DUP3 DUP7 ADD PUSH3 0x156 JUMP JUMPDEST SWAP2 POP POP SWAP3 POP SWAP3 SWAP1 POP JUMP JUMPDEST PUSH1 0x80 MLOAD PUSH2 0x1A2A PUSH3 0x1D7 PUSH1 0x0 CODECOPY PUSH1 0x0 DUP2 DUP2 PUSH2 0x8BF ADD MSTORE PUSH2 0x93E ADD MSTORE PUSH2 0x1A2A PUSH1 0x0 RETURN INVALID PUSH1 0x80 PUSH1 0x40 MSTORE CALLVALUE DUP1 ISZERO PUSH2 0x10 JUMPI PUSH1 0x0 DUP1 REVERT JUMPDEST POP PUSH1 0x4 CALLDATASIZE LT PUSH2 0xEA JUMPI PUSH1 0x0 CALLDATALOAD PUSH1 0xE0 SHR DUP1 PUSH4 0x6CF6D675 GT PUSH2 0x8C JUMPI DUP1 PUSH4 0xAF082A7D GT PUSH2 0x66 JUMPI DUP1 PUSH4 0xAF082A7D EQ PUSH2 0x213 JUMPI DUP1 PUSH4 0xBA95EC27 EQ PUSH2 0x231 JUMPI DUP1 PUSH4 0xBD7C3153 EQ PUSH2 0x24F JUMPI DUP1 PUSH4 0xD5F39488 EQ PUSH2 0x26D JUMPI PUSH2 0xEA JUMP JUMPDEST DUP1 PUSH4 0x6CF6D675 EQ PUSH2 0x1BB JUMPI DUP1 PUSH4 0x84330D4C EQ PUSH2 0x1D9 JUMPI DUP1 PUSH4 0x9E45A913 EQ PUSH2 0x1F5 JUMPI PUSH2 0xEA JUMP JUMPDEST DUP1 PUSH4 0x4394F6F3 GT PUSH2 0xC8 JUMPI DUP1 PUSH4 0x4394F6F3 EQ PUSH2 0x147 JUMPI DUP1 PUSH4 0x452A9320 EQ PUSH2 0x163 JUMPI DUP1 PUSH4 0x4F76F1EE EQ PUSH2 0x181 JUMPI DUP1 PUSH4 0x5E0D3B0F EQ PUSH2 0x19F JUMPI PUSH2 0xEA JUMP JUMPDEST DUP1 PUSH4 0x158EF93E EQ PUSH2 0xEF JUMPI DUP1 PUSH4 0x185BF52B EQ PUSH2 0x10D JUMPI DUP1 PUSH4 0x1A8BCD34 EQ PUSH2 0x129 JUMPI JUMPDEST PUSH1 0x0 DUP1 REVERT JUMPDEST PUSH2 0xF7 PUSH2 0x28B JUMP JUMPDEST PUSH1 0x40 MLOAD PUSH2 0x104 SWAP2 SWAP1 PUSH2 0xDD5 JUMP JUMPDEST PUSH1 0x40 MLOAD DUP1 SWAP2 SUB SWAP1 RETURN JUMPDEST PUSH2 0x127 PUSH1 0x4 DUP1 CALLDATASIZE SUB DUP2 ADD SWAP1 PUSH2 0x122 SWAP2 SWAP1 PUSH2 0xE66 JUMP JUMPDEST PUSH2 0x29E JUMP JUMPDEST STOP JUMPDEST PUSH2 0x131 PUSH2 0x409 JUMP JUMPDEST PUSH1 0x40 MLOAD PUSH2 0x13E SWAP2 SWAP1 PUSH2 0xEC8 JUMP JUMPDEST PUSH1 0x40 MLOAD DUP1 SWAP2 SUB SWAP1 RETURN JUMPDEST PUSH2 0x161 PUSH1 0x4 DUP1 CALLDATASIZE SUB DUP2 ADD SWAP1 PUSH2 0x15C SWAP2 SWAP1 PUSH2 0xEE3 JUMP JUMPDEST PUSH2 0x40F JUMP JUMPDEST STOP JUMPDEST PUSH2 0x16B PUSH2 0x51A JUMP JUMPDEST PUSH1 0x40 MLOAD PUSH2 0x178 SWAP2 SWAP1 PUSH2 0xF8B JUMP JUMPDEST PUSH1 0x40 MLOAD DUP1 SWAP2 SUB SWAP1 RETURN JUMPDEST PUSH2 0x189 PUSH2 0x53E JUMP JUMPDEST PUSH1 0x40 MLOAD PUSH2 0x196 SWAP2 SWAP1 PUSH2 0xEC8 JUMP JUMPDEST PUSH1 0x40 MLOAD DUP1 SWAP2 SUB SWAP1 RETURN JUMPDEST PUSH2 0x1B9 PUSH1 0x4 DUP1 CALLDATASIZE SUB DUP2 ADD SWAP1 PUSH2 0x1B4 SWAP2 SWAP1 PUSH2 0x1085 JUMP JUMPDEST PUSH2 0x544 JUMP JUMPDEST STOP JUMPDEST PUSH2 0x1C3 PUSH2 0x6F4 JUMP JUMPDEST PUSH1 0x40 MLOAD PUSH2 0x1D0 SWAP2 SWAP1 PUSH2 0xEC8 JUMP JUMPDEST PUSH1 0x40 MLOAD DUP1 SWAP2 SUB SWAP1 RETURN JUMPDEST PUSH2 0x1F3 PUSH1 0x4 DUP1 CALLDATASIZE SUB DUP2 ADD SWAP1 PUSH2 0x1EE SWAP2 SWAP1 PUSH2 0x1176 JUMP JUMPDEST PUSH2 0x6FA JUMP JUMPDEST STOP JUMPDEST PUSH2 0x1FD PUSH2 0x8BD JUMP JUMPDEST PUSH1 0x40 MLOAD PUSH2 0x20A SWAP2 SWAP1 PUSH2 0x1241 JUMP JUMPDEST PUSH1 0x40 MLOAD DUP1 SWAP2 SUB SWAP1 RETURN JUMPDEST PUSH2 0x21B PUSH2 0x8E1 JUMP JUMPDEST PUSH1 0x40 MLOAD PUSH2 0x228 SWAP2 SWAP1 PUSH2 0x1241 JUMP JUMPDEST PUSH1 0x40 MLOAD DUP1 SWAP2 SUB SWAP1 RETURN JUMPDEST PUSH2 0x239 PUSH2 0x8E7 JUMP JUMPDEST PUSH1 0x40 MLOAD PUSH2 0x246 SWAP2 SWAP1 PUSH2 0xEC8 JUMP JUMPDEST PUSH1 0x40 MLOAD DUP1 SWAP2 SUB SWAP1 RETURN JUMPDEST PUSH2 0x257 PUSH2 0x8ED JUMP JUMPDEST PUSH1 0x40 MLOAD PUSH2 0x264 SWAP2 SWAP1 PUSH2 0x1241 JUMP JUMPDEST PUSH1 0x40 MLOAD DUP1 SWAP2 SUB SWAP1 RETURN JUMPDEST PUSH2 0x275 PUSH2 0x914 JUMP JUMPDEST PUSH1 0x40 MLOAD PUSH2 0x282 SWAP2 SWAP1 PUSH2 0xF8B JUMP JUMPDEST PUSH1 0x40 MLOAD DUP1 SWAP2 SUB SWAP1 RETURN JUMPDEST PUSH1 0x5 PUSH1 0x14 SWAP1 SLOAD SWAP1 PUSH2 0x100 EXP SWAP1 DIV PUSH1 0xFF AND DUP2 JUMP JUMPDEST PUSH1 0x0 DUP1 SLOAD SWAP1 PUSH2 0x100 EXP SWAP1 DIV PUSH20 0xFFFFFFFFFFFFFFFFFFFFFFFFFFFFFFFFFFFFFFFF AND PUSH20 0xFFFFFFFFFFFFFFFFFFFFFFFFFFFFFFFFFFFFFFFF AND CALLER PUSH20 0xFFFFFFFFFFFFFFFFFFFFFFFFFFFFFFFFFFFFFFFF AND EQ PUSH2 0x323 JUMPI PUSH1 0x40 MLOAD PUSH32 0xEF6D0F0200000000000000000000000000000000000000000000000000000000 DUP2 MSTORE PUSH1 0x4 ADD PUSH1 0x40 MLOAD DUP1 SWAP2 SUB SWAP1 REVERT JUMPDEST PUSH1 0x3 SLOAD PUSH2 0x3E8 PUSH1 0x4 SLOAD PUSH2 0x336 SWAP2 SWAP1 PUSH2 0x12BA JUMP JUMPDEST TIMESTAMP PUSH2 0x341 SWAP2 SWAP1 PUSH2 0x12EB JUMP JUMPDEST LT ISZERO PUSH2 0x379 JUMPI PUSH1 0x40 MLOAD PUSH32 0x1C36CED200000000000000000000000000000000000000000000000000000000 DUP2 MSTORE PUSH1 0x4 ADD PUSH1 0x40 MLOAD DUP1 SWAP2 SUB SWAP1 REVERT JUMPDEST PUSH1 0x4 SLOAD DUP3 GT PUSH2 0x3B4 JUMPI PUSH1 0x40 MLOAD PUSH32 0x780635D000000000000000000000000000000000000000000000000000000000 DUP2 MSTORE PUSH1 0x4 ADD PUSH1 0x40 MLOAD DUP1 SWAP2 SUB SWAP1 REVERT JUMPDEST DUP3 PUSH1 0x2 DUP2 SWAP1 SSTORE POP DUP2 PUSH1 0x4 DUP2 SWAP1 SSTORE POP DUP1 PUSH1 0x1 DUP2 SWAP1 SSTORE POP PUSH32 0xD7067F3840022E90166B8566F9982288B89EC7479B8EB30FAD06290F18C8CB09 DUP4 DUP4 DUP4 PUSH1 0x40 MLOAD PUSH2 0x3FC SWAP4 SWAP3 SWAP2 SWAP1 PUSH2 0x131F JUMP JUMPDEST PUSH1 0x40 MLOAD DUP1 SWAP2 SUB SWAP1 LOG1 POP POP POP JUMP JUMPDEST PUSH2 0x3E8 DUP2 JUMP JUMPDEST PUSH1 0x5 PUSH1 0x0 SWAP1 SLOAD SWAP1 PUSH2 0x100 EXP SWAP1 DIV PUSH20 0xFFFFFFFFFFFFFFFFFFFFFFFFFFFFFFFFFFFFFFFF AND PUSH20 0xFFFFFFFFFFFFFFFFFFFFFFFFFFFFFFFFFFFFFFFF AND CALLER PUSH20 0xFFFFFFFFFFFFFFFFFFFFFFFFFFFFFFFFFFFFFFFF AND EQ PUSH2 0x496 JUMPI PUSH1 0x40 MLOAD PUSH32 0x8B906C9700000000000000000000000000000000000000000000000000000000 DUP2 MSTORE PUSH1 0x4 ADD PUSH1 0x40 MLOAD DUP1 SWAP2 SUB SWAP1 REVERT JUMPDEST PUSH1 0x5 PUSH1 0x14 SWAP1 SLOAD SWAP1 PUSH2 0x100 EXP SWAP1 DIV PUSH1 0xFF AND ISZERO PUSH2 0x4DD JUMPI PUSH1 0x40 MLOAD PUSH32 0xDC149F000000000000000000000000000000000000000000000000000000000 DUP2 MSTORE PUSH1 0x4 ADD PUSH1 0x40 MLOAD DUP1 SWAP2 SUB SWAP1 REVERT JUMPDEST PUSH1 0x1 PUSH1 0x5 PUSH1 0x14 PUSH2 0x100 EXP DUP2 SLOAD DUP2 PUSH1 0xFF MUL NOT AND SWAP1 DUP4 ISZERO ISZERO MUL OR SWAP1 SSTORE POP DUP4 PUSH1 0x2 DUP2 SWAP1 SSTORE POP DUP3 PUSH1 0x4 DUP2 SWAP1 SSTORE POP DUP2 PUSH1 0x3 DUP2 SWAP1 SSTORE POP DUP1 PUSH1 0x1 DUP2 SWAP1 SSTORE POP POP POP POP POP JUMP JUMPDEST PUSH1 0x0 DUP1 SLOAD SWAP1 PUSH2 0x100 EXP SWAP1 DIV PUSH20 0xFFFFFFFFFFFFFFFFFFFFFFFFFFFFFFFFFFFFFFFF AND DUP2 JUMP JUMPDEST PUSH1 0x4 SLOAD DUP2 JUMP JUMPDEST DUP2 DUP2 SWAP1 POP DUP5 DUP5 SWAP1 POP EQ PUSH2 0x583 JUMPI PUSH1 0x40 MLOAD PUSH32 0xC6617B7B00000000000000000000000000000000000000000000000000000000 DUP2 MSTORE PUSH1 0x4 ADD PUSH1 0x40 MLOAD DUP1 SWAP2 SUB SWAP1 REVERT JUMPDEST PUSH1 0x1 SLOAD PUSH2 0x5BD PUSH1 0x2 SLOAD PUSH1 0x4 SLOAD DUP8 DUP8 PUSH1 0x40 MLOAD PUSH1 0x20 ADD PUSH2 0x5A2 SWAP3 SWAP2 SWAP1 PUSH2 0x14B5 JUMP JUMPDEST PUSH1 0x40 MLOAD PUSH1 0x20 DUP2 DUP4 SUB SUB DUP2 MSTORE SWAP1 PUSH1 0x40 MSTORE DUP1 MLOAD SWAP1 PUSH1 0x20 ADD KECCAK256 PUSH2 0x93A JUMP JUMPDEST EQ PUSH2 0x5F4 JUMPI PUSH1 0x40 MLOAD PUSH32 0x177B5D9200000000000000000000000000000000000000000000000000000000 DUP2 MSTORE PUSH1 0x4 ADD PUSH1 0x40 MLOAD DUP1 SWAP2 SUB SWAP1 REVERT JUMPDEST PUSH1 0x0 PUSH32 0x74656C6C6F7243757272656E744174746573746174696F6E0000000000000000 PUSH1 0x0 SHL DUP7 PUSH1 0x0 ADD CALLDATALOAD DUP8 DUP1 PUSH1 0x20 ADD SWAP1 PUSH2 0x62F SWAP2 SWAP1 PUSH2 0x14E8 JUMP JUMPDEST DUP1 PUSH1 0x0 ADD SWAP1 PUSH2 0x63E SWAP2 SWAP1 PUSH2 0x1510 JUMP JUMPDEST DUP10 DUP1 PUSH1 0x20 ADD SWAP1 PUSH2 0x64E SWAP2 SWAP1 PUSH2 0x14E8 JUMP JUMPDEST PUSH1 0x20 ADD CALLDATALOAD DUP11 DUP1 PUSH1 0x20 ADD SWAP1 PUSH2 0x662 SWAP2 SWAP1 PUSH2 0x14E8 JUMP JUMPDEST PUSH1 0x40 ADD CALLDATALOAD DUP12 DUP1 PUSH1 0x20 ADD SWAP1 PUSH2 0x676 SWAP2 SWAP1 PUSH2 0x14E8 JUMP JUMPDEST PUSH1 0x60 ADD CALLDATALOAD DUP13 DUP1 PUSH1 0x20 ADD SWAP1 PUSH2 0x68A SWAP2 SWAP1 PUSH2 0x14E8 JUMP JUMPDEST PUSH1 0x80 ADD CALLDATALOAD PUSH1 0x1 SLOAD DUP15 PUSH1 0x40 ADD CALLDATALOAD DUP16 DUP1 PUSH1 0x20 ADD SWAP1 PUSH2 0x6A6 SWAP2 SWAP1 PUSH2 0x14E8 JUMP JUMPDEST PUSH1 0xA0 ADD CALLDATALOAD PUSH1 0x40 MLOAD PUSH1 0x20 ADD PUSH2 0x6C4 SWAP12 SWAP11 SWAP10 SWAP9 SWAP8 SWAP7 SWAP6 SWAP5 SWAP4 SWAP3 SWAP2 SWAP1 PUSH2 0x15D1 JUMP JUMPDEST PUSH1 0x40 MLOAD PUSH1 0x20 DUP2 DUP4 SUB SUB DUP2 MSTORE SWAP1 PUSH1 0x40 MSTORE DUP1 MLOAD SWAP1 PUSH1 0x20 ADD KECCAK256 SWAP1 POP PUSH2 0x6EC DUP6 DUP6 DUP6 DUP6 DUP6 PUSH1 0x2 SLOAD PUSH2 0x992 JUMP JUMPDEST POP POP POP POP POP POP JUMP JUMPDEST PUSH1 0x3 SLOAD DUP2 JUMP JUMPDEST DUP2 DUP2 SWAP1 POP DUP5 DUP5 SWAP1 POP EQ PUSH2 0x739 JUMPI PUSH1 0x40 MLOAD PUSH32 0xC6617B7B00000000000000000000000000000000000000000000000000000000 DUP2 MSTORE PUSH1 0x4 ADD PUSH1 0x40 MLOAD DUP1 SWAP2 SUB SWAP1 REVERT JUMPDEST PUSH1 0x4 SLOAD DUP6 LT ISZERO PUSH2 0x775 JUMPI PUSH1 0x40 MLOAD PUSH32 0x780635D000000000000000000000000000000000000000000000000000000000 DUP2 MSTORE PUSH1 0x4 ADD PUSH1 0x40 MLOAD DUP1 SWAP2 SUB SWAP1 REVERT JUMPDEST PUSH1 0x0 DUP7 PUSH8 0xFFFFFFFFFFFFFFFF AND SUB PUSH2 0x7B9 JUMPI PUSH1 0x40 MLOAD PUSH32 0xC3B70C8800000000000000000000000000000000000000000000000000000000 DUP2 MSTORE PUSH1 0x4 ADD PUSH1 0x40 MLOAD DUP1 SWAP2 SUB SWAP1 REVERT JUMPDEST PUSH1 0x0 DUP5 DUP5 PUSH1 0x40 MLOAD PUSH1 0x20 ADD PUSH2 0x7CE SWAP3 SWAP2 SWAP1 PUSH2 0x14B5 JUMP JUMPDEST PUSH1 0x40 MLOAD PUSH1 0x20 DUP2 DUP4 SUB SUB DUP2 MSTORE SWAP1 PUSH1 0x40 MSTORE DUP1 MLOAD SWAP1 PUSH1 0x20 ADD KECCAK256 SWAP1 POP PUSH1 0x1 SLOAD PUSH2 0x7F8 PUSH1 0x2 SLOAD PUSH1 0x4 SLOAD DUP5 PUSH2 0x93A JUMP JUMPDEST EQ PUSH2 0x82F JUMPI PUSH1 0x40 MLOAD PUSH32 0x177B5D9200000000000000000000000000000000000000000000000000000000 DUP2 MSTORE PUSH1 0x4 ADD PUSH1 0x40 MLOAD DUP1 SWAP2 SUB SWAP1 REVERT JUMPDEST PUSH1 0x0 PUSH2 0x846 DUP9 PUSH8 0xFFFFFFFFFFFFFFFF AND DUP9 DUP12 PUSH2 0x93A JUMP JUMPDEST SWAP1 POP PUSH2 0x858 DUP7 DUP7 DUP7 DUP7 DUP6 PUSH1 0x2 SLOAD PUSH2 0x992 JUMP JUMPDEST DUP1 PUSH1 0x1 DUP2 SWAP1 SSTORE POP DUP8 PUSH8 0xFFFFFFFFFFFFFFFF AND PUSH1 0x2 DUP2 SWAP1 SSTORE POP DUP7 PUSH1 0x4 DUP2 SWAP1 SSTORE POP PUSH32 0xE304B71F81A1AAF6D714401DE28BA1EBDBB5FF9C5FEE59EF2A6EB984F9E8DA7E DUP9 DUP9 DUP12 PUSH1 0x40 MLOAD PUSH2 0x8AA SWAP4 SWAP3 SWAP2 SWAP1 PUSH2 0x16B1 JUMP JUMPDEST PUSH1 0x40 MLOAD DUP1 SWAP2 SUB SWAP1 LOG1 POP POP POP POP POP POP POP POP POP JUMP JUMPDEST PUSH32 0x0 DUP2 JUMP JUMPDEST PUSH1 0x1 SLOAD DUP2 JUMP JUMPDEST PUSH1 0x2 SLOAD DUP2 JUMP JUMPDEST PUSH32 0x74656C6C6F7243757272656E744174746573746174696F6E0000000000000000 PUSH1 0x0 SHL DUP2 JUMP JUMPDEST PUSH1 0x5 PUSH1 0x0 SWAP1 SLOAD SWAP1 PUSH2 0x100 EXP SWAP1 DIV PUSH20 0xFFFFFFFFFFFFFFFFFFFFFFFFFFFFFFFFFFFFFFFF AND DUP2 JUMP JUMPDEST PUSH1 0x0 PUSH32 0x0 DUP5 DUP5 DUP5 PUSH1 0x40 MLOAD PUSH1 0x20 ADD PUSH2 0x973 SWAP5 SWAP4 SWAP3 SWAP2 SWAP1 PUSH2 0x16E8 JUMP JUMPDEST PUSH1 0x40 MLOAD PUSH1 0x20 DUP2 DUP4 SUB SUB DUP2 MSTORE SWAP1 PUSH1 0x40 MSTORE DUP1 MLOAD SWAP1 PUSH1 0x20 ADD KECCAK256 SWAP1 POP SWAP4 SWAP3 POP POP POP JUMP JUMPDEST PUSH1 0x3 SLOAD PUSH2 0x3E8 PUSH1 0x4 SLOAD PUSH2 0x9A5 SWAP2 SWAP1 PUSH2 0x12BA JUMP JUMPDEST TIMESTAMP PUSH2 0x9B0 SWAP2 SWAP1 PUSH2 0x12EB JUMP JUMPDEST GT ISZERO PUSH2 0x9E8 JUMPI PUSH1 0x40 MLOAD PUSH32 0xE5E5E46400000000000000000000000000000000000000000000000000000000 DUP2 MSTORE PUSH1 0x4 ADD PUSH1 0x40 MLOAD DUP1 SWAP2 SUB SWAP1 REVERT JUMPDEST PUSH1 0x0 DUP1 JUMPDEST DUP8 DUP8 SWAP1 POP DUP2 LT ISZERO PUSH2 0xB49 JUMPI PUSH1 0x0 DUP1 SHL DUP7 DUP7 DUP4 DUP2 DUP2 LT PUSH2 0xA0E JUMPI PUSH2 0xA0D PUSH2 0x172D JUMP JUMPDEST JUMPDEST SWAP1 POP PUSH1 0x60 MUL ADD PUSH1 0x20 ADD CALLDATALOAD EQ DUP1 ISZERO PUSH2 0xA43 JUMPI POP PUSH1 0x0 DUP1 SHL DUP7 DUP7 DUP4 DUP2 DUP2 LT PUSH2 0xA37 JUMPI PUSH2 0xA36 PUSH2 0x172D JUMP JUMPDEST JUMPDEST SWAP1 POP PUSH1 0x60 MUL ADD PUSH1 0x40 ADD CALLDATALOAD EQ JUMPDEST DUP1 ISZERO PUSH2 0xA7C JUMPI POP PUSH1 0x0 DUP7 DUP7 DUP4 DUP2 DUP2 LT PUSH2 0xA5F JUMPI PUSH2 0xA5E PUSH2 0x172D JUMP JUMPDEST JUMPDEST SWAP1 POP PUSH1 0x60 MUL ADD PUSH1 0x0 ADD PUSH1 0x20 DUP2 ADD SWAP1 PUSH2 0xA77 SWAP2 SWAP1 PUSH2 0x1795 JUMP JUMPDEST PUSH1 0xFF AND EQ JUMPDEST PUSH2 0xB36 JUMPI PUSH2 0xACD DUP9 DUP9 DUP4 DUP2 DUP2 LT PUSH2 0xA96 JUMPI PUSH2 0xA95 PUSH2 0x172D JUMP JUMPDEST JUMPDEST SWAP1 POP PUSH1 0x40 MUL ADD PUSH1 0x0 ADD PUSH1 0x20 DUP2 ADD SWAP1 PUSH2 0xAAE SWAP2 SWAP1 PUSH2 0x17C2 JUMP JUMPDEST DUP6 DUP9 DUP9 DUP6 DUP2 DUP2 LT PUSH2 0xAC2 JUMPI PUSH2 0xAC1 PUSH2 0x172D JUMP JUMPDEST JUMPDEST SWAP1 POP PUSH1 0x60 MUL ADD PUSH2 0xB8D JUMP JUMPDEST PUSH2 0xB03 JUMPI PUSH1 0x40 MLOAD PUSH32 0x8BAA579F00000000000000000000000000000000000000000000000000000000 DUP2 MSTORE PUSH1 0x4 ADD PUSH1 0x40 MLOAD DUP1 SWAP2 SUB SWAP1 REVERT JUMPDEST DUP8 DUP8 DUP3 DUP2 DUP2 LT PUSH2 0xB16 JUMPI PUSH2 0xB15 PUSH2 0x172D JUMP JUMPDEST JUMPDEST SWAP1 POP PUSH1 0x40 MUL ADD PUSH1 0x20 ADD CALLDATALOAD DUP3 PUSH2 0xB2B SWAP2 SWAP1 PUSH2 0x17EF JUMP JUMPDEST SWAP2 POP DUP3 DUP3 LT ISZERO PUSH2 0xB49 JUMPI JUMPDEST DUP1 DUP1 PUSH2 0xB41 SWAP1 PUSH2 0x1823 JUMP JUMPDEST SWAP2 POP POP PUSH2 0x9EC JUMP JUMPDEST POP DUP2 DUP2 LT ISZERO PUSH2 0xB84 JUMPI PUSH1 0x40 MLOAD PUSH32 0xCABEB65500000000000000000000000000000000000000000000000000000000 DUP2 MSTORE PUSH1 0x4 ADD PUSH1 0x40 MLOAD DUP1 SWAP2 SUB SWAP1 REVERT JUMPDEST POP POP POP POP POP POP POP JUMP JUMPDEST PUSH1 0x0 PUSH1 0x2 DUP4 PUSH1 0x40 MLOAD PUSH1 0x20 ADD PUSH2 0xBA2 SWAP2 SWAP1 PUSH2 0x188C JUMP JUMPDEST PUSH1 0x40 MLOAD PUSH1 0x20 DUP2 DUP4 SUB SUB DUP2 MSTORE SWAP1 PUSH1 0x40 MSTORE PUSH1 0x40 MLOAD PUSH2 0xBBE SWAP2 SWAP1 PUSH2 0x1918 JUMP JUMPDEST PUSH1 0x20 PUSH1 0x40 MLOAD DUP1 DUP4 SUB DUP2 DUP6 GAS STATICCALL ISZERO DUP1 ISZERO PUSH2 0xBDB JUMPI RETURNDATASIZE PUSH1 0x0 DUP1 RETURNDATACOPY RETURNDATASIZE PUSH1 0x0 REVERT JUMPDEST POP POP POP PUSH1 0x40 MLOAD RETURNDATASIZE PUSH1 0x1F NOT PUSH1 0x1F DUP3 ADD AND DUP3 ADD DUP1 PUSH1 0x40 MSTORE POP DUP2 ADD SWAP1 PUSH2 0xBFE SWAP2 SWAP1 PUSH2 0x1944 JUMP JUMPDEST SWAP3 POP PUSH1 0x0 DUP1 PUSH2 0xC29 DUP6 DUP6 PUSH1 0x0 ADD PUSH1 0x20 DUP2 ADD SWAP1 PUSH2 0xC1A SWAP2 SWAP1 PUSH2 0x1795 JUMP JUMPDEST DUP7 PUSH1 0x20 ADD CALLDATALOAD DUP8 PUSH1 0x40 ADD CALLDATALOAD PUSH2 0xCC6 JUMP JUMPDEST POP SWAP2 POP SWAP2 POP PUSH1 0x0 PUSH1 0x3 DUP2 GT ISZERO PUSH2 0xC42 JUMPI PUSH2 0xC41 PUSH2 0x1971 JUMP JUMPDEST JUMPDEST DUP2 PUSH1 0x3 DUP2 GT ISZERO PUSH2 0xC55 JUMPI PUSH2 0xC54 PUSH2 0x1971 JUMP JUMPDEST JUMPDEST EQ PUSH2 0xC8C JUMPI PUSH1 0x40 MLOAD PUSH32 0x8BAA579F00000000000000000000000000000000000000000000000000000000 DUP2 MSTORE PUSH1 0x4 ADD PUSH1 0x40 MLOAD DUP1 SWAP2 SUB SWAP1 REVERT JUMPDEST DUP2 PUSH20 0xFFFFFFFFFFFFFFFFFFFFFFFFFFFFFFFFFFFFFFFF AND DUP7 PUSH20 0xFFFFFFFFFFFFFFFFFFFFFFFFFFFFFFFFFFFFFFFF AND EQ SWAP3 POP POP POP SWAP4 SWAP3 POP POP POP JUMP JUMPDEST PUSH1 0x0 DUP1 PUSH1 0x0 PUSH32 0x7FFFFFFFFFFFFFFFFFFFFFFFFFFFFFFF5D576E7357A4501DDFE92F46681B20A0 DUP5 PUSH1 0x0 SHR GT ISZERO PUSH2 0xD06 JUMPI PUSH1 0x0 PUSH1 0x3 DUP6 SWAP3 POP SWAP3 POP SWAP3 POP PUSH2 0xDB0 JUMP JUMPDEST PUSH1 0x0 PUSH1 0x1 DUP9 DUP9 DUP9 DUP9 PUSH1 0x40 MLOAD PUSH1 0x0 DUP2 MSTORE PUSH1 0x20 ADD PUSH1 0x40 MSTORE PUSH1 0x40 MLOAD PUSH2 0xD2B SWAP5 SWAP4 SWAP3 SWAP2 SWAP1 PUSH2 0x19AF JUMP JUMPDEST PUSH1 0x20 PUSH1 0x40 MLOAD PUSH1 0x20 DUP2 SUB SWAP1 DUP1 DUP5 SUB SWAP1 DUP6 GAS STATICCALL ISZERO DUP1 ISZERO PUSH2 0xD4D JUMPI RETURNDATASIZE PUSH1 0x0 DUP1 RETURNDATACOPY RETURNDATASIZE PUSH1 0x0 REVERT JUMPDEST POP POP POP PUSH1 0x20 PUSH1 0x40 MLOAD SUB MLOAD SWAP1 POP PUSH1 0x0 PUSH20 0xFFFFFFFFFFFFFFFFFFFFFFFFFFFFFFFFFFFFFFFF AND DUP2 PUSH20 0xFFFFFFFFFFFFFFFFFFFFFFFFFFFFFFFFFFFFFFFF AND SUB PUSH2 0xDA1 JUMPI PUSH1 0x0 PUSH1 0x1 PUSH1 0x0 DUP1 SHL SWAP4 POP SWAP4 POP SWAP4 POP POP PUSH2 0xDB0 JUMP JUMPDEST DUP1 PUSH1 0x0 DUP1 PUSH1 0x0 SHL SWAP4 POP SWAP4 POP SWAP4 POP POP JUMPDEST SWAP5 POP SWAP5 POP SWAP5 SWAP2 POP POP JUMP JUMPDEST PUSH1 0x0 DUP2 ISZERO ISZERO SWAP1 POP SWAP2 SWAP1 POP JUMP JUMPDEST PUSH2 0xDCF DUP2 PUSH2 0xDBA JUMP JUMPDEST DUP3 MSTORE POP POP JUMP JUMPDEST PUSH1 0x0 PUSH1 0x20 DUP3 ADD SWAP1 POP PUSH2 0xDEA PUSH1 0x0 DUP4 ADD DUP5 PUSH2 0xDC6 JUMP JUMPDEST SWAP3 SWAP2 POP POP JUMP JUMPDEST PUSH1 0x0 DUP1 REVERT JUMPDEST PUSH1 0x0 DUP1 REVERT JUMPDEST PUSH1 0x0 DUP2 SWAP1 POP SWAP2 SWAP1 POP JUMP JUMPDEST PUSH2 0xE0D DUP2 PUSH2 0xDFA JUMP JUMPDEST DUP2 EQ PUSH2 0xE18 JUMPI PUSH1 0x0 DUP1 REVERT JUMPDEST POP JUMP JUMPDEST PUSH1 0x0 DUP2 CALLDATALOAD SWAP1 POP PUSH2 0xE2A DUP2 PUSH2 0xE04 JUMP JUMPDEST SWAP3 SWAP2 POP POP JUMP JUMPDEST PUSH1 0x0 DUP2 SWAP1 POP SWAP2 SWAP1 POP JUMP JUMPDEST PUSH2 0xE43 DUP2 PUSH2 0xE30 JUMP JUMPDEST DUP2 EQ PUSH2 0xE4E JUMPI PUSH1 0x0 DUP1 REVERT JUMPDEST POP JUMP JUMPDEST PUSH1 0x0 DUP2 CALLDATALOAD SWAP1 POP PUSH2 0xE60 DUP2 PUSH2 0xE3A JUMP JUMPDEST SWAP3 SWAP2 POP POP JUMP JUMPDEST PUSH1 0x0 DUP1 PUSH1 0x0 PUSH1 0x60 DUP5 DUP7 SUB SLT ISZERO PUSH2 0xE7F JUMPI PUSH2 0xE7E PUSH2 0xDF0 JUMP JUMPDEST JUMPDEST PUSH1 0x0 PUSH2 0xE8D DUP7 DUP3 DUP8 ADD PUSH2 0xE1B JUMP JUMPDEST SWAP4 POP POP PUSH1 0x20 PUSH2 0xE9E DUP7 DUP3 DUP8 ADD PUSH2 0xE1B JUMP JUMPDEST SWAP3 POP POP PUSH1 0x40 PUSH2 0xEAF DUP7 DUP3 DUP8 ADD PUSH2 0xE51 JUMP JUMPDEST SWAP2 POP POP SWAP3 POP SWAP3 POP SWAP3 JUMP JUMPDEST PUSH2 0xEC2 DUP2 PUSH2 0xDFA JUMP JUMPDEST DUP3 MSTORE POP POP JUMP JUMPDEST PUSH1 0x0 PUSH1 0x20 DUP3 ADD SWAP1 POP PUSH2 0xEDD PUSH1 0x0 DUP4 ADD DUP5 PUSH2 0xEB9 JUMP JUMPDEST SWAP3 SWAP2 POP POP JUMP JUMPDEST PUSH1 0x0 DUP1 PUSH1 0x0 DUP1 PUSH1 0x80 DUP6 DUP8 SUB SLT ISZERO PUSH2 0xEFD JUMPI PUSH2 0xEFC PUSH2 0xDF0 JUMP JUMPDEST JUMPDEST PUSH1 0x0 PUSH2 0xF0B DUP8 DUP3 DUP9 ADD PUSH2 0xE1B JUMP JUMPDEST SWAP5 POP POP PUSH1 0x20 PUSH2 0xF1C DUP8 DUP3 DUP9 ADD PUSH2 0xE1B JUMP JUMPDEST SWAP4 POP POP PUSH1 0x40 PUSH2 0xF2D DUP8 DUP3 DUP9 ADD PUSH2 0xE1B JUMP JUMPDEST SWAP3 POP POP PUSH1 0x60 PUSH2 0xF3E DUP8 DUP3 DUP9 ADD PUSH2 0xE51 JUMP JUMPDEST SWAP2 POP POP SWAP3 SWAP6 SWAP2 SWAP5 POP SWAP3 POP JUMP JUMPDEST PUSH1 0x0 PUSH20 0xFFFFFFFFFFFFFFFFFFFFFFFFFFFFFFFFFFFFFFFF DUP3 AND SWAP1 POP SWAP2 SWAP1 POP JUMP JUMPDEST PUSH1 0x0 PUSH2 0xF75 DUP3 PUSH2 0xF4A JUMP JUMPDEST SWAP1 POP SWAP2 SWAP1 POP JUMP JUMPDEST PUSH2 0xF85 DUP2 PUSH2 0xF6A JUMP JUMPDEST DUP3 MSTORE POP POP JUMP JUMPDEST PUSH1 0x0 PUSH1 0x20 DUP3 ADD SWAP1 POP PUSH2 0xFA0 PUSH1 0x0 DUP4 ADD DUP5 PUSH2 0xF7C JUMP JUMPDEST SWAP3 SWAP2 POP POP JUMP JUMPDEST PUSH1 0x0 DUP1 REVERT JUMPDEST PUSH1 0x0 PUSH1 0x60 DUP3 DUP5 SUB SLT ISZERO PUSH2 0xFC1 JUMPI PUSH2 0xFC0 PUSH2 0xFA6 JUMP JUMPDEST JUMPDEST DUP2 SWAP1 POP SWAP3 SWAP2 POP POP JUMP JUMPDEST PUSH1 0x0 DUP1 REVERT JUMPDEST PUSH1 0x0 DUP1 REVERT JUMPDEST PUSH1 0x0 DUP1 REVERT JUMPDEST PUSH1 0x0 DUP1 DUP4 PUSH1 0x1F DUP5 ADD SLT PUSH2 0xFEF JUMPI PUSH2 0xFEE PUSH2 0xFCA JUMP JUMPDEST JUMPDEST DUP3 CALLDATALOAD SWAP1 POP PUSH8 0xFFFFFFFFFFFFFFFF DUP2 GT ISZERO PUSH2 0x100C JUMPI PUSH2 0x100B PUSH2 0xFCF JUMP JUMPDEST JUMPDEST PUSH1 0x20 DUP4 ADD SWAP2 POP DUP4 PUSH1 0x40 DUP3 MUL DUP4 ADD GT ISZERO PUSH2 0x1028 JUMPI PUSH2 0x1027 PUSH2 0xFD4 JUMP JUMPDEST JUMPDEST SWAP3 POP SWAP3 SWAP1 POP JUMP JUMPDEST PUSH1 0x0 DUP1 DUP4 PUSH1 0x1F DUP5 ADD SLT PUSH2 0x1045 JUMPI PUSH2 0x1044 PUSH2 0xFCA JUMP JUMPDEST JUMPDEST DUP3 CALLDATALOAD SWAP1 POP PUSH8 0xFFFFFFFFFFFFFFFF DUP2 GT ISZERO PUSH2 0x1062 JUMPI PUSH2 0x1061 PUSH2 0xFCF JUMP JUMPDEST JUMPDEST PUSH1 0x20 DUP4 ADD SWAP2 POP DUP4 PUSH1 0x60 DUP3 MUL DUP4 ADD GT ISZERO PUSH2 0x107E JUMPI PUSH2 0x107D PUSH2 0xFD4 JUMP JUMPDEST JUMPDEST SWAP3 POP SWAP3 SWAP1 POP JUMP JUMPDEST PUSH1 0x0 DUP1 PUSH1 0x0 DUP1 PUSH1 0x0 PUSH1 0x60 DUP7 DUP9 SUB SLT ISZERO PUSH2 0x10A1 JUMPI PUSH2 0x10A0 PUSH2 0xDF0 JUMP JUMPDEST JUMPDEST PUSH1 0x0 DUP7 ADD CALLDATALOAD PUSH8 0xFFFFFFFFFFFFFFFF DUP2 GT ISZERO PUSH2 0x10BF JUMPI PUSH2 0x10BE PUSH2 0xDF5 JUMP JUMPDEST JUMPDEST PUSH2 0x10CB DUP9 DUP3 DUP10 ADD PUSH2 0xFAB JUMP JUMPDEST SWAP6 POP POP PUSH1 0x20 DUP7 ADD CALLDATALOAD PUSH8 0xFFFFFFFFFFFFFFFF DUP2 GT ISZERO PUSH2 0x10EC JUMPI PUSH2 0x10EB PUSH2 0xDF5 JUMP JUMPDEST JUMPDEST PUSH2 0x10F8 DUP9 DUP3 DUP10 ADD PUSH2 0xFD9 JUMP JUMPDEST SWAP5 POP SWAP5 POP POP PUSH1 0x40 DUP7 ADD CALLDATALOAD PUSH8 0xFFFFFFFFFFFFFFFF DUP2 GT ISZERO PUSH2 0x111B JUMPI PUSH2 0x111A PUSH2 0xDF5 JUMP JUMPDEST JUMPDEST PUSH2 0x1127 DUP9 DUP3 DUP10 ADD PUSH2 0x102F JUMP JUMPDEST SWAP3 POP SWAP3 POP POP SWAP3 SWAP6 POP SWAP3 SWAP6 SWAP1 SWAP4 POP JUMP JUMPDEST PUSH1 0x0 PUSH8 0xFFFFFFFFFFFFFFFF DUP3 AND SWAP1 POP SWAP2 SWAP1 POP JUMP JUMPDEST PUSH2 0x1153 DUP2 PUSH2 0x1136 JUMP JUMPDEST DUP2 EQ PUSH2 0x115E JUMPI PUSH1 0x0 DUP1 REVERT JUMPDEST POP JUMP JUMPDEST PUSH1 0x0 DUP2 CALLDATALOAD SWAP1 POP PUSH2 0x1170 DUP2 PUSH2 0x114A JUMP JUMPDEST SWAP3 SWAP2 POP POP JUMP JUMPDEST PUSH1 0x0 DUP1 PUSH1 0x0 DUP1 PUSH1 0x0 DUP1 PUSH1 0x0 PUSH1 0xA0 DUP9 DUP11 SUB SLT ISZERO PUSH2 0x1195 JUMPI PUSH2 0x1194 PUSH2 0xDF0 JUMP JUMPDEST JUMPDEST PUSH1 0x0 PUSH2 0x11A3 DUP11 DUP3 DUP12 ADD PUSH2 0xE51 JUMP JUMPDEST SWAP8 POP POP PUSH1 0x20 PUSH2 0x11B4 DUP11 DUP3 DUP12 ADD PUSH2 0x1161 JUMP JUMPDEST SWAP7 POP POP PUSH1 0x40 PUSH2 0x11C5 DUP11 DUP3 DUP12 ADD PUSH2 0xE1B JUMP JUMPDEST SWAP6 POP POP PUSH1 0x60 DUP9 ADD CALLDATALOAD PUSH8 0xFFFFFFFFFFFFFFFF DUP2 GT ISZERO PUSH2 0x11E6 JUMPI PUSH2 0x11E5 PUSH2 0xDF5 JUMP JUMPDEST JUMPDEST PUSH2 0x11F2 DUP11 DUP3 DUP12 ADD PUSH2 0xFD9 JUMP JUMPDEST SWAP5 POP SWAP5 POP POP PUSH1 0x80 DUP9 ADD CALLDATALOAD PUSH8 0xFFFFFFFFFFFFFFFF DUP2 GT ISZERO PUSH2 0x1215 JUMPI PUSH2 0x1214 PUSH2 0xDF5 JUMP JUMPDEST JUMPDEST PUSH2 0x1221 DUP11 DUP3 DUP12 ADD PUSH2 0x102F JUMP JUMPDEST SWAP3 POP SWAP3 POP POP SWAP3 SWAP6 SWAP9 SWAP2 SWAP5 SWAP8 POP SWAP3 SWAP6 POP JUMP JUMPDEST PUSH2 0x123B DUP2 PUSH2 0xE30 JUMP JUMPDEST DUP3 MSTORE POP POP JUMP JUMPDEST PUSH1 0x0 PUSH1 0x20 DUP3 ADD SWAP1 POP PUSH2 0x1256 PUSH1 0x0 DUP4 ADD DUP5 PUSH2 0x1232 JUMP JUMPDEST SWAP3 SWAP2 POP POP JUMP JUMPDEST PUSH32 0x4E487B7100000000000000000000000000000000000000000000000000000000 PUSH1 0x0 MSTORE PUSH1 0x12 PUSH1 0x4 MSTORE PUSH1 0x24 PUSH1 0x0 REVERT JUMPDEST PUSH32 0x4E487B7100000000000000000000000000000000000000000000000000000000 PUSH1 0x0 MSTORE PUSH1 0x11 PUSH1 0x4 MSTORE PUSH1 0x24 PUSH1 0x0 REVERT JUMPDEST PUSH1 0x0 PUSH2 0x12C5 DUP3 PUSH2 0xDFA JUMP JUMPDEST SWAP2 POP PUSH2 0x12D0 DUP4 PUSH2 0xDFA JUMP JUMPDEST SWAP3 POP DUP3 PUSH2 0x12E0 JUMPI PUSH2 0x12DF PUSH2 0x125C JUMP JUMPDEST JUMPDEST DUP3 DUP3 DIV SWAP1 POP SWAP3 SWAP2 POP POP JUMP JUMPDEST PUSH1 0x0 PUSH2 0x12F6 DUP3 PUSH2 0xDFA JUMP JUMPDEST SWAP2 POP PUSH2 0x1301 DUP4 PUSH2 0xDFA JUMP JUMPDEST SWAP3 POP DUP3 DUP3 SUB SWAP1 POP DUP2 DUP2 GT ISZERO PUSH2 0x1319 JUMPI PUSH2 0x1318 PUSH2 0x128B JUMP JUMPDEST JUMPDEST SWAP3 SWAP2 POP POP JUMP JUMPDEST PUSH1 0x0 PUSH1 0x60 DUP3 ADD SWAP1 POP PUSH2 0x1334 PUSH1 0x0 DUP4 ADD DUP7 PUSH2 0xEB9 JUMP JUMPDEST PUSH2 0x1341 PUSH1 0x20 DUP4 ADD DUP6 PUSH2 0xEB9 JUMP JUMPDEST PUSH2 0x134E PUSH1 0x40 DUP4 ADD DUP5 PUSH2 0x1232 JUMP JUMPDEST SWAP5 SWAP4 POP POP POP POP JUMP JUMPDEST PUSH1 0x0 DUP3 DUP3 MSTORE PUSH1 0x20 DUP3 ADD SWAP1 POP SWAP3 SWAP2 POP POP JUMP JUMPDEST PUSH1 0x0 DUP2 SWAP1 POP SWAP2 SWAP1 POP JUMP JUMPDEST PUSH2 0x137A DUP2 PUSH2 0xF6A JUMP JUMPDEST DUP2 EQ PUSH2 0x1385 JUMPI PUSH1 0x0 DUP1 REVERT JUMPDEST POP JUMP JUMPDEST PUSH1 0x0 DUP2 CALLDATALOAD SWAP1 POP PUSH2 0x1397 DUP2 PUSH2 0x1371 JUMP JUMPDEST SWAP3 SWAP2 POP POP JUMP JUMPDEST PUSH1 0x0 PUSH2 0x13AC PUSH1 0x20 DUP5 ADD DUP5 PUSH2 0x1388 JUMP JUMPDEST SWAP1 POP SWAP3 SWAP2 POP POP JUMP JUMPDEST PUSH2 0x13BD DUP2 PUSH2 0xF6A JUMP JUMPDEST DUP3 MSTORE POP POP JUMP JUMPDEST PUSH1 0x0 PUSH2 0x13D2 PUSH1 0x20 DUP5 ADD DUP5 PUSH2 0xE1B JUMP JUMPDEST SWAP1 POP SWAP3 SWAP2 POP POP JUMP JUMPDEST PUSH2 0x13E3 DUP2 PUSH2 0xDFA JUMP JUMPDEST DUP3 MSTORE POP POP JUMP JUMPDEST PUSH1 0x40 DUP3 ADD PUSH2 0x13FA PUSH1 0x0 DUP4 ADD DUP4 PUSH2 0x139D JUMP JUMPDEST PUSH2 0x1407 PUSH1 0x0 DUP6 ADD DUP3 PUSH2 0x13B4 JUMP JUMPDEST POP PUSH2 0x1415 PUSH1 0x20 DUP4 ADD DUP4 PUSH2 0x13C3 JUMP JUMPDEST PUSH2 0x1422 PUSH1 0x20 DUP6 ADD DUP3 PUSH2 0x13DA JUMP JUMPDEST POP POP POP POP JUMP JUMPDEST PUSH1 0x0 PUSH2 0x1434 DUP4 DUP4 PUSH2 0x13E9 JUMP JUMPDEST PUSH1 0x40 DUP4 ADD SWAP1 POP SWAP3 SWAP2 POP POP JUMP JUMPDEST PUSH1 0x0 DUP3 SWAP1 POP SWAP3 SWAP2 POP POP JUMP JUMPDEST PUSH1 0x0 PUSH1 0x40 DUP3 ADD SWAP1 POP SWAP2 SWAP1 POP JUMP JUMPDEST PUSH1 0x0 PUSH2 0x1464 DUP4 DUP6 PUSH2 0x1356 JUMP JUMPDEST SWAP4 POP PUSH2 0x146F DUP3 PUSH2 0x1367 JUMP JUMPDEST DUP1 PUSH1 0x0 JUMPDEST DUP6 DUP2 LT ISZERO PUSH2 0x14A8 JUMPI PUSH2 0x1485 DUP3 DUP5 PUSH2 0x1440 JUMP JUMPDEST PUSH2 0x148F DUP9 DUP3 PUSH2 0x1428 JUMP JUMPDEST SWAP8 POP PUSH2 0x149A DUP4 PUSH2 0x144B JUMP JUMPDEST SWAP3 POP POP PUSH1 0x1 DUP2 ADD SWAP1 POP PUSH2 0x1473 JUMP JUMPDEST POP DUP6 SWAP3 POP POP POP SWAP4 SWAP3 POP POP POP JUMP JUMPDEST PUSH1 0x0 PUSH1 0x20 DUP3 ADD SWAP1 POP DUP2 DUP2 SUB PUSH1 0x0 DUP4 ADD MSTORE PUSH2 0x14D0 DUP2 DUP5 DUP7 PUSH2 0x1458 JUMP JUMPDEST SWAP1 POP SWAP4 SWAP3 POP POP POP JUMP JUMPDEST PUSH1 0x0 DUP1 REVERT JUMPDEST PUSH1 0x0 DUP1 REVERT JUMPDEST PUSH1 0x0 DUP1 REVERT JUMPDEST PUSH1 0x0 DUP3 CALLDATALOAD PUSH1 0x1 PUSH1 0xC0 SUB DUP4 CALLDATASIZE SUB SUB DUP2 SLT PUSH2 0x1504 JUMPI PUSH2 0x1503 PUSH2 0x14D9 JUMP JUMPDEST JUMPDEST DUP1 DUP4 ADD SWAP2 POP POP SWAP3 SWAP2 POP POP JUMP JUMPDEST PUSH1 0x0 DUP1 DUP4 CALLDATALOAD PUSH1 0x1 PUSH1 0x20 SUB DUP5 CALLDATASIZE SUB SUB DUP2 SLT PUSH2 0x152D JUMPI PUSH2 0x152C PUSH2 0x14D9 JUMP JUMPDEST JUMPDEST DUP1 DUP5 ADD SWAP3 POP DUP3 CALLDATALOAD SWAP2 POP PUSH8 0xFFFFFFFFFFFFFFFF DUP3 GT ISZERO PUSH2 0x154F JUMPI PUSH2 0x154E PUSH2 0x14DE JUMP JUMPDEST JUMPDEST PUSH1 0x20 DUP4 ADD SWAP3 POP PUSH1 0x1 DUP3 MUL CALLDATASIZE SUB DUP4 SGT ISZERO PUSH2 0x156B JUMPI PUSH2 0x156A PUSH2 0x14E3 JUMP JUMPDEST JUMPDEST POP SWAP3 POP SWAP3 SWAP1 POP JUMP JUMPDEST PUSH1 0x0 DUP3 DUP3 MSTORE PUSH1 0x20 DUP3 ADD SWAP1 POP SWAP3 SWAP2 POP POP JUMP JUMPDEST DUP3 DUP2 DUP4 CALLDATACOPY PUSH1 0x0 DUP4 DUP4 ADD MSTORE POP POP POP JUMP JUMPDEST PUSH1 0x0 PUSH1 0x1F NOT PUSH1 0x1F DUP4 ADD AND SWAP1 POP SWAP2 SWAP1 POP JUMP JUMPDEST PUSH1 0x0 PUSH2 0x15B0 DUP4 DUP6 PUSH2 0x1573 JUMP JUMPDEST SWAP4 POP PUSH2 0x15BD DUP4 DUP6 DUP5 PUSH2 0x1584 JUMP JUMPDEST PUSH2 0x15C6 DUP4 PUSH2 0x1593 JUMP JUMPDEST DUP5 ADD SWAP1 POP SWAP4 SWAP3 POP POP POP JUMP JUMPDEST PUSH1 0x0 PUSH2 0x140 DUP3 ADD SWAP1 POP PUSH2 0x15E7 PUSH1 0x0 DUP4 ADD DUP15 PUSH2 0x1232 JUMP JUMPDEST PUSH2 0x15F4 PUSH1 0x20 DUP4 ADD DUP14 PUSH2 0x1232 JUMP JUMPDEST DUP2 DUP2 SUB PUSH1 0x40 DUP4 ADD MSTORE PUSH2 0x1607 DUP2 DUP12 DUP14 PUSH2 0x15A4 JUMP JUMPDEST SWAP1 POP PUSH2 0x1616 PUSH1 0x60 DUP4 ADD DUP11 PUSH2 0xEB9 JUMP JUMPDEST PUSH2 0x1623 PUSH1 0x80 DUP4 ADD DUP10 PUSH2 0xEB9 JUMP JUMPDEST PUSH2 0x1630 PUSH1 0xA0 DUP4 ADD DUP9 PUSH2 0xEB9 JUMP JUMPDEST PUSH2 0x163D PUSH1 0xC0 DUP4 ADD DUP8 PUSH2 0xEB9 JUMP JUMPDEST PUSH2 0x164A PUSH1 0xE0 DUP4 ADD DUP7 PUSH2 0x1232 JUMP JUMPDEST PUSH2 0x1658 PUSH2 0x100 DUP4 ADD DUP6 PUSH2 0xEB9 JUMP JUMPDEST PUSH2 0x1666 PUSH2 0x120 DUP4 ADD DUP5 PUSH2 0xEB9 JUMP JUMPDEST SWAP13 SWAP12 POP POP POP POP POP POP POP POP POP POP POP POP JUMP JUMPDEST PUSH1 0x0 DUP2 SWAP1 POP SWAP2 SWAP1 POP JUMP JUMPDEST PUSH1 0x0 PUSH2 0x169B PUSH2 0x1696 PUSH2 0x1691 DUP5 PUSH2 0x1136 JUMP JUMPDEST PUSH2 0x1676 JUMP JUMPDEST PUSH2 0xDFA JUMP JUMPDEST SWAP1 POP SWAP2 SWAP1 POP JUMP JUMPDEST PUSH2 0x16AB DUP2 PUSH2 0x1680 JUMP JUMPDEST DUP3 MSTORE POP POP JUMP JUMPDEST PUSH1 0x0 PUSH1 0x60 DUP3 ADD SWAP1 POP PUSH2 0x16C6 PUSH1 0x0 DUP4 ADD DUP7 PUSH2 0x16A2 JUMP JUMPDEST PUSH2 0x16D3 PUSH1 0x20 DUP4 ADD DUP6 PUSH2 0xEB9 JUMP JUMPDEST PUSH2 0x16E0 PUSH1 0x40 DUP4 ADD DUP5 PUSH2 0x1232 JUMP JUMPDEST SWAP5 SWAP4 POP POP POP POP JUMP JUMPDEST PUSH1 0x0 PUSH1 0x80 DUP3 ADD SWAP1 POP PUSH2 0x16FD PUSH1 0x0 DUP4 ADD DUP8 PUSH2 0x1232 JUMP JUMPDEST PUSH2 0x170A PUSH1 0x20 DUP4 ADD DUP7 PUSH2 0xEB9 JUMP JUMPDEST PUSH2 0x1717 PUSH1 0x40 DUP4 ADD DUP6 PUSH2 0xEB9 JUMP JUMPDEST PUSH2 0x1724 PUSH1 0x60 DUP4 ADD DUP5 PUSH2 0x1232 JUMP JUMPDEST SWAP6 SWAP5 POP POP POP POP POP JUMP JUMPDEST PUSH32 0x4E487B7100000000000000000000000000000000000000000000000000000000 PUSH1 0x0 MSTORE PUSH1 0x32 PUSH1 0x4 MSTORE PUSH1 0x24 PUSH1 0x0 REVERT JUMPDEST PUSH1 0x0 PUSH1 0xFF DUP3 AND SWAP1 POP SWAP2 SWAP1 POP JUMP JUMPDEST PUSH2 0x1772 DUP2 PUSH2 0x175C JUMP JUMPDEST DUP2 EQ PUSH2 0x177D JUMPI PUSH1 0x0 DUP1 REVERT JUMPDEST POP JUMP JUMPDEST PUSH1 0x0 DUP2 CALLDATALOAD SWAP1 POP PUSH2 0x178F DUP2 PUSH2 0x1769 JUMP JUMPDEST SWAP3 SWAP2 POP POP JUMP JUMPDEST PUSH1 0x0 PUSH1 0x20 DUP3 DUP5 SUB SLT ISZERO PUSH2 0x17AB JUMPI PUSH2 0x17AA PUSH2 0xDF0 JUMP JUMPDEST JUMPDEST PUSH1 0x0 PUSH2 0x17B9 DUP5 DUP3 DUP6 ADD PUSH2 0x1780 JUMP JUMPDEST SWAP2 POP POP SWAP3 SWAP2 POP POP JUMP JUMPDEST PUSH1 0x0 PUSH1 0x20 DUP3 DUP5 SUB SLT ISZERO PUSH2 0x17D8 JUMPI PUSH2 0x17D7 PUSH2 0xDF0 JUMP JUMPDEST JUMPDEST PUSH1 0x0 PUSH2 0x17E6 DUP5 DUP3 DUP6 ADD PUSH2 0x1388 JUMP JUMPDEST SWAP2 POP POP SWAP3 SWAP2 POP POP JUMP JUMPDEST PUSH1 0x0 PUSH2 0x17FA DUP3 PUSH2 0xDFA JUMP JUMPDEST SWAP2 POP PUSH2 0x1805 DUP4 PUSH2 0xDFA JUMP JUMPDEST SWAP3 POP DUP3 DUP3 ADD SWAP1 POP DUP1 DUP3 GT ISZERO PUSH2 0x181D JUMPI PUSH2 0x181C PUSH2 0x128B JUMP JUMPDEST JUMPDEST SWAP3 SWAP2 POP POP JUMP JUMPDEST PUSH1 0x0 PUSH2 0x182E DUP3 PUSH2 0xDFA JUMP JUMPDEST SWAP2 POP PUSH32 0xFFFFFFFFFFFFFFFFFFFFFFFFFFFFFFFFFFFFFFFFFFFFFFFFFFFFFFFFFFFFFFFF DUP3 SUB PUSH2 0x1860 JUMPI PUSH2 0x185F PUSH2 0x128B JUMP JUMPDEST JUMPDEST PUSH1 0x1 DUP3 ADD SWAP1 POP SWAP2 SWAP1 POP JUMP JUMPDEST PUSH1 0x0 DUP2 SWAP1 POP SWAP2 SWAP1 POP JUMP JUMPDEST PUSH2 0x1886 PUSH2 0x1881 DUP3 PUSH2 0xE30 JUMP JUMPDEST PUSH2 0x186B JUMP JUMPDEST DUP3 MSTORE POP POP JUMP JUMPDEST PUSH1 0x0 PUSH2 0x1898 DUP3 DUP5 PUSH2 0x1875 JUMP JUMPDEST PUSH1 0x20 DUP3 ADD SWAP2 POP DUP2 SWAP1 POP SWAP3 SWAP2 POP POP JUMP JUMPDEST PUSH1 0x0 DUP2 MLOAD SWAP1 POP SWAP2 SWAP1 POP JUMP JUMPDEST PUSH1 0x0 DUP2 SWAP1 POP SWAP3 SWAP2 POP POP JUMP JUMPDEST PUSH1 0x0 JUMPDEST DUP4 DUP2 LT ISZERO PUSH2 0x18DB JUMPI DUP1 DUP3 ADD MLOAD DUP2 DUP5 ADD MSTORE PUSH1 0x20 DUP2 ADD SWAP1 POP PUSH2 0x18C0 JUMP JUMPDEST PUSH1 0x0 DUP5 DUP5 ADD MSTORE POP POP POP POP JUMP JUMPDEST PUSH1 0x0 PUSH2 0x18F2 DUP3 PUSH2 0x18A7 JUMP JUMPDEST PUSH2 0x18FC DUP2 DUP6 PUSH2 0x18B2 JUMP JUMPDEST SWAP4 POP PUSH2 0x190C DUP2 DUP6 PUSH1 0x20 DUP7 ADD PUSH2 0x18BD JUMP JUMPDEST DUP1 DUP5 ADD SWAP2 POP POP SWAP3 SWAP2 POP POP JUMP JUMPDEST PUSH1 0x0 PUSH2 0x1924 DUP3 DUP5 PUSH2 0x18E7 JUMP JUMPDEST SWAP2 POP DUP2 SWAP1 POP SWAP3 SWAP2 POP POP JUMP JUMPDEST PUSH1 0x0 DUP2 MLOAD SWAP1 POP PUSH2 0x193E DUP2 PUSH2 0xE3A JUMP JUMPDEST SWAP3 SWAP2 POP POP JUMP JUMPDEST PUSH1 0x0 PUSH1 0x20 DUP3 DUP5 SUB SLT ISZERO PUSH2 0x195A JUMPI PUSH2 0x1959 PUSH2 0xDF0 JUMP JUMPDEST JUMPDEST PUSH1 0x0 PUSH2 0x1968 DUP5 DUP3 DUP6 ADD PUSH2 0x192F JUMP JUMPDEST SWAP2 POP POP SWAP3 SWAP2 POP POP JUMP JUMPDEST PUSH32 0x4E487B7100000000000000000000000000000000000000000000000000000000 PUSH1 0x0 MSTORE PUSH1 0x21 PUSH1 0x4 MSTORE PUSH1 0x24 PUSH1 0x0 REVERT JUMPDEST PUSH2 0x19A9 DUP2 PUSH2 0x175C JUMP JUMPDEST DUP3 MSTORE POP POP JUMP JUMPDEST PUSH1 0x0 PUSH1 0x80 DUP3 ADD SWAP1 POP PUSH2 0x19C4 PUSH1 0x0 DUP4 ADD DUP8 PUSH2 0x1232 JUMP JUMPDEST PUSH2 0x19D1 PUSH1 0x20 DUP4 ADD DUP7 PUSH2 0x19A0 JUMP JUMPDEST PUSH2 0x19DE PUSH1 0x40 DUP4 ADD DUP6 PUSH2 0x1232 JUMP JUMPDEST PUSH2 0x19EB PUSH1 0x60 DUP4 ADD DUP5 PUSH2 0x1232 JUMP JUMPDEST SWAP6 SWAP5 POP POP POP POP POP JUMP INVALID LOG2 PUSH5 0x6970667358 0x22 SLT KECCAK256 DUP11 0x4E 0x27 0xDB NUMBER 0xC9 PUSH21 0xB180DDEA3C0F3E4138731AC4B9BD11334386ECBAA9 BLOCKHASH NUMBER SWAP5 PUSH22 0x64736F6C634300081300330000000000000000000000 "},"methodIdentifiers":{"MS_PER_SECOND()":"1a8bcd34","NEW_REPORT_ATTESTATION_DOMAIN_SEPARATOR()":"bd7c3153","VALIDATOR_SET_HASH_DOMAIN_SEPARATOR()":"9e45a913","deployer()":"d5f39488","guardian()":"452a9320","guardianResetValidatorSet(uint256,uint256,bytes32)":"185bf52b","init(uint256,uint256,uint256,bytes32)":"4394f6f3","initialized()":"158ef93e","lastValidatorSetCheckpoint()":"af082a7d","powerThreshold()":"ba95ec27","unbondingPeriod()":"6cf6d675","updateValidatorSet(bytes32,uint64,uint256,(address,uint256)[],(uint8,bytes32,bytes32)[])":"84330d4c","validatorTimestamp()":"4f76f1ee","verifyOracleData((bytes32,(bytes,uint256,uint256,uint256,uint256,uint256),uint256),(address,uint256)[],(uint8,bytes32,bytes32)[])":"5e0d3b0f"}}}}}