{"contracts/YoloTellorUser.sol":{"YoloTellorUser":{"abi":[{"inputs":[{"internalType":"address","name":"_dataBridge","type":"address"}],"stateMutability":"nonpayable","type":"constructor"},{"inputs":[],"name":"dataBridge","outputs":[{"internalType":"contract ITellorDataBridge","name":"","type":"address"}],"stateMutability":"view","type":"function"},{"inputs":[],"name":"getCurrentOracleData","outputs":[{"components":[{"internalType":"uint256","name":"value","type":"uint256"},{"internalType":"uint256","name":"timestamp","type":"uint256"}],"internalType":"struct YoloTellorUser.OracleData","name":"","type":"tuple"}],"stateMutability":"view","type":"function"},{"inputs":[],"name":"getValueCount","outputs":[{"internalType":"uint256","name":"","type":"uint256"}],"stateMutability":"view","type":"function"},{"inputs":[{"internalType":"uint256","name":"","type":"uint256"}],"name":"oracleData","outputs":[{"internalType":"uint256","name":"value","type":"uint256"},{"internalType":"uint256","name":"timestamp","type":"uint256"}],"stateMutability":"view","type":"function"},{"inputs":[{"components":[{"internalType":"bytes32","name":"queryId","type":"bytes32"},{"components":[{"internalType":"bytes","name":"value","type":"bytes"},{"internalType":"uint256","name":"timestamp","type":"uint256"},{"internalType":"uint256","name":"aggregatePower","type":"uint256"},{"internalType":"uint256","name":"previousTimestamp","type":"uint256"},{"internalType":"uint256","name":"nextTimestamp","type":"uint256"},{"internalType":"uint256","name":"lastConsensusTimestamp","type":"uint256"}],"internalType":"struct ReportData","name":"report","type":"tuple"},{"internalType":"uint256","name":"attestationTimestamp","type":"uint256"}],"internalType":"struct OracleAttestationData","name":"_attestData","type":"tuple"},{"components":[{"internalType":"address","name":"addr","type":"address"},{"internalType":"uint256","name":"power","type":"uint256"}],"internalType":"struct Validator[]","name":"_currentValidatorSet","type":"tuple[]"},{"components":[{"internalType":"uint8","name":"v","type":"uint8"},{"internalType":"bytes32","name":"r","type":"bytes32"},{"internalType":"bytes32","name":"s","type":"bytes32"}],"internalType":"struct Signature[]","name":"_sigs","type":"tuple[]"}],"name":"updateOracleData","outputs":[],"stateMutability":"nonpayable","type":"function"}],"evm":{"bytecode":{"linkReferences":{},"object":"608060405234801561001057600080fd5b50604051610e57380380610e57833981810160405281019061003291906100db565b806000806101000a81548173ffffffffffffffffffffffffffffffffffffffff021916908373ffffffffffffffffffffffffffffffffffffffff16021790555050610108565b600080fd5b600073ffffffffffffffffffffffffffffffffffffffff82169050919050565b60006100a88261007d565b9050919050565b6100b88161009d565b81146100c357600080fd5b50565b6000815190506100d5816100af565b92915050565b6000602082840312156100f1576100f0610078565b5b60006100ff848285016100c6565b91505092915050565b610d40806101176000396000f3fe608060405234801561001057600080fd5b50600436106100575760003560e01c8063413a89b41461005c578063578855b21461007a5780636180801014610098578063aa4dea00146100b4578063bffe07bf146100e5575b600080fd5b610064610103565b604051610071919061032a565b60405180910390f35b610082610110565b60405161008f91906103c4565b60405180910390f35b6100b260048036038101906100ad91906104c8565b610134565b005b6100ce60048036038101906100c991906105a5565b610266565b6040516100dc9291906105d2565b60405180910390f35b6100ed61029a565b6040516100fa9190610639565b60405180910390f35b6000600180549050905090565b60008054906101000a900473ffffffffffffffffffffffffffffffffffffffff1681565b60008054906101000a900473ffffffffffffffffffffffffffffffffffffffff1673ffffffffffffffffffffffffffffffffffffffff16635e0d3b0f86868686866040518663ffffffff1660e01b8152600401610195959493929190610b8e565b60006040518083038186803b1580156101ad57600080fd5b505afa1580156101c1573d6000803e3d6000fd5b5050505060008580602001906101d79190610bed565b80600001906101e69190610c15565b8101906101f391906105a5565b9050600160405180604001604052808381526020018880602001906102189190610bed565b60200135815250908060018154018082558091505060019003906000526020600020906002020160009091909190915060008201518160000155602082015181600101555050505050505050565b6001818154811061027657600080fd5b90600052602060002090600202016000915090508060000154908060010154905082565b6102a26102f7565b60018080805490506102b49190610ca7565b815481106102c5576102c4610cdb565b5b906000526020600020906002020160405180604001604052908160008201548152602001600182015481525050905090565b604051806040016040528060008152602001600081525090565b6000819050919050565b61032481610311565b82525050565b600060208201905061033f600083018461031b565b92915050565b600073ffffffffffffffffffffffffffffffffffffffff82169050919050565b6000819050919050565b600061038a61038561038084610345565b610365565b610345565b9050919050565b600061039c8261036f565b9050919050565b60006103ae82610391565b9050919050565b6103be816103a3565b82525050565b60006020820190506103d960008301846103b5565b92915050565b600080fd5b600080fd5b600080fd5b600060608284031215610404576104036103e9565b5b81905092915050565b600080fd5b600080fd5b600080fd5b60008083601f8401126104325761043161040d565b5b8235905067ffffffffffffffff81111561044f5761044e610412565b5b60208301915083604082028301111561046b5761046a610417565b5b9250929050565b60008083601f8401126104885761048761040d565b5b8235905067ffffffffffffffff8111156104a5576104a4610412565b5b6020830191508360608202830111156104c1576104c0610417565b5b9250929050565b6000806000806000606086880312156104e4576104e36103df565b5b600086013567ffffffffffffffff811115610502576105016103e4565b5b61050e888289016103ee565b955050602086013567ffffffffffffffff81111561052f5761052e6103e4565b5b61053b8882890161041c565b9450945050604086013567ffffffffffffffff81111561055e5761055d6103e4565b5b61056a88828901610472565b92509250509295509295909350565b61058281610311565b811461058d57600080fd5b50565b60008135905061059f81610579565b92915050565b6000602082840312156105bb576105ba6103df565b5b60006105c984828501610590565b91505092915050565b60006040820190506105e7600083018561031b565b6105f4602083018461031b565b9392505050565b61060481610311565b82525050565b60408201600082015161062060008501826105fb565b50602082015161063360208501826105fb565b50505050565b600060408201905061064e600083018461060a565b92915050565b6000819050919050565b61066781610654565b811461067257600080fd5b50565b6000813590506106848161065e565b92915050565b60006106996020840184610675565b905092915050565b6106aa81610654565b82525050565b600080fd5b60008235600160c0038336030381126106d1576106d06106b0565b5b82810191505092915050565b600080fd5b600080fd5b60008083356001602003843603038112610704576107036106b0565b5b83810192508235915060208301925067ffffffffffffffff82111561072c5761072b6106dd565b5b600182023603831315610742576107416106e2565b5b509250929050565b600082825260208201905092915050565b82818337600083830152505050565b6000601f19601f8301169050919050565b6000610787838561074a565b935061079483858461075b565b61079d8361076a565b840190509392505050565b60006107b76020840184610590565b905092915050565b600060c083016107d260008401846106e7565b85830360008701526107e583828461077b565b925050506107f660208401846107a8565b61080360208601826105fb565b5061081160408401846107a8565b61081e60408601826105fb565b5061082c60608401846107a8565b61083960608601826105fb565b5061084760808401846107a8565b61085460808601826105fb565b5061086260a08401846107a8565b61086f60a08601826105fb565b508091505092915050565b60006060830161088d600084018461068a565b61089a60008601826106a1565b506108a860208401846106b5565b84820360208601526108ba82826107bf565b9150506108ca60408401846107a8565b6108d760408601826105fb565b508091505092915050565b600082825260208201905092915050565b6000819050919050565b600061090882610345565b9050919050565b610918816108fd565b811461092357600080fd5b50565b6000813590506109358161090f565b92915050565b600061094a6020840184610926565b905092915050565b61095b816108fd565b82525050565b60408201610972600083018361093b565b61097f6000850182610952565b5061098d60208301836107a8565b61099a60208501826105fb565b50505050565b60006109ac8383610961565b60408301905092915050565b600082905092915050565b6000604082019050919050565b60006109dc83856108e2565b93506109e7826108f3565b8060005b85811015610a20576109fd82846109b8565b610a0788826109a0565b9750610a12836109c3565b9250506001810190506109eb565b5085925050509392505050565b600082825260208201905092915050565b6000819050919050565b600060ff82169050919050565b610a5e81610a48565b8114610a6957600080fd5b50565b600081359050610a7b81610a55565b92915050565b6000610a906020840184610a6c565b905092915050565b610aa181610a48565b82525050565b60608201610ab86000830183610a81565b610ac56000850182610a98565b50610ad3602083018361068a565b610ae060208501826106a1565b50610aee604083018361068a565b610afb60408501826106a1565b50505050565b6000610b0d8383610aa7565b60608301905092915050565b600082905092915050565b6000606082019050919050565b6000610b3d8385610a2d565b9350610b4882610a3e565b8060005b85811015610b8157610b5e8284610b19565b610b688882610b01565b9750610b7383610b24565b925050600181019050610b4c565b5085925050509392505050565b60006060820190508181036000830152610ba8818861087a565b90508181036020830152610bbd8186886109d0565b90508181036040830152610bd2818486610b31565b90509695505050505050565b600080fd5b600080fd5b600080fd5b60008235600160c003833603038112610c0957610c08610bde565b5b80830191505092915050565b60008083356001602003843603038112610c3257610c31610bde565b5b80840192508235915067ffffffffffffffff821115610c5457610c53610be3565b5b602083019250600182023603831315610c7057610c6f610be8565b5b509250929050565b7f4e487b7100000000000000000000000000000000000000000000000000000000600052601160045260246000fd5b6000610cb282610311565b9150610cbd83610311565b9250828203905081811115610cd557610cd4610c78565b5b92915050565b7f4e487b7100000000000000000000000000000000000000000000000000000000600052603260045260246000fdfea2646970667358221220174690d1e38629ed07a1b806259cb4e0a0ec3625491143806f80de1564fa8e6464736f6c63430008130033","opcodes":"PUSH1 0x80 PUSH1 0x40 MSTORE CALLVALUE DUP1 ISZERO PUSH2 0x10 JUMPI PUSH1 0x0 DUP1 REVERT JUMPDEST POP PUSH1 0x40 MLOAD PUSH2 0xE57 CODESIZE SUB DUP1 PUSH2 0xE57 DUP4 CODECOPY DUP2 DUP2 ADD PUSH1 0x40 MSTORE DUP2 ADD SWAP1 PUSH2 0x32 SWAP2 SWAP1 PUSH2 0xDB JUMP JUMPDEST DUP1 PUSH1 0x0 DUP1 PUSH2 0x100 EXP DUP2 SLOAD DUP2 PUSH20 0xFFFFFFFFFFFFFFFFFFFFFFFFFFFFFFFFFFFFFFFF MUL NOT AND SWAP1 DUP4 PUSH20 0xFFFFFFFFFFFFFFFFFFFFFFFFFFFFFFFFFFFFFFFF AND MUL OR SWAP1 SSTORE POP POP PUSH2 0x108 JUMP JUMPDEST PUSH1 0x0 DUP1 REVERT JUMPDEST PUSH1 0x0 PUSH20 0xFFFFFFFFFFFFFFFFFFFFFFFFFFFFFFFFFFFFFFFF DUP3 AND SWAP1 POP SWAP2 SWAP1 POP JUMP JUMPDEST PUSH1 0x0 PUSH2 0xA8 DUP3 PUSH2 0x7D JUMP JUMPDEST SWAP1 POP SWAP2 SWAP1 POP JUMP JUMPDEST PUSH2 0xB8 DUP2 PUSH2 0x9D JUMP JUMPDEST DUP2 EQ PUSH2 0xC3 JUMPI PUSH1 0x0 DUP1 REVERT JUMPDEST POP JUMP JUMPDEST PUSH1 0x0 DUP2 MLOAD SWAP1 POP PUSH2 0xD5 DUP2 PUSH2 0xAF JUMP JUMPDEST SWAP3 SWAP2 POP POP JUMP JUMPDEST PUSH1 0x0 PUSH1 0x20 DUP3 DUP5 SUB SLT ISZERO PUSH2 0xF1 JUMPI PUSH2 0xF0 PUSH2 0x78 JUMP JUMPDEST JUMPDEST PUSH1 0x0 PUSH2 0xFF DUP5 DUP3 DUP6 ADD PUSH2 0xC6 JUMP JUMPDEST SWAP2 POP POP SWAP3 SWAP2 POP POP JUMP JUMPDEST PUSH2 0xD40 DUP1 PUSH2 0x117 PUSH1 0x0 CODECOPY PUSH1 0x0 RETURN INVALID PUSH1 0x80 PUSH1 0x40 MSTORE CALLVALUE DUP1 ISZERO PUSH2 0x10 JUMPI PUSH1 0x0 DUP1 REVERT JUMPDEST POP PUSH1 0x4 CALLDATASIZE LT PUSH2 0x57 JUMPI PUSH1 0x0 CALLDATALOAD PUSH1 0xE0 SHR DUP1 PUSH4 0x413A89B4 EQ PUSH2 0x5C JUMPI DUP1 PUSH4 0x578855B2 EQ PUSH2 0x7A JUMPI DUP1 PUSH4 0x61808010 EQ PUSH2 0x98 JUMPI DUP1 PUSH4 0xAA4DEA00 EQ PUSH2 0xB4 JUMPI DUP1 PUSH4 0xBFFE07BF EQ PUSH2 0xE5 JUMPI JUMPDEST PUSH1 0x0 DUP1 REVERT JUMPDEST PUSH2 0x64 PUSH2 0x103 JUMP JUMPDEST PUSH1 0x40 MLOAD PUSH2 0x71 SWAP2 SWAP1 PUSH2 0x32A JUMP JUMPDEST PUSH1 0x40 MLOAD DUP1 SWAP2 SUB SWAP1 RETURN JUMPDEST PUSH2 0x82 PUSH2 0x110 JUMP JUMPDEST PUSH1 0x40 MLOAD PUSH2 0x8F SWAP2 SWAP1 PUSH2 0x3C4 JUMP JUMPDEST PUSH1 0x40 MLOAD DUP1 SWAP2 SUB SWAP1 RETURN JUMPDEST PUSH2 0xB2 PUSH1 0x4 DUP1 CALLDATASIZE SUB DUP2 ADD SWAP1 PUSH2 0xAD SWAP2 SWAP1 PUSH2 0x4C8 JUMP JUMPDEST PUSH2 0x134 JUMP JUMPDEST STOP JUMPDEST PUSH2 0xCE PUSH1 0x4 DUP1 CALLDATASIZE SUB DUP2 ADD SWAP1 PUSH2 0xC9 SWAP2 SWAP1 PUSH2 0x5A5 JUMP JUMPDEST PUSH2 0x266 JUMP JUMPDEST PUSH1 0x40 MLOAD PUSH2 0xDC SWAP3 SWAP2 SWAP1 PUSH2 0x5D2 JUMP JUMPDEST PUSH1 0x40 MLOAD DUP1 SWAP2 SUB SWAP1 RETURN JUMPDEST PUSH2 0xED PUSH2 0x29A JUMP JUMPDEST PUSH1 0x40 MLOAD PUSH2 0xFA SWAP2 SWAP1 PUSH2 0x639 JUMP JUMPDEST PUSH1 0x40 MLOAD DUP1 SWAP2 SUB SWAP1 RETURN JUMPDEST PUSH1 0x0 PUSH1 0x1 DUP1 SLOAD SWAP1 POP SWAP1 POP SWAP1 JUMP JUMPDEST PUSH1 0x0 DUP1 SLOAD SWAP1 PUSH2 0x100 EXP SWAP1 DIV PUSH20 0xFFFFFFFFFFFFFFFFFFFFFFFFFFFFFFFFFFFFFFFF AND DUP2 JUMP JUMPDEST PUSH1 0x0 DUP1 SLOAD SWAP1 PUSH2 0x100 EXP SWAP1 DIV PUSH20 0xFFFFFFFFFFFFFFFFFFFFFFFFFFFFFFFFFFFFFFFF AND PUSH20 0xFFFFFFFFFFFFFFFFFFFFFFFFFFFFFFFFFFFFFFFF AND PUSH4 0x5E0D3B0F DUP7 DUP7 DUP7 DUP7 DUP7 PUSH1 0x40 MLOAD DUP7 PUSH4 0xFFFFFFFF AND PUSH1 0xE0 SHL DUP2 MSTORE PUSH1 0x4 ADD PUSH2 0x195 SWAP6 SWAP5 SWAP4 SWAP3 SWAP2 SWAP1 PUSH2 0xB8E JUMP JUMPDEST PUSH1 0x0 PUSH1 0x40 MLOAD DUP1 DUP4 SUB DUP2 DUP7 DUP1 EXTCODESIZE ISZERO DUP1 ISZERO PUSH2 0x1AD JUMPI PUSH1 0x0 DUP1 REVERT JUMPDEST POP GAS STATICCALL ISZERO DUP1 ISZERO PUSH2 0x1C1 JUMPI RETURNDATASIZE PUSH1 0x0 DUP1 RETURNDATACOPY RETURNDATASIZE PUSH1 0x0 REVERT JUMPDEST POP POP POP POP PUSH1 0x0 DUP6 DUP1 PUSH1 0x20 ADD SWAP1 PUSH2 0x1D7 SWAP2 SWAP1 PUSH2 0xBED JUMP JUMPDEST DUP1 PUSH1 0x0 ADD SWAP1 PUSH2 0x1E6 SWAP2 SWAP1 PUSH2 0xC15 JUMP JUMPDEST DUP2 ADD SWAP1 PUSH2 0x1F3 SWAP2 SWAP1 PUSH2 0x5A5 JUMP JUMPDEST SWAP1 POP PUSH1 0x1 PUSH1 0x40 MLOAD DUP1 PUSH1 0x40 ADD PUSH1 0x40 MSTORE DUP1 DUP4 DUP2 MSTORE PUSH1 0x20 ADD DUP9 DUP1 PUSH1 0x20 ADD SWAP1 PUSH2 0x218 SWAP2 SWAP1 PUSH2 0xBED JUMP JUMPDEST PUSH1 0x20 ADD CALLDATALOAD DUP2 MSTORE POP SWAP1 DUP1 PUSH1 0x1 DUP2 SLOAD ADD DUP1 DUP3 SSTORE DUP1 SWAP2 POP POP PUSH1 0x1 SWAP1 SUB SWAP1 PUSH1 0x0 MSTORE PUSH1 0x20 PUSH1 0x0 KECCAK256 SWAP1 PUSH1 0x2 MUL ADD PUSH1 0x0 SWAP1 SWAP2 SWAP1 SWAP2 SWAP1 SWAP2 POP PUSH1 0x0 DUP3 ADD MLOAD DUP2 PUSH1 0x0 ADD SSTORE PUSH1 0x20 DUP3 ADD MLOAD DUP2 PUSH1 0x1 ADD SSTORE POP POP POP POP POP POP POP POP JUMP JUMPDEST PUSH1 0x1 DUP2 DUP2 SLOAD DUP2 LT PUSH2 0x276 JUMPI PUSH1 0x0 DUP1 REVERT JUMPDEST SWAP1 PUSH1 0x0 MSTORE PUSH1 0x20 PUSH1 0x0 KECCAK256 SWAP1 PUSH1 0x2 MUL ADD PUSH1 0x0 SWAP2 POP SWAP1 POP DUP1 PUSH1 0x0 ADD SLOAD SWAP1 DUP1 PUSH1 0x1 ADD SLOAD SWAP1 POP DUP3 JUMP JUMPDEST PUSH2 0x2A2 PUSH2 0x2F7 JUMP JUMPDEST PUSH1 0x1 DUP1 DUP1 DUP1 SLOAD SWAP1 POP PUSH2 0x2B4 SWAP2 SWAP1 PUSH2 0xCA7 JUMP JUMPDEST DUP2 SLOAD DUP2 LT PUSH2 0x2C5 JUMPI PUSH2 0x2C4 PUSH2 0xCDB JUMP JUMPDEST JUMPDEST SWAP1 PUSH1 0x0 MSTORE PUSH1 0x20 PUSH1 0x0 KECCAK256 SWAP1 PUSH1 0x2 MUL ADD PUSH1 0x40 MLOAD DUP1 PUSH1 0x40 ADD PUSH1 0x40 MSTORE SWAP1 DUP2 PUSH1 0x0 DUP3 ADD SLOAD DUP2 MSTORE PUSH1 0x20 ADD PUSH1 0x1 DUP3 ADD SLOAD DUP2 MSTORE POP POP SWAP1 POP SWAP1 JUMP JUMPDEST PUSH1 0x40 MLOAD DUP1 PUSH1 0x40 ADD PUSH1 0x40 MSTORE DUP1 PUSH1 0x0 DUP2 MSTORE PUSH1 0x20 ADD PUSH1 0x0 DUP2 MSTORE POP SWAP1 JUMP JUMPDEST PUSH1 0x0 DUP2 SWAP1 POP SWAP2 SWAP1 POP JUMP JUMPDEST PUSH2 0x324 DUP2 PUSH2 0x311 JUMP JUMPDEST DUP3 MSTORE POP POP JUMP JUMPDEST PUSH1 0x0 PUSH1 0x20 DUP3 ADD SWAP1 POP PUSH2 0x33F PUSH1 0x0 DUP4 ADD DUP5 PUSH2 0x31B JUMP JUMPDEST SWAP3 SWAP2 POP POP JUMP JUMPDEST PUSH1 0x0 PUSH20 0xFFFFFFFFFFFFFFFFFFFFFFFFFFFFFFFFFFFFFFFF DUP3 AND SWAP1 POP SWAP2 SWAP1 POP JUMP JUMPDEST PUSH1 0x0 DUP2 SWAP1 POP SWAP2 SWAP1 POP JUMP JUMPDEST PUSH1 0x0 PUSH2 0x38A PUSH2 0x385 PUSH2 0x380 DUP5 PUSH2 0x345 JUMP JUMPDEST PUSH2 0x365 JUMP JUMPDEST PUSH2 0x345 JUMP JUMPDEST SWAP1 POP SWAP2 SWAP1 POP JUMP JUMPDEST PUSH1 0x0 PUSH2 0x39C DUP3 PUSH2 0x36F JUMP JUMPDEST SWAP1 POP SWAP2 SWAP1 POP JUMP JUMPDEST PUSH1 0x0 PUSH2 0x3AE DUP3 PUSH2 0x391 JUMP JUMPDEST SWAP1 POP SWAP2 SWAP1 POP JUMP JUMPDEST PUSH2 0x3BE DUP2 PUSH2 0x3A3 JUMP JUMPDEST DUP3 MSTORE POP POP JUMP JUMPDEST PUSH1 0x0 PUSH1 0x20 DUP3 ADD SWAP1 POP PUSH2 0x3D9 PUSH1 0x0 DUP4 ADD DUP5 PUSH2 0x3B5 JUMP JUMPDEST SWAP3 SWAP2 POP POP JUMP JUMPDEST PUSH1 0x0 DUP1 REVERT JUMPDEST PUSH1 0x0 DUP1 REVERT JUMPDEST PUSH1 0x0 DUP1 REVERT JUMPDEST PUSH1 0x0 PUSH1 0x60 DUP3 DUP5 SUB SLT ISZERO PUSH2 0x404 JUMPI PUSH2 0x403 PUSH2 0x3E9 JUMP JUMPDEST JUMPDEST DUP2 SWAP1 POP SWAP3 SWAP2 POP POP JUMP JUMPDEST PUSH1 0x0 DUP1 REVERT JUMPDEST PUSH1 0x0 DUP1 REVERT JUMPDEST PUSH1 0x0 DUP1 REVERT JUMPDEST PUSH1 0x0 DUP1 DUP4 PUSH1 0x1F DUP5 ADD SLT PUSH2 0x432 JUMPI PUSH2 0x431 PUSH2 0x40D JUMP JUMPDEST JUMPDEST DUP3 CALLDATALOAD SWAP1 POP PUSH8 0xFFFFFFFFFFFFFFFF DUP2 GT ISZERO PUSH2 0x44F JUMPI PUSH2 0x44E PUSH2 0x412 JUMP JUMPDEST JUMPDEST PUSH1 0x20 DUP4 ADD SWAP2 POP DUP4 PUSH1 0x40 DUP3 MUL DUP4 ADD GT ISZERO PUSH2 0x46B JUMPI PUSH2 0x46A PUSH2 0x417 JUMP JUMPDEST JUMPDEST SWAP3 POP SWAP3 SWAP1 POP JUMP JUMPDEST PUSH1 0x0 DUP1 DUP4 PUSH1 0x1F DUP5 ADD SLT PUSH2 0x488 JUMPI PUSH2 0x487 PUSH2 0x40D JUMP JUMPDEST JUMPDEST DUP3 CALLDATALOAD SWAP1 POP PUSH8 0xFFFFFFFFFFFFFFFF DUP2 GT ISZERO PUSH2 0x4A5 JUMPI PUSH2 0x4A4 PUSH2 0x412 JUMP JUMPDEST JUMPDEST PUSH1 0x20 DUP4 ADD SWAP2 POP DUP4 PUSH1 0x60 DUP3 MUL DUP4 ADD GT ISZERO PUSH2 0x4C1 JUMPI PUSH2 0x4C0 PUSH2 0x417 JUMP JUMPDEST JUMPDEST SWAP3 POP SWAP3 SWAP1 POP JUMP JUMPDEST PUSH1 0x0 DUP1 PUSH1 0x0 DUP1 PUSH1 0x0 PUSH1 0x60 DUP7 DUP9 SUB SLT ISZERO PUSH2 0x4E4 JUMPI PUSH2 0x4E3 PUSH2 0x3DF JUMP JUMPDEST JUMPDEST PUSH1 0x0 DUP7 ADD CALLDATALOAD PUSH8 0xFFFFFFFFFFFFFFFF DUP2 GT ISZERO PUSH2 0x502 JUMPI PUSH2 0x501 PUSH2 0x3E4 JUMP JUMPDEST JUMPDEST PUSH2 0x50E DUP9 DUP3 DUP10 ADD PUSH2 0x3EE JUMP JUMPDEST SWAP6 POP POP PUSH1 0x20 DUP7 ADD CALLDATALOAD PUSH8 0xFFFFFFFFFFFFFFFF DUP2 GT ISZERO PUSH2 0x52F JUMPI PUSH2 0x52E PUSH2 0x3E4 JUMP JUMPDEST JUMPDEST PUSH2 0x53B DUP9 DUP3 DUP10 ADD PUSH2 0x41C JUMP JUMPDEST SWAP5 POP SWAP5 POP POP PUSH1 0x40 DUP7 ADD CALLDATALOAD PUSH8 0xFFFFFFFFFFFFFFFF DUP2 GT ISZERO PUSH2 0x55E JUMPI PUSH2 0x55D PUSH2 0x3E4 JUMP JUMPDEST JUMPDEST PUSH2 0x56A DUP9 DUP3 DUP10 ADD PUSH2 0x472 JUMP JUMPDEST SWAP3 POP SWAP3 POP POP SWAP3 SWAP6 POP SWAP3 SWAP6 SWAP1 SWAP4 POP JUMP JUMPDEST PUSH2 0x582 DUP2 PUSH2 0x311 JUMP JUMPDEST DUP2 EQ PUSH2 0x58D JUMPI PUSH1 0x0 DUP1 REVERT JUMPDEST POP JUMP JUMPDEST PUSH1 0x0 DUP2 CALLDATALOAD SWAP1 POP PUSH2 0x59F DUP2 PUSH2 0x579 JUMP JUMPDEST SWAP3 SWAP2 POP POP JUMP JUMPDEST PUSH1 0x0 PUSH1 0x20 DUP3 DUP5 SUB SLT ISZERO PUSH2 0x5BB JUMPI PUSH2 0x5BA PUSH2 0x3DF JUMP JUMPDEST JUMPDEST PUSH1 0x0 PUSH2 0x5C9 DUP5 DUP3 DUP6 ADD PUSH2 0x590 JUMP JUMPDEST SWAP2 POP POP SWAP3 SWAP2 POP POP JUMP JUMPDEST PUSH1 0x0 PUSH1 0x40 DUP3 ADD SWAP1 POP PUSH2 0x5E7 PUSH1 0x0 DUP4 ADD DUP6 PUSH2 0x31B JUMP JUMPDEST PUSH2 0x5F4 PUSH1 0x20 DUP4 ADD DUP5 PUSH2 0x31B JUMP JUMPDEST SWAP4 SWAP3 POP POP POP JUMP JUMPDEST PUSH2 0x604 DUP2 PUSH2 0x311 JUMP JUMPDEST DUP3 MSTORE POP POP JUMP JUMPDEST PUSH1 0x40 DUP3 ADD PUSH1 0x0 DUP3 ADD MLOAD PUSH2 0x620 PUSH1 0x0 DUP6 ADD DUP3 PUSH2 0x5FB JUMP JUMPDEST POP PUSH1 0x20 DUP3 ADD MLOAD PUSH2 0x633 PUSH1 0x20 DUP6 ADD DUP3 PUSH2 0x5FB JUMP JUMPDEST POP POP POP POP JUMP JUMPDEST PUSH1 0x0 PUSH1 0x40 DUP3 ADD SWAP1 POP PUSH2 0x64E PUSH1 0x0 DUP4 ADD DUP5 PUSH2 0x60A JUMP JUMPDEST SWAP3 SWAP2 POP POP JUMP JUMPDEST PUSH1 0x0 DUP2 SWAP1 POP SWAP2 SWAP1 POP JUMP JUMPDEST PUSH2 0x667 DUP2 PUSH2 0x654 JUMP JUMPDEST DUP2 EQ PUSH2 0x672 JUMPI PUSH1 0x0 DUP1 REVERT JUMPDEST POP JUMP JUMPDEST PUSH1 0x0 DUP2 CALLDATALOAD SWAP1 POP PUSH2 0x684 DUP2 PUSH2 0x65E JUMP JUMPDEST SWAP3 SWAP2 POP POP JUMP JUMPDEST PUSH1 0x0 PUSH2 0x699 PUSH1 0x20 DUP5 ADD DUP5 PUSH2 0x675 JUMP JUMPDEST SWAP1 POP SWAP3 SWAP2 POP POP JUMP JUMPDEST PUSH2 0x6AA DUP2 PUSH2 0x654 JUMP JUMPDEST DUP3 MSTORE POP POP JUMP JUMPDEST PUSH1 0x0 DUP1 REVERT JUMPDEST PUSH1 0x0 DUP3 CALLDATALOAD PUSH1 0x1 PUSH1 0xC0 SUB DUP4 CALLDATASIZE SUB SUB DUP2 SLT PUSH2 0x6D1 JUMPI PUSH2 0x6D0 PUSH2 0x6B0 JUMP JUMPDEST JUMPDEST DUP3 DUP2 ADD SWAP2 POP POP SWAP3 SWAP2 POP POP JUMP JUMPDEST PUSH1 0x0 DUP1 REVERT JUMPDEST PUSH1 0x0 DUP1 REVERT JUMPDEST PUSH1 0x0 DUP1 DUP4 CALLDATALOAD PUSH1 0x1 PUSH1 0x20 SUB DUP5 CALLDATASIZE SUB SUB DUP2 SLT PUSH2 0x704 JUMPI PUSH2 0x703 PUSH2 0x6B0 JUMP JUMPDEST JUMPDEST DUP4 DUP2 ADD SWAP3 POP DUP3 CALLDATALOAD SWAP2 POP PUSH1 0x20 DUP4 ADD SWAP3 POP PUSH8 0xFFFFFFFFFFFFFFFF DUP3 GT ISZERO PUSH2 0x72C JUMPI PUSH2 0x72B PUSH2 0x6DD JUMP JUMPDEST JUMPDEST PUSH1 0x1 DUP3 MUL CALLDATASIZE SUB DUP4 SGT ISZERO PUSH2 0x742 JUMPI PUSH2 0x741 PUSH2 0x6E2 JUMP JUMPDEST JUMPDEST POP SWAP3 POP SWAP3 SWAP1 POP JUMP JUMPDEST PUSH1 0x0 DUP3 DUP3 MSTORE PUSH1 0x20 DUP3 ADD SWAP1 POP SWAP3 SWAP2 POP POP JUMP JUMPDEST DUP3 DUP2 DUP4 CALLDATACOPY PUSH1 0x0 DUP4 DUP4 ADD MSTORE POP POP POP JUMP JUMPDEST PUSH1 0x0 PUSH1 0x1F NOT PUSH1 0x1F DUP4 ADD AND SWAP1 POP SWAP2 SWAP1 POP JUMP JUMPDEST PUSH1 0x0 PUSH2 0x787 DUP4 DUP6 PUSH2 0x74A JUMP JUMPDEST SWAP4 POP PUSH2 0x794 DUP4 DUP6 DUP5 PUSH2 0x75B JUMP JUMPDEST PUSH2 0x79D DUP4 PUSH2 0x76A JUMP JUMPDEST DUP5 ADD SWAP1 POP SWAP4 SWAP3 POP POP POP JUMP JUMPDEST PUSH1 0x0 PUSH2 0x7B7 PUSH1 0x20 DUP5 ADD DUP5 PUSH2 0x590 JUMP JUMPDEST SWAP1 POP SWAP3 SWAP2 POP POP JUMP JUMPDEST PUSH1 0x0 PUSH1 0xC0 DUP4 ADD PUSH2 0x7D2 PUSH1 0x0 DUP5 ADD DUP5 PUSH2 0x6E7 JUMP JUMPDEST DUP6 DUP4 SUB PUSH1 0x0 DUP8 ADD MSTORE PUSH2 0x7E5 DUP4 DUP3 DUP5 PUSH2 0x77B JUMP JUMPDEST SWAP3 POP POP POP PUSH2 0x7F6 PUSH1 0x20 DUP5 ADD DUP5 PUSH2 0x7A8 JUMP JUMPDEST PUSH2 0x803 PUSH1 0x20 DUP7 ADD DUP3 PUSH2 0x5FB JUMP JUMPDEST POP PUSH2 0x811 PUSH1 0x40 DUP5 ADD DUP5 PUSH2 0x7A8 JUMP JUMPDEST PUSH2 0x81E PUSH1 0x40 DUP7 ADD DUP3 PUSH2 0x5FB JUMP JUMPDEST POP PUSH2 0x82C PUSH1 0x60 DUP5 ADD DUP5 PUSH2 0x7A8 JUMP JUMPDEST PUSH2 0x839 PUSH1 0x60 DUP7 ADD DUP3 PUSH2 0x5FB JUMP JUMPDEST POP PUSH2 0x847 PUSH1 0x80 DUP5 ADD DUP5 PUSH2 0x7A8 JUMP JUMPDEST PUSH2 0x854 PUSH1 0x80 DUP7 ADD DUP3 PUSH2 0x5FB JUMP JUMPDEST POP PUSH2 0x862 PUSH1 0xA0 DUP5 ADD DUP5 PUSH2 0x7A8 JUMP JUMPDEST PUSH2 0x86F PUSH1 0xA0 DUP7 ADD DUP3 PUSH2 0x5FB JUMP JUMPDEST POP DUP1 SWAP2 POP POP SWAP3 SWAP2 POP POP JUMP JUMPDEST PUSH1 0x0 PUSH1 0x60 DUP4 ADD PUSH2 0x88D PUSH1 0x0 DUP5 ADD DUP5 PUSH2 0x68A JUMP JUMPDEST PUSH2 0x89A PUSH1 0x0 DUP7 ADD DUP3 PUSH2 0x6A1 JUMP JUMPDEST POP PUSH2 0x8A8 PUSH1 0x20 DUP5 ADD DUP5 PUSH2 0x6B5 JUMP JUMPDEST DUP5 DUP3 SUB PUSH1 0x20 DUP7 ADD MSTORE PUSH2 0x8BA DUP3 DUP3 PUSH2 0x7BF JUMP JUMPDEST SWAP2 POP POP PUSH2 0x8CA PUSH1 0x40 DUP5 ADD DUP5 PUSH2 0x7A8 JUMP JUMPDEST PUSH2 0x8D7 PUSH1 0x40 DUP7 ADD DUP3 PUSH2 0x5FB JUMP JUMPDEST POP DUP1 SWAP2 POP POP SWAP3 SWAP2 POP POP JUMP JUMPDEST PUSH1 0x0 DUP3 DUP3 MSTORE PUSH1 0x20 DUP3 ADD SWAP1 POP SWAP3 SWAP2 POP POP JUMP JUMPDEST PUSH1 0x0 DUP2 SWAP1 POP SWAP2 SWAP1 POP JUMP JUMPDEST PUSH1 0x0 PUSH2 0x908 DUP3 PUSH2 0x345 JUMP JUMPDEST SWAP1 POP SWAP2 SWAP1 POP JUMP JUMPDEST PUSH2 0x918 DUP2 PUSH2 0x8FD JUMP JUMPDEST DUP2 EQ PUSH2 0x923 JUMPI PUSH1 0x0 DUP1 REVERT JUMPDEST POP JUMP JUMPDEST PUSH1 0x0 DUP2 CALLDATALOAD SWAP1 POP PUSH2 0x935 DUP2 PUSH2 0x90F JUMP JUMPDEST SWAP3 SWAP2 POP POP JUMP JUMPDEST PUSH1 0x0 PUSH2 0x94A PUSH1 0x20 DUP5 ADD DUP5 PUSH2 0x926 JUMP JUMPDEST SWAP1 POP SWAP3 SWAP2 POP POP JUMP JUMPDEST PUSH2 0x95B DUP2 PUSH2 0x8FD JUMP JUMPDEST DUP3 MSTORE POP POP JUMP JUMPDEST PUSH1 0x40 DUP3 ADD PUSH2 0x972 PUSH1 0x0 DUP4 ADD DUP4 PUSH2 0x93B JUMP JUMPDEST PUSH2 0x97F PUSH1 0x0 DUP6 ADD DUP3 PUSH2 0x952 JUMP JUMPDEST POP PUSH2 0x98D PUSH1 0x20 DUP4 ADD DUP4 PUSH2 0x7A8 JUMP JUMPDEST PUSH2 0x99A PUSH1 0x20 DUP6 ADD DUP3 PUSH2 0x5FB JUMP JUMPDEST POP POP POP POP JUMP JUMPDEST PUSH1 0x0 PUSH2 0x9AC DUP4 DUP4 PUSH2 0x961 JUMP JUMPDEST PUSH1 0x40 DUP4 ADD SWAP1 POP SWAP3 SWAP2 POP POP JUMP JUMPDEST PUSH1 0x0 DUP3 SWAP1 POP SWAP3 SWAP2 POP POP JUMP JUMPDEST PUSH1 0x0 PUSH1 0x40 DUP3 ADD SWAP1 POP SWAP2 SWAP1 POP JUMP JUMPDEST PUSH1 0x0 PUSH2 0x9DC DUP4 DUP6 PUSH2 0x8E2 JUMP JUMPDEST SWAP4 POP PUSH2 0x9E7 DUP3 PUSH2 0x8F3 JUMP JUMPDEST DUP1 PUSH1 0x0 JUMPDEST DUP6 DUP2 LT ISZERO PUSH2 0xA20 JUMPI PUSH2 0x9FD DUP3 DUP5 PUSH2 0x9B8 JUMP JUMPDEST PUSH2 0xA07 DUP9 DUP3 PUSH2 0x9A0 JUMP JUMPDEST SWAP8 POP PUSH2 0xA12 DUP4 PUSH2 0x9C3 JUMP JUMPDEST SWAP3 POP POP PUSH1 0x1 DUP2 ADD SWAP1 POP PUSH2 0x9EB JUMP JUMPDEST POP DUP6 SWAP3 POP POP POP SWAP4 SWAP3 POP POP POP JUMP JUMPDEST PUSH1 0x0 DUP3 DUP3 MSTORE PUSH1 0x20 DUP3 ADD SWAP1 POP SWAP3 SWAP2 POP POP JUMP JUMPDEST PUSH1 0x0 DUP2 SWAP1 POP SWAP2 SWAP1 POP JUMP JUMPDEST PUSH1 0x0 PUSH1 0xFF DUP3 AND SWAP1 POP SWAP2 SWAP1 POP JUMP JUMPDEST PUSH2 0xA5E DUP2 PUSH2 0xA48 JUMP JUMPDEST DUP2 EQ PUSH2 0xA69 JUMPI PUSH1 0x0 DUP1 REVERT JUMPDEST POP JUMP JUMPDEST PUSH1 0x0 DUP2 CALLDATALOAD SWAP1 POP PUSH2 0xA7B DUP2 PUSH2 0xA55 JUMP JUMPDEST SWAP3 SWAP2 POP POP JUMP JUMPDEST PUSH1 0x0 PUSH2 0xA90 PUSH1 0x20 DUP5 ADD DUP5 PUSH2 0xA6C JUMP JUMPDEST SWAP1 POP SWAP3 SWAP2 POP POP JUMP JUMPDEST PUSH2 0xAA1 DUP2 PUSH2 0xA48 JUMP JUMPDEST DUP3 MSTORE POP POP JUMP JUMPDEST PUSH1 0x60 DUP3 ADD PUSH2 0xAB8 PUSH1 0x0 DUP4 ADD DUP4 PUSH2 0xA81 JUMP JUMPDEST PUSH2 0xAC5 PUSH1 0x0 DUP6 ADD DUP3 PUSH2 0xA98 JUMP JUMPDEST POP PUSH2 0xAD3 PUSH1 0x20 DUP4 ADD DUP4 PUSH2 0x68A JUMP JUMPDEST PUSH2 0xAE0 PUSH1 0x20 DUP6 ADD DUP3 PUSH2 0x6A1 JUMP JUMPDEST POP PUSH2 0xAEE PUSH1 0x40 DUP4 ADD DUP4 PUSH2 0x68A JUMP JUMPDEST PUSH2 0xAFB PUSH1 0x40 DUP6 ADD DUP3 PUSH2 0x6A1 JUMP JUMPDEST POP POP POP POP JUMP JUMPDEST PUSH1 0x0 PUSH2 0xB0D DUP4 DUP4 PUSH2 0xAA7 JUMP JUMPDEST PUSH1 0x60 DUP4 ADD SWAP1 POP SWAP3 SWAP2 POP POP JUMP JUMPDEST PUSH1 0x0 DUP3 SWAP1 POP SWAP3 SWAP2 POP POP JUMP JUMPDEST PUSH1 0x0 PUSH1 0x60 DUP3 ADD SWAP1 POP SWAP2 SWAP1 POP JUMP JUMPDEST PUSH1 0x0 PUSH2 0xB3D DUP4 DUP6 PUSH2 0xA2D JUMP JUMPDEST SWAP4 POP PUSH2 0xB48 DUP3 PUSH2 0xA3E JUMP JUMPDEST DUP1 PUSH1 0x0 JUMPDEST DUP6 DUP2 LT ISZERO PUSH2 0xB81 JUMPI PUSH2 0xB5E DUP3 DUP5 PUSH2 0xB19 JUMP JUMPDEST PUSH2 0xB68 DUP9 DUP3 PUSH2 0xB01 JUMP JUMPDEST SWAP8 POP PUSH2 0xB73 DUP4 PUSH2 0xB24 JUMP JUMPDEST SWAP3 POP POP PUSH1 0x1 DUP2 ADD SWAP1 POP PUSH2 0xB4C JUMP JUMPDEST POP DUP6 SWAP3 POP POP POP SWAP4 SWAP3 POP POP POP JUMP JUMPDEST PUSH1 0x0 PUSH1 0x60 DUP3 ADD SWAP1 POP DUP2 DUP2 SUB PUSH1 0x0 DUP4 ADD MSTORE PUSH2 0xBA8 DUP2 DUP9 PUSH2 0x87A JUMP JUMPDEST SWAP1 POP DUP2 DUP2 SUB PUSH1 0x20 DUP4 ADD MSTORE PUSH2 0xBBD DUP2 DUP7 DUP9 PUSH2 0x9D0 JUMP JUMPDEST SWAP1 POP DUP2 DUP2 SUB PUSH1 0x40 DUP4 ADD MSTORE PUSH2 0xBD2 DUP2 DUP5 DUP7 PUSH2 0xB31 JUMP JUMPDEST SWAP1 POP SWAP7 SWAP6 POP POP POP POP POP POP JUMP JUMPDEST PUSH1 0x0 DUP1 REVERT JUMPDEST PUSH1 0x0 DUP1 REVERT JUMPDEST PUSH1 0x0 DUP1 REVERT JUMPDEST PUSH1 0x0 DUP3 CALLDATALOAD PUSH1 0x1 PUSH1 0xC0 SUB DUP4 CALLDATASIZE SUB SUB DUP2 SLT PUSH2 0xC09 JUMPI PUSH2 0xC08 PUSH2 0xBDE JUMP JUMPDEST JUMPDEST DUP1 DUP4 ADD SWAP2 POP POP SWAP3 SWAP2 POP POP JUMP JUMPDEST PUSH1 0x0 DUP1 DUP4 CALLDATALOAD PUSH1 0x1 PUSH1 0x20 SUB DUP5 CALLDATASIZE SUB SUB DUP2 SLT PUSH2 0xC32 JUMPI PUSH2 0xC31 PUSH2 0xBDE JUMP JUMPDEST JUMPDEST DUP1 DUP5 ADD SWAP3 POP DUP3 CALLDATALOAD SWAP2 POP PUSH8 0xFFFFFFFFFFFFFFFF DUP3 GT ISZERO PUSH2 0xC54 JUMPI PUSH2 0xC53 PUSH2 0xBE3 JUMP JUMPDEST JUMPDEST PUSH1 0x20 DUP4 ADD SWAP3 POP PUSH1 0x1 DUP3 MUL CALLDATASIZE SUB DUP4 SGT ISZERO PUSH2 0xC70 JUMPI PUSH2 0xC6F PUSH2 0xBE8 JUMP JUMPDEST JUMPDEST POP SWAP3 POP SWAP3 SWAP1 POP JUMP JUMPDEST PUSH32 0x4E487B7100000000000000000000000000000000000000000000000000000000 PUSH1 0x0 MSTORE PUSH1 0x11 PUSH1 0x4 MSTORE PUSH1 0x24 PUSH1 0x0 REVERT JUMPDEST PUSH1 0x0 PUSH2 0xCB2 DUP3 PUSH2 0x311 JUMP JUMPDEST SWAP2 POP PUSH2 0xCBD DUP4 PUSH2 0x311 JUMP JUMPDEST SWAP3 POP DUP3 DUP3 SUB SWAP1 POP DUP2 DUP2 GT ISZERO PUSH2 0xCD5 JUMPI PUSH2 0xCD4 PUSH2 0xC78 JUMP JUMPDEST JUMPDEST SWAP3 SWAP2 POP POP JUMP JUMPDEST PUSH32 0x4E487B7100000000000000000000000000000000000000000000000000000000 PUSH1 0x0 MSTORE PUSH1 0x32 PUSH1 0x4 MSTORE PUSH1 0x24 PUSH1 0x0 REVERT INVALID LOG2 PUSH5 0x6970667358 0x22 SLT KECCAK256 OR CHAINID SWAP1 0xD1 0xE3 DUP7 0x29 0xED SMOD LOG1 0xB8 MOD 0x25 SWAP13 0xB4 0xE0 LOG0 0xEC CALLDATASIZE 0x25 0x49 GT NUMBER DUP1 PUSH16 0x80DE1564FA8E6464736F6C6343000813 STOP CALLER "},"methodIdentifiers":{"dataBridge()":"578855b2","getCurrentOracleData()":"bffe07bf","getValueCount()":"413a89b4","oracleData(uint256)":"aa4dea00","updateOracleData((bytes32,(bytes,uint256,uint256,uint256,uint256,uint256),uint256),(address,uint256)[],(uint8,bytes32,bytes32)[])":"61808010"}}}}}