{"contracts/YoloTellorUser.sol":{"YoloTellorUser":{"abi":[{"inputs":[{"internalType":"address","name":"_dataBridge","type":"address"},{"internalType":"bytes32","name":"_queryId","type":"bytes32"}],"stateMutability":"nonpayable","type":"constructor"},{"inputs":[],"name":"dataBridge","outputs":[{"internalType":"contract ITellorDataBridge","name":"","type":"address"}],"stateMutability":"view","type":"function"},{"inputs":[],"name":"getCurrentData","outputs":[{"components":[{"internalType":"uint256","name":"value","type":"uint256"},{"internalType":"uint256","name":"timestamp","type":"uint256"}],"internalType":"struct YoloTellorUser.OracleData","name":"","type":"tuple"}],"stateMutability":"view","type":"function"},{"inputs":[],"name":"getValueCount","outputs":[{"internalType":"uint256","name":"","type":"uint256"}],"stateMutability":"view","type":"function"},{"inputs":[{"internalType":"uint256","name":"","type":"uint256"}],"name":"oracleData","outputs":[{"internalType":"uint256","name":"value","type":"uint256"},{"internalType":"uint256","name":"timestamp","type":"uint256"}],"stateMutability":"view","type":"function"},{"inputs":[],"name":"queryId","outputs":[{"internalType":"bytes32","name":"","type":"bytes32"}],"stateMutability":"view","type":"function"},{"inputs":[{"components":[{"internalType":"bytes32","name":"queryId","type":"bytes32"},{"components":[{"internalType":"bytes","name":"value","type":"bytes"},{"internalType":"uint256","name":"timestamp","type":"uint256"},{"internalType":"uint256","name":"aggregatePower","type":"uint256"},{"internalType":"uint256","name":"previousTimestamp","type":"uint256"},{"internalType":"uint256","name":"nextTimestamp","type":"uint256"},{"internalType":"uint256","name":"lastConsensusTimestamp","type":"uint256"}],"internalType":"struct ReportData","name":"report","type":"tuple"},{"internalType":"uint256","name":"attestationTimestamp","type":"uint256"}],"internalType":"struct OracleAttestationData","name":"_attestData","type":"tuple"},{"components":[{"internalType":"address","name":"addr","type":"address"},{"internalType":"uint256","name":"power","type":"uint256"}],"internalType":"struct Validator[]","name":"_currentValidatorSet","type":"tuple[]"},{"components":[{"internalType":"uint8","name":"v","type":"uint8"},{"internalType":"bytes32","name":"r","type":"bytes32"},{"internalType":"bytes32","name":"s","type":"bytes32"}],"internalType":"struct Signature[]","name":"_sigs","type":"tuple[]"}],"name":"updateOracleData","outputs":[],"stateMutability":"nonpayable","type":"function"}],"evm":{"bytecode":{"linkReferences":{},"object":"60806040523480156200001157600080fd5b5060405162000fe238038062000fe283398181016040528101906200003791906200012b565b816000806101000a81548173ffffffffffffffffffffffffffffffffffffffff021916908373ffffffffffffffffffffffffffffffffffffffff16021790555080600181905550505062000172565b600080fd5b600073ffffffffffffffffffffffffffffffffffffffff82169050919050565b6000620000b8826200008b565b9050919050565b620000ca81620000ab565b8114620000d657600080fd5b50565b600081519050620000ea81620000bf565b92915050565b6000819050919050565b6200010581620000f0565b81146200011157600080fd5b50565b6000815190506200012581620000fa565b92915050565b6000806040838503121562000145576200014462000086565b5b60006200015585828601620000d9565b9250506020620001688582860162000114565b9150509250929050565b610e6080620001826000396000f3fe608060405234801561001057600080fd5b50600436106100625760003560e01c80633f1be4d414610067578063413a89b414610085578063578855b2146100a357806361808010146100c1578063770b5414146100dd578063aa4dea00146100fb575b600080fd5b61006f61012c565b60405161007c91906103a3565b60405180910390f35b61008d610132565b60405161009a91906103d7565b60405180910390f35b6100ab61013f565b6040516100b89190610471565b60405180910390f35b6100db60048036038101906100d69190610575565b610163565b005b6100e56102dd565b6040516100f29190610664565b60405180910390f35b610115600480360381019061011091906106ab565b61033c565b6040516101239291906106d8565b60405180910390f35b60015481565b6000600280549050905090565b60008054906101000a900473ffffffffffffffffffffffffffffffffffffffff1681565b60008054906101000a900473ffffffffffffffffffffffffffffffffffffffff1673ffffffffffffffffffffffffffffffffffffffff16635e0d3b0f86868686866040518663ffffffff1660e01b81526004016101c4959493929190610c31565b60006040518083038186803b1580156101dc57600080fd5b505afa1580156101f0573d6000803e3d6000fd5b5050505084600001356001541461023c576040517f08c379a000000000000000000000000000000000000000000000000000000000815260040161023390610cde565b60405180910390fd5b600085806020019061024e9190610d0d565b806000019061025d9190610d35565b81019061026a91906106ab565b90506002604051806040016040528083815260200188806020019061028f9190610d0d565b60200135815250908060018154018082558091505060019003906000526020600020906002020160009091909190915060008201518160000155602082015181600101555050505050505050565b6102e5610370565b600260016002805490506102f99190610dc7565b8154811061030a57610309610dfb565b5b906000526020600020906002020160405180604001604052908160008201548152602001600182015481525050905090565b6002818154811061034c57600080fd5b90600052602060002090600202016000915090508060000154908060010154905082565b604051806040016040528060008152602001600081525090565b6000819050919050565b61039d8161038a565b82525050565b60006020820190506103b86000830184610394565b92915050565b6000819050919050565b6103d1816103be565b82525050565b60006020820190506103ec60008301846103c8565b92915050565b600073ffffffffffffffffffffffffffffffffffffffff82169050919050565b6000819050919050565b600061043761043261042d846103f2565b610412565b6103f2565b9050919050565b60006104498261041c565b9050919050565b600061045b8261043e565b9050919050565b61046b81610450565b82525050565b60006020820190506104866000830184610462565b92915050565b600080fd5b600080fd5b600080fd5b6000606082840312156104b1576104b0610496565b5b81905092915050565b600080fd5b600080fd5b600080fd5b60008083601f8401126104df576104de6104ba565b5b8235905067ffffffffffffffff8111156104fc576104fb6104bf565b5b602083019150836040820283011115610518576105176104c4565b5b9250929050565b60008083601f840112610535576105346104ba565b5b8235905067ffffffffffffffff811115610552576105516104bf565b5b60208301915083606082028301111561056e5761056d6104c4565b5b9250929050565b6000806000806000606086880312156105915761059061048c565b5b600086013567ffffffffffffffff8111156105af576105ae610491565b5b6105bb8882890161049b565b955050602086013567ffffffffffffffff8111156105dc576105db610491565b5b6105e8888289016104c9565b9450945050604086013567ffffffffffffffff81111561060b5761060a610491565b5b6106178882890161051f565b92509250509295509295909350565b61062f816103be565b82525050565b60408201600082015161064b6000850182610626565b50602082015161065e6020850182610626565b50505050565b60006040820190506106796000830184610635565b92915050565b610688816103be565b811461069357600080fd5b50565b6000813590506106a58161067f565b92915050565b6000602082840312156106c1576106c061048c565b5b60006106cf84828501610696565b91505092915050565b60006040820190506106ed60008301856103c8565b6106fa60208301846103c8565b9392505050565b61070a8161038a565b811461071557600080fd5b50565b60008135905061072781610701565b92915050565b600061073c6020840184610718565b905092915050565b61074d8161038a565b82525050565b600080fd5b60008235600160c00383360303811261077457610773610753565b5b82810191505092915050565b600080fd5b600080fd5b600080833560016020038436030381126107a7576107a6610753565b5b83810192508235915060208301925067ffffffffffffffff8211156107cf576107ce610780565b5b6001820236038313156107e5576107e4610785565b5b509250929050565b600082825260208201905092915050565b82818337600083830152505050565b6000601f19601f8301169050919050565b600061082a83856107ed565b93506108378385846107fe565b6108408361080d565b840190509392505050565b600061085a6020840184610696565b905092915050565b600060c08301610875600084018461078a565b858303600087015261088883828461081e565b92505050610899602084018461084b565b6108a66020860182610626565b506108b4604084018461084b565b6108c16040860182610626565b506108cf606084018461084b565b6108dc6060860182610626565b506108ea608084018461084b565b6108f76080860182610626565b5061090560a084018461084b565b61091260a0860182610626565b508091505092915050565b600060608301610930600084018461072d565b61093d6000860182610744565b5061094b6020840184610758565b848203602086015261095d8282610862565b91505061096d604084018461084b565b61097a6040860182610626565b508091505092915050565b600082825260208201905092915050565b6000819050919050565b60006109ab826103f2565b9050919050565b6109bb816109a0565b81146109c657600080fd5b50565b6000813590506109d8816109b2565b92915050565b60006109ed60208401846109c9565b905092915050565b6109fe816109a0565b82525050565b60408201610a1560008301836109de565b610a2260008501826109f5565b50610a30602083018361084b565b610a3d6020850182610626565b50505050565b6000610a4f8383610a04565b60408301905092915050565b600082905092915050565b6000604082019050919050565b6000610a7f8385610985565b9350610a8a82610996565b8060005b85811015610ac357610aa08284610a5b565b610aaa8882610a43565b9750610ab583610a66565b925050600181019050610a8e565b5085925050509392505050565b600082825260208201905092915050565b6000819050919050565b600060ff82169050919050565b610b0181610aeb565b8114610b0c57600080fd5b50565b600081359050610b1e81610af8565b92915050565b6000610b336020840184610b0f565b905092915050565b610b4481610aeb565b82525050565b60608201610b5b6000830183610b24565b610b686000850182610b3b565b50610b76602083018361072d565b610b836020850182610744565b50610b91604083018361072d565b610b9e6040850182610744565b50505050565b6000610bb08383610b4a565b60608301905092915050565b600082905092915050565b6000606082019050919050565b6000610be08385610ad0565b9350610beb82610ae1565b8060005b85811015610c2457610c018284610bbc565b610c0b8882610ba4565b9750610c1683610bc7565b925050600181019050610bef565b5085925050509392505050565b60006060820190508181036000830152610c4b818861091d565b90508181036020830152610c60818688610a73565b90508181036040830152610c75818486610bd4565b90509695505050505050565b600082825260208201905092915050565b7f496e76616c696420717565727949640000000000000000000000000000000000600082015250565b6000610cc8600f83610c81565b9150610cd382610c92565b602082019050919050565b60006020820190508181036000830152610cf781610cbb565b9050919050565b600080fd5b600080fd5b600080fd5b60008235600160c003833603038112610d2957610d28610cfe565b5b80830191505092915050565b60008083356001602003843603038112610d5257610d51610cfe565b5b80840192508235915067ffffffffffffffff821115610d7457610d73610d03565b5b602083019250600182023603831315610d9057610d8f610d08565b5b509250929050565b7f4e487b7100000000000000000000000000000000000000000000000000000000600052601160045260246000fd5b6000610dd2826103be565b9150610ddd836103be565b9250828203905081811115610df557610df4610d98565b5b92915050565b7f4e487b7100000000000000000000000000000000000000000000000000000000600052603260045260246000fdfea264697066735822122049a2b452083582acf6d30b80caf3e1c15377c62b31ab4ce97d0cf5907040620864736f6c63430008130033","opcodes":"PUSH1 0x80 PUSH1 0x40 MSTORE CALLVALUE DUP1 ISZERO PUSH3 0x11 JUMPI PUSH1 0x0 DUP1 REVERT JUMPDEST POP PUSH1 0x40 MLOAD PUSH3 0xFE2 CODESIZE SUB DUP1 PUSH3 0xFE2 DUP4 CODECOPY DUP2 DUP2 ADD PUSH1 0x40 MSTORE DUP2 ADD SWAP1 PUSH3 0x37 SWAP2 SWAP1 PUSH3 0x12B JUMP JUMPDEST DUP2 PUSH1 0x0 DUP1 PUSH2 0x100 EXP DUP2 SLOAD DUP2 PUSH20 0xFFFFFFFFFFFFFFFFFFFFFFFFFFFFFFFFFFFFFFFF MUL NOT AND SWAP1 DUP4 PUSH20 0xFFFFFFFFFFFFFFFFFFFFFFFFFFFFFFFFFFFFFFFF AND MUL OR SWAP1 SSTORE POP DUP1 PUSH1 0x1 DUP2 SWAP1 SSTORE POP POP POP PUSH3 0x172 JUMP JUMPDEST PUSH1 0x0 DUP1 REVERT JUMPDEST PUSH1 0x0 PUSH20 0xFFFFFFFFFFFFFFFFFFFFFFFFFFFFFFFFFFFFFFFF DUP3 AND SWAP1 POP SWAP2 SWAP1 POP JUMP JUMPDEST PUSH1 0x0 PUSH3 0xB8 DUP3 PUSH3 0x8B JUMP JUMPDEST SWAP1 POP SWAP2 SWAP1 POP JUMP JUMPDEST PUSH3 0xCA DUP2 PUSH3 0xAB JUMP JUMPDEST DUP2 EQ PUSH3 0xD6 JUMPI PUSH1 0x0 DUP1 REVERT JUMPDEST POP JUMP JUMPDEST PUSH1 0x0 DUP2 MLOAD SWAP1 POP PUSH3 0xEA DUP2 PUSH3 0xBF JUMP JUMPDEST SWAP3 SWAP2 POP POP JUMP JUMPDEST PUSH1 0x0 DUP2 SWAP1 POP SWAP2 SWAP1 POP JUMP JUMPDEST PUSH3 0x105 DUP2 PUSH3 0xF0 JUMP JUMPDEST DUP2 EQ PUSH3 0x111 JUMPI PUSH1 0x0 DUP1 REVERT JUMPDEST POP JUMP JUMPDEST PUSH1 0x0 DUP2 MLOAD SWAP1 POP PUSH3 0x125 DUP2 PUSH3 0xFA JUMP JUMPDEST SWAP3 SWAP2 POP POP JUMP JUMPDEST PUSH1 0x0 DUP1 PUSH1 0x40 DUP4 DUP6 SUB SLT ISZERO PUSH3 0x145 JUMPI PUSH3 0x144 PUSH3 0x86 JUMP JUMPDEST JUMPDEST PUSH1 0x0 PUSH3 0x155 DUP6 DUP3 DUP7 ADD PUSH3 0xD9 JUMP JUMPDEST SWAP3 POP POP PUSH1 0x20 PUSH3 0x168 DUP6 DUP3 DUP7 ADD PUSH3 0x114 JUMP JUMPDEST SWAP2 POP POP SWAP3 POP SWAP3 SWAP1 POP JUMP JUMPDEST PUSH2 0xE60 DUP1 PUSH3 0x182 PUSH1 0x0 CODECOPY PUSH1 0x0 RETURN INVALID PUSH1 0x80 PUSH1 0x40 MSTORE CALLVALUE DUP1 ISZERO PUSH2 0x10 JUMPI PUSH1 0x0 DUP1 REVERT JUMPDEST POP PUSH1 0x4 CALLDATASIZE LT PUSH2 0x62 JUMPI PUSH1 0x0 CALLDATALOAD PUSH1 0xE0 SHR DUP1 PUSH4 0x3F1BE4D4 EQ PUSH2 0x67 JUMPI DUP1 PUSH4 0x413A89B4 EQ PUSH2 0x85 JUMPI DUP1 PUSH4 0x578855B2 EQ PUSH2 0xA3 JUMPI DUP1 PUSH4 0x61808010 EQ PUSH2 0xC1 JUMPI DUP1 PUSH4 0x770B5414 EQ PUSH2 0xDD JUMPI DUP1 PUSH4 0xAA4DEA00 EQ PUSH2 0xFB JUMPI JUMPDEST PUSH1 0x0 DUP1 REVERT JUMPDEST PUSH2 0x6F PUSH2 0x12C JUMP JUMPDEST PUSH1 0x40 MLOAD PUSH2 0x7C SWAP2 SWAP1 PUSH2 0x3A3 JUMP JUMPDEST PUSH1 0x40 MLOAD DUP1 SWAP2 SUB SWAP1 RETURN JUMPDEST PUSH2 0x8D PUSH2 0x132 JUMP JUMPDEST PUSH1 0x40 MLOAD PUSH2 0x9A SWAP2 SWAP1 PUSH2 0x3D7 JUMP JUMPDEST PUSH1 0x40 MLOAD DUP1 SWAP2 SUB SWAP1 RETURN JUMPDEST PUSH2 0xAB PUSH2 0x13F JUMP JUMPDEST PUSH1 0x40 MLOAD PUSH2 0xB8 SWAP2 SWAP1 PUSH2 0x471 JUMP JUMPDEST PUSH1 0x40 MLOAD DUP1 SWAP2 SUB SWAP1 RETURN JUMPDEST PUSH2 0xDB PUSH1 0x4 DUP1 CALLDATASIZE SUB DUP2 ADD SWAP1 PUSH2 0xD6 SWAP2 SWAP1 PUSH2 0x575 JUMP JUMPDEST PUSH2 0x163 JUMP JUMPDEST STOP JUMPDEST PUSH2 0xE5 PUSH2 0x2DD JUMP JUMPDEST PUSH1 0x40 MLOAD PUSH2 0xF2 SWAP2 SWAP1 PUSH2 0x664 JUMP JUMPDEST PUSH1 0x40 MLOAD DUP1 SWAP2 SUB SWAP1 RETURN JUMPDEST PUSH2 0x115 PUSH1 0x4 DUP1 CALLDATASIZE SUB DUP2 ADD SWAP1 PUSH2 0x110 SWAP2 SWAP1 PUSH2 0x6AB JUMP JUMPDEST PUSH2 0x33C JUMP JUMPDEST PUSH1 0x40 MLOAD PUSH2 0x123 SWAP3 SWAP2 SWAP1 PUSH2 0x6D8 JUMP JUMPDEST PUSH1 0x40 MLOAD DUP1 SWAP2 SUB SWAP1 RETURN JUMPDEST PUSH1 0x1 SLOAD DUP2 JUMP JUMPDEST PUSH1 0x0 PUSH1 0x2 DUP1 SLOAD SWAP1 POP SWAP1 POP SWAP1 JUMP JUMPDEST PUSH1 0x0 DUP1 SLOAD SWAP1 PUSH2 0x100 EXP SWAP1 DIV PUSH20 0xFFFFFFFFFFFFFFFFFFFFFFFFFFFFFFFFFFFFFFFF AND DUP2 JUMP JUMPDEST PUSH1 0x0 DUP1 SLOAD SWAP1 PUSH2 0x100 EXP SWAP1 DIV PUSH20 0xFFFFFFFFFFFFFFFFFFFFFFFFFFFFFFFFFFFFFFFF AND PUSH20 0xFFFFFFFFFFFFFFFFFFFFFFFFFFFFFFFFFFFFFFFF AND PUSH4 0x5E0D3B0F DUP7 DUP7 DUP7 DUP7 DUP7 PUSH1 0x40 MLOAD DUP7 PUSH4 0xFFFFFFFF AND PUSH1 0xE0 SHL DUP2 MSTORE PUSH1 0x4 ADD PUSH2 0x1C4 SWAP6 SWAP5 SWAP4 SWAP3 SWAP2 SWAP1 PUSH2 0xC31 JUMP JUMPDEST PUSH1 0x0 PUSH1 0x40 MLOAD DUP1 DUP4 SUB DUP2 DUP7 DUP1 EXTCODESIZE ISZERO DUP1 ISZERO PUSH2 0x1DC JUMPI PUSH1 0x0 DUP1 REVERT JUMPDEST POP GAS STATICCALL ISZERO DUP1 ISZERO PUSH2 0x1F0 JUMPI RETURNDATASIZE PUSH1 0x0 DUP1 RETURNDATACOPY RETURNDATASIZE PUSH1 0x0 REVERT JUMPDEST POP POP POP POP DUP5 PUSH1 0x0 ADD CALLDATALOAD PUSH1 0x1 SLOAD EQ PUSH2 0x23C JUMPI PUSH1 0x40 MLOAD PUSH32 0x8C379A000000000000000000000000000000000000000000000000000000000 DUP2 MSTORE PUSH1 0x4 ADD PUSH2 0x233 SWAP1 PUSH2 0xCDE JUMP JUMPDEST PUSH1 0x40 MLOAD DUP1 SWAP2 SUB SWAP1 REVERT JUMPDEST PUSH1 0x0 DUP6 DUP1 PUSH1 0x20 ADD SWAP1 PUSH2 0x24E SWAP2 SWAP1 PUSH2 0xD0D JUMP JUMPDEST DUP1 PUSH1 0x0 ADD SWAP1 PUSH2 0x25D SWAP2 SWAP1 PUSH2 0xD35 JUMP JUMPDEST DUP2 ADD SWAP1 PUSH2 0x26A SWAP2 SWAP1 PUSH2 0x6AB JUMP JUMPDEST SWAP1 POP PUSH1 0x2 PUSH1 0x40 MLOAD DUP1 PUSH1 0x40 ADD PUSH1 0x40 MSTORE DUP1 DUP4 DUP2 MSTORE PUSH1 0x20 ADD DUP9 DUP1 PUSH1 0x20 ADD SWAP1 PUSH2 0x28F SWAP2 SWAP1 PUSH2 0xD0D JUMP JUMPDEST PUSH1 0x20 ADD CALLDATALOAD DUP2 MSTORE POP SWAP1 DUP1 PUSH1 0x1 DUP2 SLOAD ADD DUP1 DUP3 SSTORE DUP1 SWAP2 POP POP PUSH1 0x1 SWAP1 SUB SWAP1 PUSH1 0x0 MSTORE PUSH1 0x20 PUSH1 0x0 KECCAK256 SWAP1 PUSH1 0x2 MUL ADD PUSH1 0x0 SWAP1 SWAP2 SWAP1 SWAP2 SWAP1 SWAP2 POP PUSH1 0x0 DUP3 ADD MLOAD DUP2 PUSH1 0x0 ADD SSTORE PUSH1 0x20 DUP3 ADD MLOAD DUP2 PUSH1 0x1 ADD SSTORE POP POP POP POP POP POP POP POP JUMP JUMPDEST PUSH2 0x2E5 PUSH2 0x370 JUMP JUMPDEST PUSH1 0x2 PUSH1 0x1 PUSH1 0x2 DUP1 SLOAD SWAP1 POP PUSH2 0x2F9 SWAP2 SWAP1 PUSH2 0xDC7 JUMP JUMPDEST DUP2 SLOAD DUP2 LT PUSH2 0x30A JUMPI PUSH2 0x309 PUSH2 0xDFB JUMP JUMPDEST JUMPDEST SWAP1 PUSH1 0x0 MSTORE PUSH1 0x20 PUSH1 0x0 KECCAK256 SWAP1 PUSH1 0x2 MUL ADD PUSH1 0x40 MLOAD DUP1 PUSH1 0x40 ADD PUSH1 0x40 MSTORE SWAP1 DUP2 PUSH1 0x0 DUP3 ADD SLOAD DUP2 MSTORE PUSH1 0x20 ADD PUSH1 0x1 DUP3 ADD SLOAD DUP2 MSTORE POP POP SWAP1 POP SWAP1 JUMP JUMPDEST PUSH1 0x2 DUP2 DUP2 SLOAD DUP2 LT PUSH2 0x34C JUMPI PUSH1 0x0 DUP1 REVERT JUMPDEST SWAP1 PUSH1 0x0 MSTORE PUSH1 0x20 PUSH1 0x0 KECCAK256 SWAP1 PUSH1 0x2 MUL ADD PUSH1 0x0 SWAP2 POP SWAP1 POP DUP1 PUSH1 0x0 ADD SLOAD SWAP1 DUP1 PUSH1 0x1 ADD SLOAD SWAP1 POP DUP3 JUMP JUMPDEST PUSH1 0x40 MLOAD DUP1 PUSH1 0x40 ADD PUSH1 0x40 MSTORE DUP1 PUSH1 0x0 DUP2 MSTORE PUSH1 0x20 ADD PUSH1 0x0 DUP2 MSTORE POP SWAP1 JUMP JUMPDEST PUSH1 0x0 DUP2 SWAP1 POP SWAP2 SWAP1 POP JUMP JUMPDEST PUSH2 0x39D DUP2 PUSH2 0x38A JUMP JUMPDEST DUP3 MSTORE POP POP JUMP JUMPDEST PUSH1 0x0 PUSH1 0x20 DUP3 ADD SWAP1 POP PUSH2 0x3B8 PUSH1 0x0 DUP4 ADD DUP5 PUSH2 0x394 JUMP JUMPDEST SWAP3 SWAP2 POP POP JUMP JUMPDEST PUSH1 0x0 DUP2 SWAP1 POP SWAP2 SWAP1 POP JUMP JUMPDEST PUSH2 0x3D1 DUP2 PUSH2 0x3BE JUMP JUMPDEST DUP3 MSTORE POP POP JUMP JUMPDEST PUSH1 0x0 PUSH1 0x20 DUP3 ADD SWAP1 POP PUSH2 0x3EC PUSH1 0x0 DUP4 ADD DUP5 PUSH2 0x3C8 JUMP JUMPDEST SWAP3 SWAP2 POP POP JUMP JUMPDEST PUSH1 0x0 PUSH20 0xFFFFFFFFFFFFFFFFFFFFFFFFFFFFFFFFFFFFFFFF DUP3 AND SWAP1 POP SWAP2 SWAP1 POP JUMP JUMPDEST PUSH1 0x0 DUP2 SWAP1 POP SWAP2 SWAP1 POP JUMP JUMPDEST PUSH1 0x0 PUSH2 0x437 PUSH2 0x432 PUSH2 0x42D DUP5 PUSH2 0x3F2 JUMP JUMPDEST PUSH2 0x412 JUMP JUMPDEST PUSH2 0x3F2 JUMP JUMPDEST SWAP1 POP SWAP2 SWAP1 POP JUMP JUMPDEST PUSH1 0x0 PUSH2 0x449 DUP3 PUSH2 0x41C JUMP JUMPDEST SWAP1 POP SWAP2 SWAP1 POP JUMP JUMPDEST PUSH1 0x0 PUSH2 0x45B DUP3 PUSH2 0x43E JUMP JUMPDEST SWAP1 POP SWAP2 SWAP1 POP JUMP JUMPDEST PUSH2 0x46B DUP2 PUSH2 0x450 JUMP JUMPDEST DUP3 MSTORE POP POP JUMP JUMPDEST PUSH1 0x0 PUSH1 0x20 DUP3 ADD SWAP1 POP PUSH2 0x486 PUSH1 0x0 DUP4 ADD DUP5 PUSH2 0x462 JUMP JUMPDEST SWAP3 SWAP2 POP POP JUMP JUMPDEST PUSH1 0x0 DUP1 REVERT JUMPDEST PUSH1 0x0 DUP1 REVERT JUMPDEST PUSH1 0x0 DUP1 REVERT JUMPDEST PUSH1 0x0 PUSH1 0x60 DUP3 DUP5 SUB SLT ISZERO PUSH2 0x4B1 JUMPI PUSH2 0x4B0 PUSH2 0x496 JUMP JUMPDEST JUMPDEST DUP2 SWAP1 POP SWAP3 SWAP2 POP POP JUMP JUMPDEST PUSH1 0x0 DUP1 REVERT JUMPDEST PUSH1 0x0 DUP1 REVERT JUMPDEST PUSH1 0x0 DUP1 REVERT JUMPDEST PUSH1 0x0 DUP1 DUP4 PUSH1 0x1F DUP5 ADD SLT PUSH2 0x4DF JUMPI PUSH2 0x4DE PUSH2 0x4BA JUMP JUMPDEST JUMPDEST DUP3 CALLDATALOAD SWAP1 POP PUSH8 0xFFFFFFFFFFFFFFFF DUP2 GT ISZERO PUSH2 0x4FC JUMPI PUSH2 0x4FB PUSH2 0x4BF JUMP JUMPDEST JUMPDEST PUSH1 0x20 DUP4 ADD SWAP2 POP DUP4 PUSH1 0x40 DUP3 MUL DUP4 ADD GT ISZERO PUSH2 0x518 JUMPI PUSH2 0x517 PUSH2 0x4C4 JUMP JUMPDEST JUMPDEST SWAP3 POP SWAP3 SWAP1 POP JUMP JUMPDEST PUSH1 0x0 DUP1 DUP4 PUSH1 0x1F DUP5 ADD SLT PUSH2 0x535 JUMPI PUSH2 0x534 PUSH2 0x4BA JUMP JUMPDEST JUMPDEST DUP3 CALLDATALOAD SWAP1 POP PUSH8 0xFFFFFFFFFFFFFFFF DUP2 GT ISZERO PUSH2 0x552 JUMPI PUSH2 0x551 PUSH2 0x4BF JUMP JUMPDEST JUMPDEST PUSH1 0x20 DUP4 ADD SWAP2 POP DUP4 PUSH1 0x60 DUP3 MUL DUP4 ADD GT ISZERO PUSH2 0x56E JUMPI PUSH2 0x56D PUSH2 0x4C4 JUMP JUMPDEST JUMPDEST SWAP3 POP SWAP3 SWAP1 POP JUMP JUMPDEST PUSH1 0x0 DUP1 PUSH1 0x0 DUP1 PUSH1 0x0 PUSH1 0x60 DUP7 DUP9 SUB SLT ISZERO PUSH2 0x591 JUMPI PUSH2 0x590 PUSH2 0x48C JUMP JUMPDEST JUMPDEST PUSH1 0x0 DUP7 ADD CALLDATALOAD PUSH8 0xFFFFFFFFFFFFFFFF DUP2 GT ISZERO PUSH2 0x5AF JUMPI PUSH2 0x5AE PUSH2 0x491 JUMP JUMPDEST JUMPDEST PUSH2 0x5BB DUP9 DUP3 DUP10 ADD PUSH2 0x49B JUMP JUMPDEST SWAP6 POP POP PUSH1 0x20 DUP7 ADD CALLDATALOAD PUSH8 0xFFFFFFFFFFFFFFFF DUP2 GT ISZERO PUSH2 0x5DC JUMPI PUSH2 0x5DB PUSH2 0x491 JUMP JUMPDEST JUMPDEST PUSH2 0x5E8 DUP9 DUP3 DUP10 ADD PUSH2 0x4C9 JUMP JUMPDEST SWAP5 POP SWAP5 POP POP PUSH1 0x40 DUP7 ADD CALLDATALOAD PUSH8 0xFFFFFFFFFFFFFFFF DUP2 GT ISZERO PUSH2 0x60B JUMPI PUSH2 0x60A PUSH2 0x491 JUMP JUMPDEST JUMPDEST PUSH2 0x617 DUP9 DUP3 DUP10 ADD PUSH2 0x51F JUMP JUMPDEST SWAP3 POP SWAP3 POP POP SWAP3 SWAP6 POP SWAP3 SWAP6 SWAP1 SWAP4 POP JUMP JUMPDEST PUSH2 0x62F DUP2 PUSH2 0x3BE JUMP JUMPDEST DUP3 MSTORE POP POP JUMP JUMPDEST PUSH1 0x40 DUP3 ADD PUSH1 0x0 DUP3 ADD MLOAD PUSH2 0x64B PUSH1 0x0 DUP6 ADD DUP3 PUSH2 0x626 JUMP JUMPDEST POP PUSH1 0x20 DUP3 ADD MLOAD PUSH2 0x65E PUSH1 0x20 DUP6 ADD DUP3 PUSH2 0x626 JUMP JUMPDEST POP POP POP POP JUMP JUMPDEST PUSH1 0x0 PUSH1 0x40 DUP3 ADD SWAP1 POP PUSH2 0x679 PUSH1 0x0 DUP4 ADD DUP5 PUSH2 0x635 JUMP JUMPDEST SWAP3 SWAP2 POP POP JUMP JUMPDEST PUSH2 0x688 DUP2 PUSH2 0x3BE JUMP JUMPDEST DUP2 EQ PUSH2 0x693 JUMPI PUSH1 0x0 DUP1 REVERT JUMPDEST POP JUMP JUMPDEST PUSH1 0x0 DUP2 CALLDATALOAD SWAP1 POP PUSH2 0x6A5 DUP2 PUSH2 0x67F JUMP JUMPDEST SWAP3 SWAP2 POP POP JUMP JUMPDEST PUSH1 0x0 PUSH1 0x20 DUP3 DUP5 SUB SLT ISZERO PUSH2 0x6C1 JUMPI PUSH2 0x6C0 PUSH2 0x48C JUMP JUMPDEST JUMPDEST PUSH1 0x0 PUSH2 0x6CF DUP5 DUP3 DUP6 ADD PUSH2 0x696 JUMP JUMPDEST SWAP2 POP POP SWAP3 SWAP2 POP POP JUMP JUMPDEST PUSH1 0x0 PUSH1 0x40 DUP3 ADD SWAP1 POP PUSH2 0x6ED PUSH1 0x0 DUP4 ADD DUP6 PUSH2 0x3C8 JUMP JUMPDEST PUSH2 0x6FA PUSH1 0x20 DUP4 ADD DUP5 PUSH2 0x3C8 JUMP JUMPDEST SWAP4 SWAP3 POP POP POP JUMP JUMPDEST PUSH2 0x70A DUP2 PUSH2 0x38A JUMP JUMPDEST DUP2 EQ PUSH2 0x715 JUMPI PUSH1 0x0 DUP1 REVERT JUMPDEST POP JUMP JUMPDEST PUSH1 0x0 DUP2 CALLDATALOAD SWAP1 POP PUSH2 0x727 DUP2 PUSH2 0x701 JUMP JUMPDEST SWAP3 SWAP2 POP POP JUMP JUMPDEST PUSH1 0x0 PUSH2 0x73C PUSH1 0x20 DUP5 ADD DUP5 PUSH2 0x718 JUMP JUMPDEST SWAP1 POP SWAP3 SWAP2 POP POP JUMP JUMPDEST PUSH2 0x74D DUP2 PUSH2 0x38A JUMP JUMPDEST DUP3 MSTORE POP POP JUMP JUMPDEST PUSH1 0x0 DUP1 REVERT JUMPDEST PUSH1 0x0 DUP3 CALLDATALOAD PUSH1 0x1 PUSH1 0xC0 SUB DUP4 CALLDATASIZE SUB SUB DUP2 SLT PUSH2 0x774 JUMPI PUSH2 0x773 PUSH2 0x753 JUMP JUMPDEST JUMPDEST DUP3 DUP2 ADD SWAP2 POP POP SWAP3 SWAP2 POP POP JUMP JUMPDEST PUSH1 0x0 DUP1 REVERT JUMPDEST PUSH1 0x0 DUP1 REVERT JUMPDEST PUSH1 0x0 DUP1 DUP4 CALLDATALOAD PUSH1 0x1 PUSH1 0x20 SUB DUP5 CALLDATASIZE SUB SUB DUP2 SLT PUSH2 0x7A7 JUMPI PUSH2 0x7A6 PUSH2 0x753 JUMP JUMPDEST JUMPDEST DUP4 DUP2 ADD SWAP3 POP DUP3 CALLDATALOAD SWAP2 POP PUSH1 0x20 DUP4 ADD SWAP3 POP PUSH8 0xFFFFFFFFFFFFFFFF DUP3 GT ISZERO PUSH2 0x7CF JUMPI PUSH2 0x7CE PUSH2 0x780 JUMP JUMPDEST JUMPDEST PUSH1 0x1 DUP3 MUL CALLDATASIZE SUB DUP4 SGT ISZERO PUSH2 0x7E5 JUMPI PUSH2 0x7E4 PUSH2 0x785 JUMP JUMPDEST JUMPDEST POP SWAP3 POP SWAP3 SWAP1 POP JUMP JUMPDEST PUSH1 0x0 DUP3 DUP3 MSTORE PUSH1 0x20 DUP3 ADD SWAP1 POP SWAP3 SWAP2 POP POP JUMP JUMPDEST DUP3 DUP2 DUP4 CALLDATACOPY PUSH1 0x0 DUP4 DUP4 ADD MSTORE POP POP POP JUMP JUMPDEST PUSH1 0x0 PUSH1 0x1F NOT PUSH1 0x1F DUP4 ADD AND SWAP1 POP SWAP2 SWAP1 POP JUMP JUMPDEST PUSH1 0x0 PUSH2 0x82A DUP4 DUP6 PUSH2 0x7ED JUMP JUMPDEST SWAP4 POP PUSH2 0x837 DUP4 DUP6 DUP5 PUSH2 0x7FE JUMP JUMPDEST PUSH2 0x840 DUP4 PUSH2 0x80D JUMP JUMPDEST DUP5 ADD SWAP1 POP SWAP4 SWAP3 POP POP POP JUMP JUMPDEST PUSH1 0x0 PUSH2 0x85A PUSH1 0x20 DUP5 ADD DUP5 PUSH2 0x696 JUMP JUMPDEST SWAP1 POP SWAP3 SWAP2 POP POP JUMP JUMPDEST PUSH1 0x0 PUSH1 0xC0 DUP4 ADD PUSH2 0x875 PUSH1 0x0 DUP5 ADD DUP5 PUSH2 0x78A JUMP JUMPDEST DUP6 DUP4 SUB PUSH1 0x0 DUP8 ADD MSTORE PUSH2 0x888 DUP4 DUP3 DUP5 PUSH2 0x81E JUMP JUMPDEST SWAP3 POP POP POP PUSH2 0x899 PUSH1 0x20 DUP5 ADD DUP5 PUSH2 0x84B JUMP JUMPDEST PUSH2 0x8A6 PUSH1 0x20 DUP7 ADD DUP3 PUSH2 0x626 JUMP JUMPDEST POP PUSH2 0x8B4 PUSH1 0x40 DUP5 ADD DUP5 PUSH2 0x84B JUMP JUMPDEST PUSH2 0x8C1 PUSH1 0x40 DUP7 ADD DUP3 PUSH2 0x626 JUMP JUMPDEST POP PUSH2 0x8CF PUSH1 0x60 DUP5 ADD DUP5 PUSH2 0x84B JUMP JUMPDEST PUSH2 0x8DC PUSH1 0x60 DUP7 ADD DUP3 PUSH2 0x626 JUMP JUMPDEST POP PUSH2 0x8EA PUSH1 0x80 DUP5 ADD DUP5 PUSH2 0x84B JUMP JUMPDEST PUSH2 0x8F7 PUSH1 0x80 DUP7 ADD DUP3 PUSH2 0x626 JUMP JUMPDEST POP PUSH2 0x905 PUSH1 0xA0 DUP5 ADD DUP5 PUSH2 0x84B JUMP JUMPDEST PUSH2 0x912 PUSH1 0xA0 DUP7 ADD DUP3 PUSH2 0x626 JUMP JUMPDEST POP DUP1 SWAP2 POP POP SWAP3 SWAP2 POP POP JUMP JUMPDEST PUSH1 0x0 PUSH1 0x60 DUP4 ADD PUSH2 0x930 PUSH1 0x0 DUP5 ADD DUP5 PUSH2 0x72D JUMP JUMPDEST PUSH2 0x93D PUSH1 0x0 DUP7 ADD DUP3 PUSH2 0x744 JUMP JUMPDEST POP PUSH2 0x94B PUSH1 0x20 DUP5 ADD DUP5 PUSH2 0x758 JUMP JUMPDEST DUP5 DUP3 SUB PUSH1 0x20 DUP7 ADD MSTORE PUSH2 0x95D DUP3 DUP3 PUSH2 0x862 JUMP JUMPDEST SWAP2 POP POP PUSH2 0x96D PUSH1 0x40 DUP5 ADD DUP5 PUSH2 0x84B JUMP JUMPDEST PUSH2 0x97A PUSH1 0x40 DUP7 ADD DUP3 PUSH2 0x626 JUMP JUMPDEST POP DUP1 SWAP2 POP POP SWAP3 SWAP2 POP POP JUMP JUMPDEST PUSH1 0x0 DUP3 DUP3 MSTORE PUSH1 0x20 DUP3 ADD SWAP1 POP SWAP3 SWAP2 POP POP JUMP JUMPDEST PUSH1 0x0 DUP2 SWAP1 POP SWAP2 SWAP1 POP JUMP JUMPDEST PUSH1 0x0 PUSH2 0x9AB DUP3 PUSH2 0x3F2 JUMP JUMPDEST SWAP1 POP SWAP2 SWAP1 POP JUMP JUMPDEST PUSH2 0x9BB DUP2 PUSH2 0x9A0 JUMP JUMPDEST DUP2 EQ PUSH2 0x9C6 JUMPI PUSH1 0x0 DUP1 REVERT JUMPDEST POP JUMP JUMPDEST PUSH1 0x0 DUP2 CALLDATALOAD SWAP1 POP PUSH2 0x9D8 DUP2 PUSH2 0x9B2 JUMP JUMPDEST SWAP3 SWAP2 POP POP JUMP JUMPDEST PUSH1 0x0 PUSH2 0x9ED PUSH1 0x20 DUP5 ADD DUP5 PUSH2 0x9C9 JUMP JUMPDEST SWAP1 POP SWAP3 SWAP2 POP POP JUMP JUMPDEST PUSH2 0x9FE DUP2 PUSH2 0x9A0 JUMP JUMPDEST DUP3 MSTORE POP POP JUMP JUMPDEST PUSH1 0x40 DUP3 ADD PUSH2 0xA15 PUSH1 0x0 DUP4 ADD DUP4 PUSH2 0x9DE JUMP JUMPDEST PUSH2 0xA22 PUSH1 0x0 DUP6 ADD DUP3 PUSH2 0x9F5 JUMP JUMPDEST POP PUSH2 0xA30 PUSH1 0x20 DUP4 ADD DUP4 PUSH2 0x84B JUMP JUMPDEST PUSH2 0xA3D PUSH1 0x20 DUP6 ADD DUP3 PUSH2 0x626 JUMP JUMPDEST POP POP POP POP JUMP JUMPDEST PUSH1 0x0 PUSH2 0xA4F DUP4 DUP4 PUSH2 0xA04 JUMP JUMPDEST PUSH1 0x40 DUP4 ADD SWAP1 POP SWAP3 SWAP2 POP POP JUMP JUMPDEST PUSH1 0x0 DUP3 SWAP1 POP SWAP3 SWAP2 POP POP JUMP JUMPDEST PUSH1 0x0 PUSH1 0x40 DUP3 ADD SWAP1 POP SWAP2 SWAP1 POP JUMP JUMPDEST PUSH1 0x0 PUSH2 0xA7F DUP4 DUP6 PUSH2 0x985 JUMP JUMPDEST SWAP4 POP PUSH2 0xA8A DUP3 PUSH2 0x996 JUMP JUMPDEST DUP1 PUSH1 0x0 JUMPDEST DUP6 DUP2 LT ISZERO PUSH2 0xAC3 JUMPI PUSH2 0xAA0 DUP3 DUP5 PUSH2 0xA5B JUMP JUMPDEST PUSH2 0xAAA DUP9 DUP3 PUSH2 0xA43 JUMP JUMPDEST SWAP8 POP PUSH2 0xAB5 DUP4 PUSH2 0xA66 JUMP JUMPDEST SWAP3 POP POP PUSH1 0x1 DUP2 ADD SWAP1 POP PUSH2 0xA8E JUMP JUMPDEST POP DUP6 SWAP3 POP POP POP SWAP4 SWAP3 POP POP POP JUMP JUMPDEST PUSH1 0x0 DUP3 DUP3 MSTORE PUSH1 0x20 DUP3 ADD SWAP1 POP SWAP3 SWAP2 POP POP JUMP JUMPDEST PUSH1 0x0 DUP2 SWAP1 POP SWAP2 SWAP1 POP JUMP JUMPDEST PUSH1 0x0 PUSH1 0xFF DUP3 AND SWAP1 POP SWAP2 SWAP1 POP JUMP JUMPDEST PUSH2 0xB01 DUP2 PUSH2 0xAEB JUMP JUMPDEST DUP2 EQ PUSH2 0xB0C JUMPI PUSH1 0x0 DUP1 REVERT JUMPDEST POP JUMP JUMPDEST PUSH1 0x0 DUP2 CALLDATALOAD SWAP1 POP PUSH2 0xB1E DUP2 PUSH2 0xAF8 JUMP JUMPDEST SWAP3 SWAP2 POP POP JUMP JUMPDEST PUSH1 0x0 PUSH2 0xB33 PUSH1 0x20 DUP5 ADD DUP5 PUSH2 0xB0F JUMP JUMPDEST SWAP1 POP SWAP3 SWAP2 POP POP JUMP JUMPDEST PUSH2 0xB44 DUP2 PUSH2 0xAEB JUMP JUMPDEST DUP3 MSTORE POP POP JUMP JUMPDEST PUSH1 0x60 DUP3 ADD PUSH2 0xB5B PUSH1 0x0 DUP4 ADD DUP4 PUSH2 0xB24 JUMP JUMPDEST PUSH2 0xB68 PUSH1 0x0 DUP6 ADD DUP3 PUSH2 0xB3B JUMP JUMPDEST POP PUSH2 0xB76 PUSH1 0x20 DUP4 ADD DUP4 PUSH2 0x72D JUMP JUMPDEST PUSH2 0xB83 PUSH1 0x20 DUP6 ADD DUP3 PUSH2 0x744 JUMP JUMPDEST POP PUSH2 0xB91 PUSH1 0x40 DUP4 ADD DUP4 PUSH2 0x72D JUMP JUMPDEST PUSH2 0xB9E PUSH1 0x40 DUP6 ADD DUP3 PUSH2 0x744 JUMP JUMPDEST POP POP POP POP JUMP JUMPDEST PUSH1 0x0 PUSH2 0xBB0 DUP4 DUP4 PUSH2 0xB4A JUMP JUMPDEST PUSH1 0x60 DUP4 ADD SWAP1 POP SWAP3 SWAP2 POP POP JUMP JUMPDEST PUSH1 0x0 DUP3 SWAP1 POP SWAP3 SWAP2 POP POP JUMP JUMPDEST PUSH1 0x0 PUSH1 0x60 DUP3 ADD SWAP1 POP SWAP2 SWAP1 POP JUMP JUMPDEST PUSH1 0x0 PUSH2 0xBE0 DUP4 DUP6 PUSH2 0xAD0 JUMP JUMPDEST SWAP4 POP PUSH2 0xBEB DUP3 PUSH2 0xAE1 JUMP JUMPDEST DUP1 PUSH1 0x0 JUMPDEST DUP6 DUP2 LT ISZERO PUSH2 0xC24 JUMPI PUSH2 0xC01 DUP3 DUP5 PUSH2 0xBBC JUMP JUMPDEST PUSH2 0xC0B DUP9 DUP3 PUSH2 0xBA4 JUMP JUMPDEST SWAP8 POP PUSH2 0xC16 DUP4 PUSH2 0xBC7 JUMP JUMPDEST SWAP3 POP POP PUSH1 0x1 DUP2 ADD SWAP1 POP PUSH2 0xBEF JUMP JUMPDEST POP DUP6 SWAP3 POP POP POP SWAP4 SWAP3 POP POP POP JUMP JUMPDEST PUSH1 0x0 PUSH1 0x60 DUP3 ADD SWAP1 POP DUP2 DUP2 SUB PUSH1 0x0 DUP4 ADD MSTORE PUSH2 0xC4B DUP2 DUP9 PUSH2 0x91D JUMP JUMPDEST SWAP1 POP DUP2 DUP2 SUB PUSH1 0x20 DUP4 ADD MSTORE PUSH2 0xC60 DUP2 DUP7 DUP9 PUSH2 0xA73 JUMP JUMPDEST SWAP1 POP DUP2 DUP2 SUB PUSH1 0x40 DUP4 ADD MSTORE PUSH2 0xC75 DUP2 DUP5 DUP7 PUSH2 0xBD4 JUMP JUMPDEST SWAP1 POP SWAP7 SWAP6 POP POP POP POP POP POP JUMP JUMPDEST PUSH1 0x0 DUP3 DUP3 MSTORE PUSH1 0x20 DUP3 ADD SWAP1 POP SWAP3 SWAP2 POP POP JUMP JUMPDEST PUSH32 0x496E76616C696420717565727949640000000000000000000000000000000000 PUSH1 0x0 DUP3 ADD MSTORE POP JUMP JUMPDEST PUSH1 0x0 PUSH2 0xCC8 PUSH1 0xF DUP4 PUSH2 0xC81 JUMP JUMPDEST SWAP2 POP PUSH2 0xCD3 DUP3 PUSH2 0xC92 JUMP JUMPDEST PUSH1 0x20 DUP3 ADD SWAP1 POP SWAP2 SWAP1 POP JUMP JUMPDEST PUSH1 0x0 PUSH1 0x20 DUP3 ADD SWAP1 POP DUP2 DUP2 SUB PUSH1 0x0 DUP4 ADD MSTORE PUSH2 0xCF7 DUP2 PUSH2 0xCBB JUMP JUMPDEST SWAP1 POP SWAP2 SWAP1 POP JUMP JUMPDEST PUSH1 0x0 DUP1 REVERT JUMPDEST PUSH1 0x0 DUP1 REVERT JUMPDEST PUSH1 0x0 DUP1 REVERT JUMPDEST PUSH1 0x0 DUP3 CALLDATALOAD PUSH1 0x1 PUSH1 0xC0 SUB DUP4 CALLDATASIZE SUB SUB DUP2 SLT PUSH2 0xD29 JUMPI PUSH2 0xD28 PUSH2 0xCFE JUMP JUMPDEST JUMPDEST DUP1 DUP4 ADD SWAP2 POP POP SWAP3 SWAP2 POP POP JUMP JUMPDEST PUSH1 0x0 DUP1 DUP4 CALLDATALOAD PUSH1 0x1 PUSH1 0x20 SUB DUP5 CALLDATASIZE SUB SUB DUP2 SLT PUSH2 0xD52 JUMPI PUSH2 0xD51 PUSH2 0xCFE JUMP JUMPDEST JUMPDEST DUP1 DUP5 ADD SWAP3 POP DUP3 CALLDATALOAD SWAP2 POP PUSH8 0xFFFFFFFFFFFFFFFF DUP3 GT ISZERO PUSH2 0xD74 JUMPI PUSH2 0xD73 PUSH2 0xD03 JUMP JUMPDEST JUMPDEST PUSH1 0x20 DUP4 ADD SWAP3 POP PUSH1 0x1 DUP3 MUL CALLDATASIZE SUB DUP4 SGT ISZERO PUSH2 0xD90 JUMPI PUSH2 0xD8F PUSH2 0xD08 JUMP JUMPDEST JUMPDEST POP SWAP3 POP SWAP3 SWAP1 POP JUMP JUMPDEST PUSH32 0x4E487B7100000000000000000000000000000000000000000000000000000000 PUSH1 0x0 MSTORE PUSH1 0x11 PUSH1 0x4 MSTORE PUSH1 0x24 PUSH1 0x0 REVERT JUMPDEST PUSH1 0x0 PUSH2 0xDD2 DUP3 PUSH2 0x3BE JUMP JUMPDEST SWAP2 POP PUSH2 0xDDD DUP4 PUSH2 0x3BE JUMP JUMPDEST SWAP3 POP DUP3 DUP3 SUB SWAP1 POP DUP2 DUP2 GT ISZERO PUSH2 0xDF5 JUMPI PUSH2 0xDF4 PUSH2 0xD98 JUMP JUMPDEST JUMPDEST SWAP3 SWAP2 POP POP JUMP JUMPDEST PUSH32 0x4E487B7100000000000000000000000000000000000000000000000000000000 PUSH1 0x0 MSTORE PUSH1 0x32 PUSH1 0x4 MSTORE PUSH1 0x24 PUSH1 0x0 REVERT INVALID LOG2 PUSH5 0x6970667358 0x22 SLT KECCAK256 0x49 LOG2 0xB4 MSTORE ADDMOD CALLDATALOAD DUP3 0xAC 0xF6 0xD3 SIGNEXTEND DUP1 0xCA RETURN 0xE1 0xC1 MSTORE8 PUSH24 0xC62B31AB4CE97D0CF5907040620864736F6C634300081300 CALLER "},"methodIdentifiers":{"dataBridge()":"578855b2","getCurrentData()":"770b5414","getValueCount()":"413a89b4","oracleData(uint256)":"aa4dea00","queryId()":"3f1be4d4","updateOracleData((bytes32,(bytes,uint256,uint256,uint256,uint256,uint256),uint256),(address,uint256)[],(uint8,bytes32,bytes32)[])":"61808010"}}}}}