{
  "_format": "hh-sol-artifact-1",
  "contractName": "DataBankPlayground",
  "sourceName": "contracts/testing/DataBankPlayground.sol",
  "abi": [
    {
      "anonymous": false,
      "inputs": [
        {
          "indexed": true,
          "internalType": "bytes32",
          "name": "queryId",
          "type": "bytes32"
        },
        {
          "components": [
            {
              "internalType": "bytes32",
              "name": "queryId",
              "type": "bytes32"
            },
            {
              "components": [
                {
                  "internalType": "bytes",
                  "name": "value",
                  "type": "bytes"
                },
                {
                  "internalType": "uint256",
                  "name": "timestamp",
                  "type": "uint256"
                },
                {
                  "internalType": "uint256",
                  "name": "aggregatePower",
                  "type": "uint256"
                },
                {
                  "internalType": "uint256",
                  "name": "previousTimestamp",
                  "type": "uint256"
                },
                {
                  "internalType": "uint256",
                  "name": "nextTimestamp",
                  "type": "uint256"
                },
                {
                  "internalType": "uint256",
                  "name": "lastConsensusTimestamp",
                  "type": "uint256"
                }
              ],
              "internalType": "struct ReportData",
              "name": "report",
              "type": "tuple"
            },
            {
              "internalType": "uint256",
              "name": "attestationTimestamp",
              "type": "uint256"
            }
          ],
          "indexed": false,
          "internalType": "struct OracleAttestationData",
          "name": "attestData",
          "type": "tuple"
        }
      ],
      "name": "OracleUpdated",
      "type": "event"
    },
    {
      "inputs": [
        {
          "internalType": "bytes32",
          "name": "",
          "type": "bytes32"
        },
        {
          "internalType": "uint256",
          "name": "",
          "type": "uint256"
        }
      ],
      "name": "data",
      "outputs": [
        {
          "internalType": "bytes",
          "name": "value",
          "type": "bytes"
        },
        {
          "internalType": "uint256",
          "name": "power",
          "type": "uint256"
        },
        {
          "internalType": "uint256",
          "name": "aggregateTimestamp",
          "type": "uint256"
        },
        {
          "internalType": "uint256",
          "name": "attestationTimestamp",
          "type": "uint256"
        },
        {
          "internalType": "uint256",
          "name": "relayTimestamp",
          "type": "uint256"
        }
      ],
      "stateMutability": "view",
      "type": "function"
    },
    {
      "inputs": [
        {
          "internalType": "bytes32",
          "name": "_queryId",
          "type": "bytes32"
        },
        {
          "internalType": "uint256",
          "name": "_index",
          "type": "uint256"
        }
      ],
      "name": "getAggregateByIndex",
      "outputs": [
        {
          "components": [
            {
              "internalType": "bytes",
              "name": "value",
              "type": "bytes"
            },
            {
              "internalType": "uint256",
              "name": "power",
              "type": "uint256"
            },
            {
              "internalType": "uint256",
              "name": "aggregateTimestamp",
              "type": "uint256"
            },
            {
              "internalType": "uint256",
              "name": "attestationTimestamp",
              "type": "uint256"
            },
            {
              "internalType": "uint256",
              "name": "relayTimestamp",
              "type": "uint256"
            }
          ],
          "internalType": "struct DataBankPlayground.AggregateData",
          "name": "_aggregateData",
          "type": "tuple"
        }
      ],
      "stateMutability": "view",
      "type": "function"
    },
    {
      "inputs": [
        {
          "internalType": "bytes32",
          "name": "_queryId",
          "type": "bytes32"
        }
      ],
      "name": "getAggregateValueCount",
      "outputs": [
        {
          "internalType": "uint256",
          "name": "",
          "type": "uint256"
        }
      ],
      "stateMutability": "view",
      "type": "function"
    },
    {
      "inputs": [
        {
          "internalType": "bytes32",
          "name": "_queryId",
          "type": "bytes32"
        }
      ],
      "name": "getCurrentAggregateData",
      "outputs": [
        {
          "components": [
            {
              "internalType": "bytes",
              "name": "value",
              "type": "bytes"
            },
            {
              "internalType": "uint256",
              "name": "power",
              "type": "uint256"
            },
            {
              "internalType": "uint256",
              "name": "aggregateTimestamp",
              "type": "uint256"
            },
            {
              "internalType": "uint256",
              "name": "attestationTimestamp",
              "type": "uint256"
            },
            {
              "internalType": "uint256",
              "name": "relayTimestamp",
              "type": "uint256"
            }
          ],
          "internalType": "struct DataBankPlayground.AggregateData",
          "name": "_aggregateData",
          "type": "tuple"
        }
      ],
      "stateMutability": "view",
      "type": "function"
    },
    {
      "inputs": [
        {
          "components": [
            {
              "internalType": "bytes32",
              "name": "queryId",
              "type": "bytes32"
            },
            {
              "components": [
                {
                  "internalType": "bytes",
                  "name": "value",
                  "type": "bytes"
                },
                {
                  "internalType": "uint256",
                  "name": "timestamp",
                  "type": "uint256"
                },
                {
                  "internalType": "uint256",
                  "name": "aggregatePower",
                  "type": "uint256"
                },
                {
                  "internalType": "uint256",
                  "name": "previousTimestamp",
                  "type": "uint256"
                },
                {
                  "internalType": "uint256",
                  "name": "nextTimestamp",
                  "type": "uint256"
                },
                {
                  "internalType": "uint256",
                  "name": "lastConsensusTimestamp",
                  "type": "uint256"
                }
              ],
              "internalType": "struct ReportData",
              "name": "report",
              "type": "tuple"
            },
            {
              "internalType": "uint256",
              "name": "attestationTimestamp",
              "type": "uint256"
            }
          ],
          "internalType": "struct OracleAttestationData",
          "name": "_attestData",
          "type": "tuple"
        },
        {
          "components": [
            {
              "internalType": "address",
              "name": "addr",
              "type": "address"
            },
            {
              "internalType": "uint256",
              "name": "power",
              "type": "uint256"
            }
          ],
          "internalType": "struct Validator[]",
          "name": "",
          "type": "tuple[]"
        },
        {
          "components": [
            {
              "internalType": "uint8",
              "name": "v",
              "type": "uint8"
            },
            {
              "internalType": "bytes32",
              "name": "r",
              "type": "bytes32"
            },
            {
              "internalType": "bytes32",
              "name": "s",
              "type": "bytes32"
            }
          ],
          "internalType": "struct Signature[]",
          "name": "",
          "type": "tuple[]"
        }
      ],
      "name": "updateOracleData",
      "outputs": [],
      "stateMutability": "nonpayable",
      "type": "function"
    },
    {
      "inputs": [
        {
          "internalType": "bytes32",
          "name": "_queryId",
          "type": "bytes32"
        },
        {
          "internalType": "bytes",
          "name": "_value",
          "type": "bytes"
        }
      ],
      "name": "updateOracleDataPlayground",
      "outputs": [],
      "stateMutability": "nonpayable",
      "type": "function"
    }
  ],
  "bytecode": "0x608060405234801561001057600080fd5b50611444806100206000396000f3fe608060405234801561001057600080fd5b50600436106100625760003560e01c80636180801014610067578063717681c6146100835780638d12c426146100b3578063cb956711146100e7578063e3ac7e1114610117578063f237640a14610147575b600080fd5b610081600480360381019061007c919061085e565b610163565b005b61009d6004803603810190610098919061097b565b6102d7565b6040516100aa9190610ad0565b60405180910390f35b6100cd60048036038101906100c8919061097b565b6103de565b6040516100de959493929190610b4b565b60405180910390f35b61010160048036038101906100fc9190610ba5565b6104b9565b60405161010e9190610ad0565b60405180910390f35b610131600480360381019061012c9190610ba5565b6104d1565b60405161013e9190610bd2565b60405180910390f35b610161600480360381019061015c9190610d1d565b6104f0565b005b600080866000013581526020019081526020016000206040518060a001604052808780602001906101949190610d88565b80600001906101a39190610db0565b8080601f016020809104026020016040519081016040528093929190818152602001838380828437600081840152601f19601f8201169050808301925050505050505081526020018780602001906101fb9190610d88565b6040013581526020018780602001906102149190610d88565b602001358152602001876040013581526020014281525090806001815401808255809150506001900390600052602060002090600502016000909190919091506000820151816000019081610269919061101f565b5060208201518160010155604082015181600201556060820151816003015560808201518160040155505084600001357f32569c122e0d7a43079203df1373675696c8ccd8ca67de60dc2238b6bb226214866040516102c89190611318565b60405180910390a25050505050565b6102df61073c565b60008084815260200190815260200160002082815481106103035761030261133a565b5b90600052602060002090600502016040518060a001604052908160008201805461032c90610e42565b80601f016020809104026020016040519081016040528092919081815260200182805461035890610e42565b80156103a55780601f1061037a576101008083540402835291602001916103a5565b820191906000526020600020905b81548152906001019060200180831161038857829003601f168201915b50505050508152602001600182015481526020016002820154815260200160038201548152602001600482015481525050905092915050565b600060205281600052604060002081815481106103fa57600080fd5b90600052602060002090600502016000915091505080600001805461041e90610e42565b80601f016020809104026020016040519081016040528092919081815260200182805461044a90610e42565b80156104975780601f1061046c57610100808354040283529160200191610497565b820191906000526020600020905b81548152906001019060200180831161047a57829003601f168201915b5050505050908060010154908060020154908060030154908060040154905085565b6104c161073c565b6104ca826105b6565b9050919050565b6000806000838152602001908152602001600020805490509050919050565b60006103e86001426105029190611398565b61050c91906113cc565b90506000808481526020019081526020016000206040518060a00160405280848152602001600081526020018381526020018381526020014281525090806001815401808255809150506001900390600052602060002090600502016000909190919091506000820151816000019081610586919061101f565b50602082015181600101556040820151816002015560608201518160030155608082015181600401555050505050565b6105be61073c565b6000806000848152602001908152602001600020805490500361061c576040518060a0016040528060405180602001604052806000815250815260200160008152602001600081526020016000815260200160008152509050610737565b6000808381526020019081526020016000206001600080858152602001908152602001600020805490506106509190611398565b815481106106615761066061133a565b5b90600052602060002090600502016040518060a001604052908160008201805461068a90610e42565b80601f01602080910402602001604051908101604052809291908181526020018280546106b690610e42565b80156107035780601f106106d857610100808354040283529160200191610703565b820191906000526020600020905b8154815290600101906020018083116106e657829003601f168201915b5050505050815260200160018201548152602001600282015481526020016003820154815260200160048201548152505090505b919050565b6040518060a0016040528060608152602001600081526020016000815260200160008152602001600081525090565b6000604051905090565b600080fd5b600080fd5b600080fd5b60006060828403121561079a5761079961077f565b5b81905092915050565b600080fd5b600080fd5b600080fd5b60008083601f8401126107c8576107c76107a3565b5b8235905067ffffffffffffffff8111156107e5576107e46107a8565b5b602083019150836040820283011115610801576108006107ad565b5b9250929050565b60008083601f84011261081e5761081d6107a3565b5b8235905067ffffffffffffffff81111561083b5761083a6107a8565b5b602083019150836060820283011115610857576108566107ad565b5b9250929050565b60008060008060006060868803121561087a57610879610775565b5b600086013567ffffffffffffffff8111156108985761089761077a565b5b6108a488828901610784565b955050602086013567ffffffffffffffff8111156108c5576108c461077a565b5b6108d1888289016107b2565b9450945050604086013567ffffffffffffffff8111156108f4576108f361077a565b5b61090088828901610808565b92509250509295509295909350565b6000819050919050565b6109228161090f565b811461092d57600080fd5b50565b60008135905061093f81610919565b92915050565b6000819050919050565b61095881610945565b811461096357600080fd5b50565b6000813590506109758161094f565b92915050565b6000806040838503121561099257610991610775565b5b60006109a085828601610930565b92505060206109b185828601610966565b9150509250929050565b600081519050919050565b600082825260208201905092915050565b60005b838110156109f55780820151818401526020810190506109da565b60008484015250505050565b6000601f19601f8301169050919050565b6000610a1d826109bb565b610a2781856109c6565b9350610a378185602086016109d7565b610a4081610a01565b840191505092915050565b610a5481610945565b82525050565b600060a0830160008301518482036000860152610a778282610a12565b9150506020830151610a8c6020860182610a4b565b506040830151610a9f6040860182610a4b565b506060830151610ab26060860182610a4b565b506080830151610ac56080860182610a4b565b508091505092915050565b60006020820190508181036000830152610aea8184610a5a565b905092915050565b600082825260208201905092915050565b6000610b0e826109bb565b610b188185610af2565b9350610b288185602086016109d7565b610b3181610a01565b840191505092915050565b610b4581610945565b82525050565b600060a0820190508181036000830152610b658188610b03565b9050610b746020830187610b3c565b610b816040830186610b3c565b610b8e6060830185610b3c565b610b9b6080830184610b3c565b9695505050505050565b600060208284031215610bbb57610bba610775565b5b6000610bc984828501610930565b91505092915050565b6000602082019050610be76000830184610b3c565b92915050565b600080fd5b7f4e487b7100000000000000000000000000000000000000000000000000000000600052604160045260246000fd5b610c2a82610a01565b810181811067ffffffffffffffff82111715610c4957610c48610bf2565b5b80604052505050565b6000610c5c61076b565b9050610c688282610c21565b919050565b600067ffffffffffffffff821115610c8857610c87610bf2565b5b610c9182610a01565b9050602081019050919050565b82818337600083830152505050565b6000610cc0610cbb84610c6d565b610c52565b905082815260208101848484011115610cdc57610cdb610bed565b5b610ce7848285610c9e565b509392505050565b600082601f830112610d0457610d036107a3565b5b8135610d14848260208601610cad565b91505092915050565b60008060408385031215610d3457610d33610775565b5b6000610d4285828601610930565b925050602083013567ffffffffffffffff811115610d6357610d6261077a565b5b610d6f85828601610cef565b9150509250929050565b600080fd5b600080fd5b600080fd5b60008235600160c003833603038112610da457610da3610d79565b5b80830191505092915050565b60008083356001602003843603038112610dcd57610dcc610d79565b5b80840192508235915067ffffffffffffffff821115610def57610dee610d7e565b5b602083019250600182023603831315610e0b57610e0a610d83565b5b509250929050565b7f4e487b7100000000000000000000000000000000000000000000000000000000600052602260045260246000fd5b60006002820490506001821680610e5a57607f821691505b602082108103610e6d57610e6c610e13565b5b50919050565b60008190508160005260206000209050919050565b60006020601f8301049050919050565b600082821b905092915050565b600060088302610ed57fffffffffffffffffffffffffffffffffffffffffffffffffffffffffffffffff82610e98565b610edf8683610e98565b95508019841693508086168417925050509392505050565b6000819050919050565b6000610f1c610f17610f1284610945565b610ef7565b610945565b9050919050565b6000819050919050565b610f3683610f01565b610f4a610f4282610f23565b848454610ea5565b825550505050565b600090565b610f5f610f52565b610f6a818484610f2d565b505050565b5b81811015610f8e57610f83600082610f57565b600181019050610f70565b5050565b601f821115610fd357610fa481610e73565b610fad84610e88565b81016020851015610fbc578190505b610fd0610fc885610e88565b830182610f6f565b50505b505050565b600082821c905092915050565b6000610ff660001984600802610fd8565b1980831691505092915050565b600061100f8383610fe5565b9150826002028217905092915050565b611028826109bb565b67ffffffffffffffff81111561104157611040610bf2565b5b61104b8254610e42565b611056828285610f92565b600060209050601f8311600181146110895760008415611077578287015190505b6110818582611003565b8655506110e9565b601f19841661109786610e73565b60005b828110156110bf5784890151825560018201915060208501945060208101905061109a565b868310156110dc57848901516110d8601f891682610fe5565b8355505b6001600288020188555050505b505050505050565b60006111006020840184610930565b905092915050565b6111118161090f565b82525050565b600080fd5b60008235600160c00383360303811261113857611137611117565b5b82810191505092915050565b600080fd5b600080fd5b6000808335600160200384360303811261116b5761116a611117565b5b83810192508235915060208301925067ffffffffffffffff82111561119357611192611144565b5b6001820236038313156111a9576111a8611149565b5b509250929050565b60006111bd83856109c6565b93506111ca838584610c9e565b6111d383610a01565b840190509392505050565b60006111ed6020840184610966565b905092915050565b600060c08301611208600084018461114e565b858303600087015261121b8382846111b1565b9250505061122c60208401846111de565b6112396020860182610a4b565b5061124760408401846111de565b6112546040860182610a4b565b5061126260608401846111de565b61126f6060860182610a4b565b5061127d60808401846111de565b61128a6080860182610a4b565b5061129860a08401846111de565b6112a560a0860182610a4b565b508091505092915050565b6000606083016112c360008401846110f1565b6112d06000860182611108565b506112de602084018461111c565b84820360208601526112f082826111f5565b91505061130060408401846111de565b61130d6040860182610a4b565b508091505092915050565b6000602082019050818103600083015261133281846112b0565b905092915050565b7f4e487b7100000000000000000000000000000000000000000000000000000000600052603260045260246000fd5b7f4e487b7100000000000000000000000000000000000000000000000000000000600052601160045260246000fd5b60006113a382610945565b91506113ae83610945565b92508282039050818111156113c6576113c5611369565b5b92915050565b60006113d782610945565b91506113e283610945565b92508282026113f081610945565b9150828204841483151761140757611406611369565b5b509291505056fea2646970667358221220d922adb488834a0545ba3634eb410528a1c1d80682300de3fde8b06bb8179ea064736f6c63430008130033",
  "linkReferences": {},
  "deployedLinkReferences": {}
}