{
  "_format": "hh-sol-artifact-1",
  "contractName": "TellorDataBridge",
  "sourceName": "contracts/testing/bridge/TellorDataBridge.sol",
  "abi": [
    {
      "inputs": [
        {
          "internalType": "address",
          "name": "_guardian",
          "type": "address"
        }
      ],
      "stateMutability": "nonpayable",
      "type": "constructor"
    },
    {
      "inputs": [],
      "name": "AlreadyInitialized",
      "type": "error"
    },
    {
      "inputs": [],
      "name": "ECDSAInvalidSignature",
      "type": "error"
    },
    {
      "inputs": [
        {
          "internalType": "uint256",
          "name": "length",
          "type": "uint256"
        }
      ],
      "name": "ECDSAInvalidSignatureLength",
      "type": "error"
    },
    {
      "inputs": [
        {
          "internalType": "bytes32",
          "name": "s",
          "type": "bytes32"
        }
      ],
      "name": "ECDSAInvalidSignatureS",
      "type": "error"
    },
    {
      "inputs": [],
      "name": "InsufficientVotingPower",
      "type": "error"
    },
    {
      "inputs": [],
      "name": "InvalidPowerThreshold",
      "type": "error"
    },
    {
      "inputs": [],
      "name": "InvalidSignature",
      "type": "error"
    },
    {
      "inputs": [],
      "name": "MalformedCurrentValidatorSet",
      "type": "error"
    },
    {
      "inputs": [],
      "name": "NotDeployer",
      "type": "error"
    },
    {
      "inputs": [],
      "name": "NotGuardian",
      "type": "error"
    },
    {
      "inputs": [],
      "name": "StaleValidatorSet",
      "type": "error"
    },
    {
      "inputs": [],
      "name": "SuppliedValidatorSetInvalid",
      "type": "error"
    },
    {
      "inputs": [],
      "name": "ValidatorSetNotStale",
      "type": "error"
    },
    {
      "inputs": [],
      "name": "ValidatorTimestampMustIncrease",
      "type": "error"
    },
    {
      "anonymous": false,
      "inputs": [
        {
          "indexed": false,
          "internalType": "uint256",
          "name": "_powerThreshold",
          "type": "uint256"
        },
        {
          "indexed": false,
          "internalType": "uint256",
          "name": "_validatorTimestamp",
          "type": "uint256"
        },
        {
          "indexed": false,
          "internalType": "bytes32",
          "name": "_validatorSetHash",
          "type": "bytes32"
        }
      ],
      "name": "GuardianResetValidatorSet",
      "type": "event"
    },
    {
      "anonymous": false,
      "inputs": [
        {
          "indexed": false,
          "internalType": "uint256",
          "name": "_powerThreshold",
          "type": "uint256"
        },
        {
          "indexed": false,
          "internalType": "uint256",
          "name": "_validatorTimestamp",
          "type": "uint256"
        },
        {
          "indexed": false,
          "internalType": "bytes32",
          "name": "_validatorSetHash",
          "type": "bytes32"
        }
      ],
      "name": "ValidatorSetUpdated",
      "type": "event"
    },
    {
      "inputs": [],
      "name": "MS_PER_SECOND",
      "outputs": [
        {
          "internalType": "uint256",
          "name": "",
          "type": "uint256"
        }
      ],
      "stateMutability": "view",
      "type": "function"
    },
    {
      "inputs": [],
      "name": "deployer",
      "outputs": [
        {
          "internalType": "address",
          "name": "",
          "type": "address"
        }
      ],
      "stateMutability": "view",
      "type": "function"
    },
    {
      "inputs": [],
      "name": "guardian",
      "outputs": [
        {
          "internalType": "address",
          "name": "",
          "type": "address"
        }
      ],
      "stateMutability": "view",
      "type": "function"
    },
    {
      "inputs": [
        {
          "internalType": "uint256",
          "name": "_powerThreshold",
          "type": "uint256"
        },
        {
          "internalType": "uint256",
          "name": "_validatorTimestamp",
          "type": "uint256"
        },
        {
          "internalType": "bytes32",
          "name": "_validatorSetCheckpoint",
          "type": "bytes32"
        }
      ],
      "name": "guardianResetValidatorSet",
      "outputs": [],
      "stateMutability": "nonpayable",
      "type": "function"
    },
    {
      "inputs": [
        {
          "internalType": "uint256",
          "name": "_powerThreshold",
          "type": "uint256"
        },
        {
          "internalType": "uint256",
          "name": "_validatorTimestamp",
          "type": "uint256"
        },
        {
          "internalType": "uint256",
          "name": "_unbondingPeriod",
          "type": "uint256"
        },
        {
          "internalType": "bytes32",
          "name": "_validatorSetCheckpoint",
          "type": "bytes32"
        }
      ],
      "name": "init",
      "outputs": [],
      "stateMutability": "nonpayable",
      "type": "function"
    },
    {
      "inputs": [],
      "name": "initialized",
      "outputs": [
        {
          "internalType": "bool",
          "name": "",
          "type": "bool"
        }
      ],
      "stateMutability": "view",
      "type": "function"
    },
    {
      "inputs": [],
      "name": "lastValidatorSetCheckpoint",
      "outputs": [
        {
          "internalType": "bytes32",
          "name": "",
          "type": "bytes32"
        }
      ],
      "stateMutability": "view",
      "type": "function"
    },
    {
      "inputs": [],
      "name": "powerThreshold",
      "outputs": [
        {
          "internalType": "uint256",
          "name": "",
          "type": "uint256"
        }
      ],
      "stateMutability": "view",
      "type": "function"
    },
    {
      "inputs": [],
      "name": "unbondingPeriod",
      "outputs": [
        {
          "internalType": "uint256",
          "name": "",
          "type": "uint256"
        }
      ],
      "stateMutability": "view",
      "type": "function"
    },
    {
      "inputs": [
        {
          "internalType": "bytes32",
          "name": "_newValidatorSetHash",
          "type": "bytes32"
        },
        {
          "internalType": "uint64",
          "name": "_newPowerThreshold",
          "type": "uint64"
        },
        {
          "internalType": "uint256",
          "name": "_newValidatorTimestamp",
          "type": "uint256"
        },
        {
          "components": [
            {
              "internalType": "address",
              "name": "addr",
              "type": "address"
            },
            {
              "internalType": "uint256",
              "name": "power",
              "type": "uint256"
            }
          ],
          "internalType": "struct Validator[]",
          "name": "_currentValidatorSet",
          "type": "tuple[]"
        },
        {
          "components": [
            {
              "internalType": "uint8",
              "name": "v",
              "type": "uint8"
            },
            {
              "internalType": "bytes32",
              "name": "r",
              "type": "bytes32"
            },
            {
              "internalType": "bytes32",
              "name": "s",
              "type": "bytes32"
            }
          ],
          "internalType": "struct Signature[]",
          "name": "_sigs",
          "type": "tuple[]"
        }
      ],
      "name": "updateValidatorSet",
      "outputs": [],
      "stateMutability": "nonpayable",
      "type": "function"
    },
    {
      "inputs": [],
      "name": "validatorTimestamp",
      "outputs": [
        {
          "internalType": "uint256",
          "name": "",
          "type": "uint256"
        }
      ],
      "stateMutability": "view",
      "type": "function"
    },
    {
      "inputs": [
        {
          "components": [
            {
              "internalType": "bytes32",
              "name": "queryId",
              "type": "bytes32"
            },
            {
              "components": [
                {
                  "internalType": "bytes",
                  "name": "value",
                  "type": "bytes"
                },
                {
                  "internalType": "uint256",
                  "name": "timestamp",
                  "type": "uint256"
                },
                {
                  "internalType": "uint256",
                  "name": "aggregatePower",
                  "type": "uint256"
                },
                {
                  "internalType": "uint256",
                  "name": "previousTimestamp",
                  "type": "uint256"
                },
                {
                  "internalType": "uint256",
                  "name": "nextTimestamp",
                  "type": "uint256"
                },
                {
                  "internalType": "uint256",
                  "name": "lastConsensusTimestamp",
                  "type": "uint256"
                }
              ],
              "internalType": "struct ReportData",
              "name": "report",
              "type": "tuple"
            },
            {
              "internalType": "uint256",
              "name": "attestationTimestamp",
              "type": "uint256"
            }
          ],
          "internalType": "struct OracleAttestationData",
          "name": "_attestData",
          "type": "tuple"
        },
        {
          "components": [
            {
              "internalType": "address",
              "name": "addr",
              "type": "address"
            },
            {
              "internalType": "uint256",
              "name": "power",
              "type": "uint256"
            }
          ],
          "internalType": "struct Validator[]",
          "name": "_currentValidatorSet",
          "type": "tuple[]"
        },
        {
          "components": [
            {
              "internalType": "uint8",
              "name": "v",
              "type": "uint8"
            },
            {
              "internalType": "bytes32",
              "name": "r",
              "type": "bytes32"
            },
            {
              "internalType": "bytes32",
              "name": "s",
              "type": "bytes32"
            }
          ],
          "internalType": "struct Signature[]",
          "name": "_sigs",
          "type": "tuple[]"
        }
      ],
      "name": "verifyOracleData",
      "outputs": [],
      "stateMutability": "view",
      "type": "function"
    }
  ],
  "bytecode": "0x60806040523480156200001157600080fd5b5060405162001adb38038062001adb833981810160405281019062000037919062000129565b806000806101000a81548173ffffffffffffffffffffffffffffffffffffffff021916908373ffffffffffffffffffffffffffffffffffffffff16021790555033600560006101000a81548173ffffffffffffffffffffffffffffffffffffffff021916908373ffffffffffffffffffffffffffffffffffffffff160217905550506200015b565b600080fd5b600073ffffffffffffffffffffffffffffffffffffffff82169050919050565b6000620000f182620000c4565b9050919050565b6200010381620000e4565b81146200010f57600080fd5b50565b6000815190506200012381620000f8565b92915050565b600060208284031215620001425762000141620000bf565b5b6000620001528482850162000112565b91505092915050565b611970806200016b6000396000f3fe608060405234801561001057600080fd5b50600436106100b45760003560e01c80635e0d3b0f116100715780635e0d3b0f146101695780636cf6d6751461018557806384330d4c146101a3578063af082a7d146101bf578063ba95ec27146101dd578063d5f39488146101fb576100b4565b8063158ef93e146100b9578063185bf52b146100d75780631a8bcd34146100f35780634394f6f314610111578063452a93201461012d5780634f76f1ee1461014b575b600080fd5b6100c1610219565b6040516100ce9190610d1b565b60405180910390f35b6100f160048036038101906100ec9190610dac565b61022c565b005b6100fb610397565b6040516101089190610e0e565b60405180910390f35b61012b60048036038101906101269190610e29565b61039d565b005b6101356104a8565b6040516101429190610ed1565b60405180910390f35b6101536104cc565b6040516101609190610e0e565b60405180910390f35b610183600480360381019061017e9190610fcb565b6104d2565b005b61018d610682565b60405161019a9190610e0e565b60405180910390f35b6101bd60048036038101906101b891906110bc565b610688565b005b6101c761084b565b6040516101d49190611187565b60405180910390f35b6101e5610851565b6040516101f29190610e0e565b60405180910390f35b610203610857565b6040516102109190610ed1565b60405180910390f35b600560149054906101000a900460ff1681565b60008054906101000a900473ffffffffffffffffffffffffffffffffffffffff1673ffffffffffffffffffffffffffffffffffffffff163373ffffffffffffffffffffffffffffffffffffffff16146102b1576040517fef6d0f0200000000000000000000000000000000000000000000000000000000815260040160405180910390fd5b6003546103e86004546102c49190611200565b426102cf9190611231565b1015610307576040517f1c36ced200000000000000000000000000000000000000000000000000000000815260040160405180910390fd5b6004548211610342576040517f780635d000000000000000000000000000000000000000000000000000000000815260040160405180910390fd5b8260028190555081600481905550806001819055507fd7067f3840022e90166b8566f9982288b89ec7479b8eb30fad06290f18c8cb0983838360405161038a93929190611265565b60405180910390a1505050565b6103e881565b600560009054906101000a900473ffffffffffffffffffffffffffffffffffffffff1673ffffffffffffffffffffffffffffffffffffffff163373ffffffffffffffffffffffffffffffffffffffff1614610424576040517f8b906c9700000000000000000000000000000000000000000000000000000000815260040160405180910390fd5b600560149054906101000a900460ff161561046b576040517f0dc149f000000000000000000000000000000000000000000000000000000000815260040160405180910390fd5b6001600560146101000a81548160ff0219169083151502179055508360028190555082600481905550816003819055508060018190555050505050565b60008054906101000a900473ffffffffffffffffffffffffffffffffffffffff1681565b60045481565b818190508484905014610511576040517fc6617b7b00000000000000000000000000000000000000000000000000000000815260040160405180910390fd5b60015461054b60025460045487876040516020016105309291906113fb565b6040516020818303038152906040528051906020012061087d565b14610582576040517f177b5d9200000000000000000000000000000000000000000000000000000000815260040160405180910390fd5b60007f74656c6c6f7243757272656e744174746573746174696f6e000000000000000060001b86600001358780602001906105bd919061142e565b80600001906105cc9190611456565b8980602001906105dc919061142e565b602001358a80602001906105f0919061142e565b604001358b8060200190610604919061142e565b606001358c8060200190610618919061142e565b608001356001548e604001358f8060200190610634919061142e565b60a001356040516020016106529b9a99989796959493929190611517565b60405160208183030381529060405280519060200120905061067a85858585856002546108d8565b505050505050565b60035481565b8181905084849050146106c7576040517fc6617b7b00000000000000000000000000000000000000000000000000000000815260040160405180910390fd5b600454851015610703576040517f780635d000000000000000000000000000000000000000000000000000000000815260040160405180910390fd5b60008667ffffffffffffffff1603610747576040517fc3b70c8800000000000000000000000000000000000000000000000000000000815260040160405180910390fd5b6000848460405160200161075c9291906113fb565b6040516020818303038152906040528051906020012090506001546107866002546004548461087d565b146107bd576040517f177b5d9200000000000000000000000000000000000000000000000000000000815260040160405180910390fd5b60006107d48867ffffffffffffffff16888b61087d565b90506107e686868686856002546108d8565b806001819055508767ffffffffffffffff16600281905550866004819055507fe304b71f81a1aaf6d714401de28ba1ebdbb5ff9c5fee59ef2a6eb984f9e8da7e88888b604051610838939291906115f7565b60405180910390a1505050505050505050565b60015481565b60025481565b600560009054906101000a900473ffffffffffffffffffffffffffffffffffffffff1681565b60007f636865636b706f696e740000000000000000000000000000000000000000000060001b8484846040516020016108b9949392919061162e565b6040516020818303038152906040528051906020012090509392505050565b6003546103e86004546108eb9190611200565b426108f69190611231565b111561092e576040517fe5e5e46400000000000000000000000000000000000000000000000000000000815260040160405180910390fd5b6000805b87879050811015610a8f576000801b86868381811061095457610953611673565b5b9050606002016020013514801561098957506000801b86868381811061097d5761097c611673565b5b90506060020160400135145b80156109c2575060008686838181106109a5576109a4611673565b5b90506060020160000160208101906109bd91906116db565b60ff16145b610a7c57610a138888838181106109dc576109db611673565b5b90506040020160000160208101906109f49190611708565b85888885818110610a0857610a07611673565b5b905060600201610ad3565b610a49576040517f8baa579f00000000000000000000000000000000000000000000000000000000815260040160405180910390fd5b878782818110610a5c57610a5b611673565b5b9050604002016020013582610a719190611735565b915082821015610a8f575b8080610a8790611769565b915050610932565b5081811015610aca576040517fcabeb65500000000000000000000000000000000000000000000000000000000815260040160405180910390fd5b50505050505050565b6000600283604051602001610ae891906117d2565b604051602081830303815290604052604051610b04919061185e565b602060405180830381855afa158015610b21573d6000803e3d6000fd5b5050506040513d601f19601f82011682018060405250810190610b44919061188a565b9250600080610b6f85856000016020810190610b6091906116db565b86602001358760400135610c0c565b509150915060006003811115610b8857610b876118b7565b5b816003811115610b9b57610b9a6118b7565b5b14610bd2576040517f8baa579f00000000000000000000000000000000000000000000000000000000815260040160405180910390fd5b8173ffffffffffffffffffffffffffffffffffffffff168673ffffffffffffffffffffffffffffffffffffffff1614925050509392505050565b60008060007f7fffffffffffffffffffffffffffffff5d576e7357a4501ddfe92f46681b20a08460001c1115610c4c576000600385925092509250610cf6565b600060018888888860405160008152602001604052604051610c7194939291906118f5565b6020604051602081039080840390855afa158015610c93573d6000803e3d6000fd5b505050602060405103519050600073ffffffffffffffffffffffffffffffffffffffff168173ffffffffffffffffffffffffffffffffffffffff1603610ce757600060016000801b93509350935050610cf6565b8060008060001b935093509350505b9450945094915050565b60008115159050919050565b610d1581610d00565b82525050565b6000602082019050610d306000830184610d0c565b92915050565b600080fd5b600080fd5b6000819050919050565b610d5381610d40565b8114610d5e57600080fd5b50565b600081359050610d7081610d4a565b92915050565b6000819050919050565b610d8981610d76565b8114610d9457600080fd5b50565b600081359050610da681610d80565b92915050565b600080600060608486031215610dc557610dc4610d36565b5b6000610dd386828701610d61565b9350506020610de486828701610d61565b9250506040610df586828701610d97565b9150509250925092565b610e0881610d40565b82525050565b6000602082019050610e236000830184610dff565b92915050565b60008060008060808587031215610e4357610e42610d36565b5b6000610e5187828801610d61565b9450506020610e6287828801610d61565b9350506040610e7387828801610d61565b9250506060610e8487828801610d97565b91505092959194509250565b600073ffffffffffffffffffffffffffffffffffffffff82169050919050565b6000610ebb82610e90565b9050919050565b610ecb81610eb0565b82525050565b6000602082019050610ee66000830184610ec2565b92915050565b600080fd5b600060608284031215610f0757610f06610eec565b5b81905092915050565b600080fd5b600080fd5b600080fd5b60008083601f840112610f3557610f34610f10565b5b8235905067ffffffffffffffff811115610f5257610f51610f15565b5b602083019150836040820283011115610f6e57610f6d610f1a565b5b9250929050565b60008083601f840112610f8b57610f8a610f10565b5b8235905067ffffffffffffffff811115610fa857610fa7610f15565b5b602083019150836060820283011115610fc457610fc3610f1a565b5b9250929050565b600080600080600060608688031215610fe757610fe6610d36565b5b600086013567ffffffffffffffff81111561100557611004610d3b565b5b61101188828901610ef1565b955050602086013567ffffffffffffffff81111561103257611031610d3b565b5b61103e88828901610f1f565b9450945050604086013567ffffffffffffffff81111561106157611060610d3b565b5b61106d88828901610f75565b92509250509295509295909350565b600067ffffffffffffffff82169050919050565b6110998161107c565b81146110a457600080fd5b50565b6000813590506110b681611090565b92915050565b600080600080600080600060a0888a0312156110db576110da610d36565b5b60006110e98a828b01610d97565b97505060206110fa8a828b016110a7565b965050604061110b8a828b01610d61565b955050606088013567ffffffffffffffff81111561112c5761112b610d3b565b5b6111388a828b01610f1f565b9450945050608088013567ffffffffffffffff81111561115b5761115a610d3b565b5b6111678a828b01610f75565b925092505092959891949750929550565b61118181610d76565b82525050565b600060208201905061119c6000830184611178565b92915050565b7f4e487b7100000000000000000000000000000000000000000000000000000000600052601260045260246000fd5b7f4e487b7100000000000000000000000000000000000000000000000000000000600052601160045260246000fd5b600061120b82610d40565b915061121683610d40565b925082611226576112256111a2565b5b828204905092915050565b600061123c82610d40565b915061124783610d40565b925082820390508181111561125f5761125e6111d1565b5b92915050565b600060608201905061127a6000830186610dff565b6112876020830185610dff565b6112946040830184611178565b949350505050565b600082825260208201905092915050565b6000819050919050565b6112c081610eb0565b81146112cb57600080fd5b50565b6000813590506112dd816112b7565b92915050565b60006112f260208401846112ce565b905092915050565b61130381610eb0565b82525050565b60006113186020840184610d61565b905092915050565b61132981610d40565b82525050565b6040820161134060008301836112e3565b61134d60008501826112fa565b5061135b6020830183611309565b6113686020850182611320565b50505050565b600061137a838361132f565b60408301905092915050565b600082905092915050565b6000604082019050919050565b60006113aa838561129c565b93506113b5826112ad565b8060005b858110156113ee576113cb8284611386565b6113d5888261136e565b97506113e083611391565b9250506001810190506113b9565b5085925050509392505050565b6000602082019050818103600083015261141681848661139e565b90509392505050565b600080fd5b600080fd5b600080fd5b60008235600160c00383360303811261144a5761144961141f565b5b80830191505092915050565b600080833560016020038436030381126114735761147261141f565b5b80840192508235915067ffffffffffffffff82111561149557611494611424565b5b6020830192506001820236038313156114b1576114b0611429565b5b509250929050565b600082825260208201905092915050565b82818337600083830152505050565b6000601f19601f8301169050919050565b60006114f683856114b9565b93506115038385846114ca565b61150c836114d9565b840190509392505050565b60006101408201905061152d600083018e611178565b61153a602083018d611178565b818103604083015261154d818b8d6114ea565b905061155c606083018a610dff565b6115696080830189610dff565b61157660a0830188610dff565b61158360c0830187610dff565b61159060e0830186611178565b61159e610100830185610dff565b6115ac610120830184610dff565b9c9b505050505050505050505050565b6000819050919050565b60006115e16115dc6115d78461107c565b6115bc565b610d40565b9050919050565b6115f1816115c6565b82525050565b600060608201905061160c60008301866115e8565b6116196020830185610dff565b6116266040830184611178565b949350505050565b60006080820190506116436000830187611178565b6116506020830186610dff565b61165d6040830185610dff565b61166a6060830184611178565b95945050505050565b7f4e487b7100000000000000000000000000000000000000000000000000000000600052603260045260246000fd5b600060ff82169050919050565b6116b8816116a2565b81146116c357600080fd5b50565b6000813590506116d5816116af565b92915050565b6000602082840312156116f1576116f0610d36565b5b60006116ff848285016116c6565b91505092915050565b60006020828403121561171e5761171d610d36565b5b600061172c848285016112ce565b91505092915050565b600061174082610d40565b915061174b83610d40565b9250828201905080821115611763576117626111d1565b5b92915050565b600061177482610d40565b91507fffffffffffffffffffffffffffffffffffffffffffffffffffffffffffffffff82036117a6576117a56111d1565b5b600182019050919050565b6000819050919050565b6117cc6117c782610d76565b6117b1565b82525050565b60006117de82846117bb565b60208201915081905092915050565b600081519050919050565b600081905092915050565b60005b83811015611821578082015181840152602081019050611806565b60008484015250505050565b6000611838826117ed565b61184281856117f8565b9350611852818560208601611803565b80840191505092915050565b600061186a828461182d565b915081905092915050565b60008151905061188481610d80565b92915050565b6000602082840312156118a05761189f610d36565b5b60006118ae84828501611875565b91505092915050565b7f4e487b7100000000000000000000000000000000000000000000000000000000600052602160045260246000fd5b6118ef816116a2565b82525050565b600060808201905061190a6000830187611178565b61191760208301866118e6565b6119246040830185611178565b6119316060830184611178565b9594505050505056fea264697066735822122048b3fd1d4f4bdee146eb2956e18719d2107695fb35d8948a79bf2a2bc5a5a4a464736f6c63430008130033",
  "linkReferences": {},
  "deployedLinkReferences": {}
}