{
  "_format": "hh-sol-artifact-1",
  "contractName": "TellorDataBridge",
  "sourceName": "contracts/testing/bridge/TellorDataBridge.sol",
  "abi": [
    {
      "inputs": [
        {
          "internalType": "address",
          "name": "_guardian",
          "type": "address"
        },
        {
          "internalType": "bytes32",
          "name": "_validatorSetHashDomainSeparator",
          "type": "bytes32"
        }
      ],
      "stateMutability": "nonpayable",
      "type": "constructor"
    },
    {
      "inputs": [],
      "name": "AlreadyInitialized",
      "type": "error"
    },
    {
      "inputs": [],
      "name": "ECDSAInvalidSignature",
      "type": "error"
    },
    {
      "inputs": [
        {
          "internalType": "uint256",
          "name": "length",
          "type": "uint256"
        }
      ],
      "name": "ECDSAInvalidSignatureLength",
      "type": "error"
    },
    {
      "inputs": [
        {
          "internalType": "bytes32",
          "name": "s",
          "type": "bytes32"
        }
      ],
      "name": "ECDSAInvalidSignatureS",
      "type": "error"
    },
    {
      "inputs": [],
      "name": "InsufficientVotingPower",
      "type": "error"
    },
    {
      "inputs": [],
      "name": "InvalidPowerThreshold",
      "type": "error"
    },
    {
      "inputs": [],
      "name": "InvalidSignature",
      "type": "error"
    },
    {
      "inputs": [],
      "name": "MalformedCurrentValidatorSet",
      "type": "error"
    },
    {
      "inputs": [],
      "name": "NotDeployer",
      "type": "error"
    },
    {
      "inputs": [],
      "name": "NotGuardian",
      "type": "error"
    },
    {
      "inputs": [],
      "name": "StaleValidatorSet",
      "type": "error"
    },
    {
      "inputs": [],
      "name": "SuppliedValidatorSetInvalid",
      "type": "error"
    },
    {
      "inputs": [],
      "name": "ValidatorSetNotStale",
      "type": "error"
    },
    {
      "inputs": [],
      "name": "ValidatorTimestampMustIncrease",
      "type": "error"
    },
    {
      "anonymous": false,
      "inputs": [
        {
          "indexed": false,
          "internalType": "uint256",
          "name": "_powerThreshold",
          "type": "uint256"
        },
        {
          "indexed": false,
          "internalType": "uint256",
          "name": "_validatorTimestamp",
          "type": "uint256"
        },
        {
          "indexed": false,
          "internalType": "bytes32",
          "name": "_validatorSetHash",
          "type": "bytes32"
        }
      ],
      "name": "GuardianResetValidatorSet",
      "type": "event"
    },
    {
      "anonymous": false,
      "inputs": [
        {
          "indexed": false,
          "internalType": "uint256",
          "name": "_powerThreshold",
          "type": "uint256"
        },
        {
          "indexed": false,
          "internalType": "uint256",
          "name": "_validatorTimestamp",
          "type": "uint256"
        },
        {
          "indexed": false,
          "internalType": "bytes32",
          "name": "_validatorSetHash",
          "type": "bytes32"
        }
      ],
      "name": "ValidatorSetUpdated",
      "type": "event"
    },
    {
      "inputs": [],
      "name": "MS_PER_SECOND",
      "outputs": [
        {
          "internalType": "uint256",
          "name": "",
          "type": "uint256"
        }
      ],
      "stateMutability": "view",
      "type": "function"
    },
    {
      "inputs": [],
      "name": "NEW_REPORT_ATTESTATION_DOMAIN_SEPARATOR",
      "outputs": [
        {
          "internalType": "bytes32",
          "name": "",
          "type": "bytes32"
        }
      ],
      "stateMutability": "view",
      "type": "function"
    },
    {
      "inputs": [],
      "name": "VALIDATOR_SET_HASH_DOMAIN_SEPARATOR",
      "outputs": [
        {
          "internalType": "bytes32",
          "name": "",
          "type": "bytes32"
        }
      ],
      "stateMutability": "view",
      "type": "function"
    },
    {
      "inputs": [],
      "name": "deployer",
      "outputs": [
        {
          "internalType": "address",
          "name": "",
          "type": "address"
        }
      ],
      "stateMutability": "view",
      "type": "function"
    },
    {
      "inputs": [],
      "name": "guardian",
      "outputs": [
        {
          "internalType": "address",
          "name": "",
          "type": "address"
        }
      ],
      "stateMutability": "view",
      "type": "function"
    },
    {
      "inputs": [
        {
          "internalType": "uint256",
          "name": "_powerThreshold",
          "type": "uint256"
        },
        {
          "internalType": "uint256",
          "name": "_validatorTimestamp",
          "type": "uint256"
        },
        {
          "internalType": "bytes32",
          "name": "_validatorSetCheckpoint",
          "type": "bytes32"
        }
      ],
      "name": "guardianResetValidatorSet",
      "outputs": [],
      "stateMutability": "nonpayable",
      "type": "function"
    },
    {
      "inputs": [
        {
          "internalType": "uint256",
          "name": "_powerThreshold",
          "type": "uint256"
        },
        {
          "internalType": "uint256",
          "name": "_validatorTimestamp",
          "type": "uint256"
        },
        {
          "internalType": "uint256",
          "name": "_unbondingPeriod",
          "type": "uint256"
        },
        {
          "internalType": "bytes32",
          "name": "_validatorSetCheckpoint",
          "type": "bytes32"
        }
      ],
      "name": "init",
      "outputs": [],
      "stateMutability": "nonpayable",
      "type": "function"
    },
    {
      "inputs": [],
      "name": "initialized",
      "outputs": [
        {
          "internalType": "bool",
          "name": "",
          "type": "bool"
        }
      ],
      "stateMutability": "view",
      "type": "function"
    },
    {
      "inputs": [],
      "name": "lastValidatorSetCheckpoint",
      "outputs": [
        {
          "internalType": "bytes32",
          "name": "",
          "type": "bytes32"
        }
      ],
      "stateMutability": "view",
      "type": "function"
    },
    {
      "inputs": [],
      "name": "powerThreshold",
      "outputs": [
        {
          "internalType": "uint256",
          "name": "",
          "type": "uint256"
        }
      ],
      "stateMutability": "view",
      "type": "function"
    },
    {
      "inputs": [],
      "name": "unbondingPeriod",
      "outputs": [
        {
          "internalType": "uint256",
          "name": "",
          "type": "uint256"
        }
      ],
      "stateMutability": "view",
      "type": "function"
    },
    {
      "inputs": [
        {
          "internalType": "bytes32",
          "name": "_newValidatorSetHash",
          "type": "bytes32"
        },
        {
          "internalType": "uint64",
          "name": "_newPowerThreshold",
          "type": "uint64"
        },
        {
          "internalType": "uint256",
          "name": "_newValidatorTimestamp",
          "type": "uint256"
        },
        {
          "components": [
            {
              "internalType": "address",
              "name": "addr",
              "type": "address"
            },
            {
              "internalType": "uint256",
              "name": "power",
              "type": "uint256"
            }
          ],
          "internalType": "struct Validator[]",
          "name": "_currentValidatorSet",
          "type": "tuple[]"
        },
        {
          "components": [
            {
              "internalType": "uint8",
              "name": "v",
              "type": "uint8"
            },
            {
              "internalType": "bytes32",
              "name": "r",
              "type": "bytes32"
            },
            {
              "internalType": "bytes32",
              "name": "s",
              "type": "bytes32"
            }
          ],
          "internalType": "struct Signature[]",
          "name": "_sigs",
          "type": "tuple[]"
        }
      ],
      "name": "updateValidatorSet",
      "outputs": [],
      "stateMutability": "nonpayable",
      "type": "function"
    },
    {
      "inputs": [],
      "name": "validatorTimestamp",
      "outputs": [
        {
          "internalType": "uint256",
          "name": "",
          "type": "uint256"
        }
      ],
      "stateMutability": "view",
      "type": "function"
    },
    {
      "inputs": [
        {
          "components": [
            {
              "internalType": "bytes32",
              "name": "queryId",
              "type": "bytes32"
            },
            {
              "components": [
                {
                  "internalType": "bytes",
                  "name": "value",
                  "type": "bytes"
                },
                {
                  "internalType": "uint256",
                  "name": "timestamp",
                  "type": "uint256"
                },
                {
                  "internalType": "uint256",
                  "name": "aggregatePower",
                  "type": "uint256"
                },
                {
                  "internalType": "uint256",
                  "name": "previousTimestamp",
                  "type": "uint256"
                },
                {
                  "internalType": "uint256",
                  "name": "nextTimestamp",
                  "type": "uint256"
                },
                {
                  "internalType": "uint256",
                  "name": "lastConsensusTimestamp",
                  "type": "uint256"
                }
              ],
              "internalType": "struct ReportData",
              "name": "report",
              "type": "tuple"
            },
            {
              "internalType": "uint256",
              "name": "attestationTimestamp",
              "type": "uint256"
            }
          ],
          "internalType": "struct OracleAttestationData",
          "name": "_attestData",
          "type": "tuple"
        },
        {
          "components": [
            {
              "internalType": "address",
              "name": "addr",
              "type": "address"
            },
            {
              "internalType": "uint256",
              "name": "power",
              "type": "uint256"
            }
          ],
          "internalType": "struct Validator[]",
          "name": "_currentValidatorSet",
          "type": "tuple[]"
        },
        {
          "components": [
            {
              "internalType": "uint8",
              "name": "v",
              "type": "uint8"
            },
            {
              "internalType": "bytes32",
              "name": "r",
              "type": "bytes32"
            },
            {
              "internalType": "bytes32",
              "name": "s",
              "type": "bytes32"
            }
          ],
          "internalType": "struct Signature[]",
          "name": "_sigs",
          "type": "tuple[]"
        }
      ],
      "name": "verifyOracleData",
      "outputs": [],
      "stateMutability": "view",
      "type": "function"
    }
  ],
  "bytecode": "0x60a06040523480156200001157600080fd5b5060405162001c0138038062001c0183398181016040528101906200003791906200016d565b816000806101000a81548173ffffffffffffffffffffffffffffffffffffffff021916908373ffffffffffffffffffffffffffffffffffffffff16021790555033600560006101000a81548173ffffffffffffffffffffffffffffffffffffffff021916908373ffffffffffffffffffffffffffffffffffffffff16021790555080608081815250505050620001b4565b600080fd5b600073ffffffffffffffffffffffffffffffffffffffff82169050919050565b6000620000fa82620000cd565b9050919050565b6200010c81620000ed565b81146200011857600080fd5b50565b6000815190506200012c8162000101565b92915050565b6000819050919050565b620001478162000132565b81146200015357600080fd5b50565b60008151905062000167816200013c565b92915050565b60008060408385031215620001875762000186620000c8565b5b600062000197858286016200011b565b9250506020620001aa8582860162000156565b9150509250929050565b608051611a2a620001d7600039600081816108bf015261093e0152611a2a6000f3fe608060405234801561001057600080fd5b50600436106100ea5760003560e01c80636cf6d6751161008c578063af082a7d11610066578063af082a7d14610213578063ba95ec2714610231578063bd7c31531461024f578063d5f394881461026d576100ea565b80636cf6d675146101bb57806384330d4c146101d95780639e45a913146101f5576100ea565b80634394f6f3116100c85780634394f6f314610147578063452a9320146101635780634f76f1ee146101815780635e0d3b0f1461019f576100ea565b8063158ef93e146100ef578063185bf52b1461010d5780631a8bcd3414610129575b600080fd5b6100f761028b565b6040516101049190610dd5565b60405180910390f35b61012760048036038101906101229190610e66565b61029e565b005b610131610409565b60405161013e9190610ec8565b60405180910390f35b610161600480360381019061015c9190610ee3565b61040f565b005b61016b61051a565b6040516101789190610f8b565b60405180910390f35b61018961053e565b6040516101969190610ec8565b60405180910390f35b6101b960048036038101906101b49190611085565b610544565b005b6101c36106f4565b6040516101d09190610ec8565b60405180910390f35b6101f360048036038101906101ee9190611176565b6106fa565b005b6101fd6108bd565b60405161020a9190611241565b60405180910390f35b61021b6108e1565b6040516102289190611241565b60405180910390f35b6102396108e7565b6040516102469190610ec8565b60405180910390f35b6102576108ed565b6040516102649190611241565b60405180910390f35b610275610914565b6040516102829190610f8b565b60405180910390f35b600560149054906101000a900460ff1681565b60008054906101000a900473ffffffffffffffffffffffffffffffffffffffff1673ffffffffffffffffffffffffffffffffffffffff163373ffffffffffffffffffffffffffffffffffffffff1614610323576040517fef6d0f0200000000000000000000000000000000000000000000000000000000815260040160405180910390fd5b6003546103e860045461033691906112ba565b4261034191906112eb565b1015610379576040517f1c36ced200000000000000000000000000000000000000000000000000000000815260040160405180910390fd5b60045482116103b4576040517f780635d000000000000000000000000000000000000000000000000000000000815260040160405180910390fd5b8260028190555081600481905550806001819055507fd7067f3840022e90166b8566f9982288b89ec7479b8eb30fad06290f18c8cb098383836040516103fc9392919061131f565b60405180910390a1505050565b6103e881565b600560009054906101000a900473ffffffffffffffffffffffffffffffffffffffff1673ffffffffffffffffffffffffffffffffffffffff163373ffffffffffffffffffffffffffffffffffffffff1614610496576040517f8b906c9700000000000000000000000000000000000000000000000000000000815260040160405180910390fd5b600560149054906101000a900460ff16156104dd576040517f0dc149f000000000000000000000000000000000000000000000000000000000815260040160405180910390fd5b6001600560146101000a81548160ff0219169083151502179055508360028190555082600481905550816003819055508060018190555050505050565b60008054906101000a900473ffffffffffffffffffffffffffffffffffffffff1681565b60045481565b818190508484905014610583576040517fc6617b7b00000000000000000000000000000000000000000000000000000000815260040160405180910390fd5b6001546105bd60025460045487876040516020016105a29291906114b5565b6040516020818303038152906040528051906020012061093a565b146105f4576040517f177b5d9200000000000000000000000000000000000000000000000000000000815260040160405180910390fd5b60007f74656c6c6f7243757272656e744174746573746174696f6e000000000000000060001b866000013587806020019061062f91906114e8565b806000019061063e9190611510565b89806020019061064e91906114e8565b602001358a806020019061066291906114e8565b604001358b806020019061067691906114e8565b606001358c806020019061068a91906114e8565b608001356001548e604001358f80602001906106a691906114e8565b60a001356040516020016106c49b9a999897969594939291906115d1565b6040516020818303038152906040528051906020012090506106ec8585858585600254610992565b505050505050565b60035481565b818190508484905014610739576040517fc6617b7b00000000000000000000000000000000000000000000000000000000815260040160405180910390fd5b600454851015610775576040517f780635d000000000000000000000000000000000000000000000000000000000815260040160405180910390fd5b60008667ffffffffffffffff16036107b9576040517fc3b70c8800000000000000000000000000000000000000000000000000000000815260040160405180910390fd5b600084846040516020016107ce9291906114b5565b6040516020818303038152906040528051906020012090506001546107f86002546004548461093a565b1461082f576040517f177b5d9200000000000000000000000000000000000000000000000000000000815260040160405180910390fd5b60006108468867ffffffffffffffff16888b61093a565b90506108588686868685600254610992565b806001819055508767ffffffffffffffff16600281905550866004819055507fe304b71f81a1aaf6d714401de28ba1ebdbb5ff9c5fee59ef2a6eb984f9e8da7e88888b6040516108aa939291906116b1565b60405180910390a1505050505050505050565b7f000000000000000000000000000000000000000000000000000000000000000081565b60015481565b60025481565b7f74656c6c6f7243757272656e744174746573746174696f6e000000000000000060001b81565b600560009054906101000a900473ffffffffffffffffffffffffffffffffffffffff1681565b60007f000000000000000000000000000000000000000000000000000000000000000084848460405160200161097394939291906116e8565b6040516020818303038152906040528051906020012090509392505050565b6003546103e86004546109a591906112ba565b426109b091906112eb565b11156109e8576040517fe5e5e46400000000000000000000000000000000000000000000000000000000815260040160405180910390fd5b6000805b87879050811015610b49576000801b868683818110610a0e57610a0d61172d565b5b90506060020160200135148015610a4357506000801b868683818110610a3757610a3661172d565b5b90506060020160400135145b8015610a7c57506000868683818110610a5f57610a5e61172d565b5b9050606002016000016020810190610a779190611795565b60ff16145b610b3657610acd888883818110610a9657610a9561172d565b5b9050604002016000016020810190610aae91906117c2565b85888885818110610ac257610ac161172d565b5b905060600201610b8d565b610b03576040517f8baa579f00000000000000000000000000000000000000000000000000000000815260040160405180910390fd5b878782818110610b1657610b1561172d565b5b9050604002016020013582610b2b91906117ef565b915082821015610b49575b8080610b4190611823565b9150506109ec565b5081811015610b84576040517fcabeb65500000000000000000000000000000000000000000000000000000000815260040160405180910390fd5b50505050505050565b6000600283604051602001610ba2919061188c565b604051602081830303815290604052604051610bbe9190611918565b602060405180830381855afa158015610bdb573d6000803e3d6000fd5b5050506040513d601f19601f82011682018060405250810190610bfe9190611944565b9250600080610c2985856000016020810190610c1a9190611795565b86602001358760400135610cc6565b509150915060006003811115610c4257610c41611971565b5b816003811115610c5557610c54611971565b5b14610c8c576040517f8baa579f00000000000000000000000000000000000000000000000000000000815260040160405180910390fd5b8173ffffffffffffffffffffffffffffffffffffffff168673ffffffffffffffffffffffffffffffffffffffff1614925050509392505050565b60008060007f7fffffffffffffffffffffffffffffff5d576e7357a4501ddfe92f46681b20a08460001c1115610d06576000600385925092509250610db0565b600060018888888860405160008152602001604052604051610d2b94939291906119af565b6020604051602081039080840390855afa158015610d4d573d6000803e3d6000fd5b505050602060405103519050600073ffffffffffffffffffffffffffffffffffffffff168173ffffffffffffffffffffffffffffffffffffffff1603610da157600060016000801b93509350935050610db0565b8060008060001b935093509350505b9450945094915050565b60008115159050919050565b610dcf81610dba565b82525050565b6000602082019050610dea6000830184610dc6565b92915050565b600080fd5b600080fd5b6000819050919050565b610e0d81610dfa565b8114610e1857600080fd5b50565b600081359050610e2a81610e04565b92915050565b6000819050919050565b610e4381610e30565b8114610e4e57600080fd5b50565b600081359050610e6081610e3a565b92915050565b600080600060608486031215610e7f57610e7e610df0565b5b6000610e8d86828701610e1b565b9350506020610e9e86828701610e1b565b9250506040610eaf86828701610e51565b9150509250925092565b610ec281610dfa565b82525050565b6000602082019050610edd6000830184610eb9565b92915050565b60008060008060808587031215610efd57610efc610df0565b5b6000610f0b87828801610e1b565b9450506020610f1c87828801610e1b565b9350506040610f2d87828801610e1b565b9250506060610f3e87828801610e51565b91505092959194509250565b600073ffffffffffffffffffffffffffffffffffffffff82169050919050565b6000610f7582610f4a565b9050919050565b610f8581610f6a565b82525050565b6000602082019050610fa06000830184610f7c565b92915050565b600080fd5b600060608284031215610fc157610fc0610fa6565b5b81905092915050565b600080fd5b600080fd5b600080fd5b60008083601f840112610fef57610fee610fca565b5b8235905067ffffffffffffffff81111561100c5761100b610fcf565b5b60208301915083604082028301111561102857611027610fd4565b5b9250929050565b60008083601f84011261104557611044610fca565b5b8235905067ffffffffffffffff81111561106257611061610fcf565b5b60208301915083606082028301111561107e5761107d610fd4565b5b9250929050565b6000806000806000606086880312156110a1576110a0610df0565b5b600086013567ffffffffffffffff8111156110bf576110be610df5565b5b6110cb88828901610fab565b955050602086013567ffffffffffffffff8111156110ec576110eb610df5565b5b6110f888828901610fd9565b9450945050604086013567ffffffffffffffff81111561111b5761111a610df5565b5b6111278882890161102f565b92509250509295509295909350565b600067ffffffffffffffff82169050919050565b61115381611136565b811461115e57600080fd5b50565b6000813590506111708161114a565b92915050565b600080600080600080600060a0888a03121561119557611194610df0565b5b60006111a38a828b01610e51565b97505060206111b48a828b01611161565b96505060406111c58a828b01610e1b565b955050606088013567ffffffffffffffff8111156111e6576111e5610df5565b5b6111f28a828b01610fd9565b9450945050608088013567ffffffffffffffff81111561121557611214610df5565b5b6112218a828b0161102f565b925092505092959891949750929550565b61123b81610e30565b82525050565b60006020820190506112566000830184611232565b92915050565b7f4e487b7100000000000000000000000000000000000000000000000000000000600052601260045260246000fd5b7f4e487b7100000000000000000000000000000000000000000000000000000000600052601160045260246000fd5b60006112c582610dfa565b91506112d083610dfa565b9250826112e0576112df61125c565b5b828204905092915050565b60006112f682610dfa565b915061130183610dfa565b92508282039050818111156113195761131861128b565b5b92915050565b60006060820190506113346000830186610eb9565b6113416020830185610eb9565b61134e6040830184611232565b949350505050565b600082825260208201905092915050565b6000819050919050565b61137a81610f6a565b811461138557600080fd5b50565b60008135905061139781611371565b92915050565b60006113ac6020840184611388565b905092915050565b6113bd81610f6a565b82525050565b60006113d26020840184610e1b565b905092915050565b6113e381610dfa565b82525050565b604082016113fa600083018361139d565b61140760008501826113b4565b5061141560208301836113c3565b61142260208501826113da565b50505050565b600061143483836113e9565b60408301905092915050565b600082905092915050565b6000604082019050919050565b60006114648385611356565b935061146f82611367565b8060005b858110156114a8576114858284611440565b61148f8882611428565b975061149a8361144b565b925050600181019050611473565b5085925050509392505050565b600060208201905081810360008301526114d0818486611458565b90509392505050565b600080fd5b600080fd5b600080fd5b60008235600160c003833603038112611504576115036114d9565b5b80830191505092915050565b6000808335600160200384360303811261152d5761152c6114d9565b5b80840192508235915067ffffffffffffffff82111561154f5761154e6114de565b5b60208301925060018202360383131561156b5761156a6114e3565b5b509250929050565b600082825260208201905092915050565b82818337600083830152505050565b6000601f19601f8301169050919050565b60006115b08385611573565b93506115bd838584611584565b6115c683611593565b840190509392505050565b6000610140820190506115e7600083018e611232565b6115f4602083018d611232565b8181036040830152611607818b8d6115a4565b9050611616606083018a610eb9565b6116236080830189610eb9565b61163060a0830188610eb9565b61163d60c0830187610eb9565b61164a60e0830186611232565b611658610100830185610eb9565b611666610120830184610eb9565b9c9b505050505050505050505050565b6000819050919050565b600061169b61169661169184611136565b611676565b610dfa565b9050919050565b6116ab81611680565b82525050565b60006060820190506116c660008301866116a2565b6116d36020830185610eb9565b6116e06040830184611232565b949350505050565b60006080820190506116fd6000830187611232565b61170a6020830186610eb9565b6117176040830185610eb9565b6117246060830184611232565b95945050505050565b7f4e487b7100000000000000000000000000000000000000000000000000000000600052603260045260246000fd5b600060ff82169050919050565b6117728161175c565b811461177d57600080fd5b50565b60008135905061178f81611769565b92915050565b6000602082840312156117ab576117aa610df0565b5b60006117b984828501611780565b91505092915050565b6000602082840312156117d8576117d7610df0565b5b60006117e684828501611388565b91505092915050565b60006117fa82610dfa565b915061180583610dfa565b925082820190508082111561181d5761181c61128b565b5b92915050565b600061182e82610dfa565b91507fffffffffffffffffffffffffffffffffffffffffffffffffffffffffffffffff82036118605761185f61128b565b5b600182019050919050565b6000819050919050565b61188661188182610e30565b61186b565b82525050565b60006118988284611875565b60208201915081905092915050565b600081519050919050565b600081905092915050565b60005b838110156118db5780820151818401526020810190506118c0565b60008484015250505050565b60006118f2826118a7565b6118fc81856118b2565b935061190c8185602086016118bd565b80840191505092915050565b600061192482846118e7565b915081905092915050565b60008151905061193e81610e3a565b92915050565b60006020828403121561195a57611959610df0565b5b60006119688482850161192f565b91505092915050565b7f4e487b7100000000000000000000000000000000000000000000000000000000600052602160045260246000fd5b6119a98161175c565b82525050565b60006080820190506119c46000830187611232565b6119d160208301866119a0565b6119de6040830185611232565b6119eb6060830184611232565b9594505050505056fea2646970667358221220f1a0fa1576e34acb9d464e48852e4c9fd6a1700e01c80f69b0ddce502e250ae364736f6c63430008130033",
  "linkReferences": {},
  "deployedLinkReferences": {}
}