{
  "_format": "hh-sol-artifact-1",
  "contractName": "YoloTellorUser",
  "sourceName": "contracts/YoloTellorUser.sol",
  "abi": [
    {
      "inputs": [
        {
          "internalType": "address",
          "name": "_dataBridge",
          "type": "address"
        }
      ],
      "stateMutability": "nonpayable",
      "type": "constructor"
    },
    {
      "inputs": [],
      "name": "dataBridge",
      "outputs": [
        {
          "internalType": "contract ITellorDataBridge",
          "name": "",
          "type": "address"
        }
      ],
      "stateMutability": "view",
      "type": "function"
    },
    {
      "inputs": [],
      "name": "getCurrentOracleData",
      "outputs": [
        {
          "components": [
            {
              "internalType": "uint256",
              "name": "value",
              "type": "uint256"
            },
            {
              "internalType": "uint256",
              "name": "timestamp",
              "type": "uint256"
            }
          ],
          "internalType": "struct YoloTellorUser.OracleData",
          "name": "",
          "type": "tuple"
        }
      ],
      "stateMutability": "view",
      "type": "function"
    },
    {
      "inputs": [],
      "name": "getValueCount",
      "outputs": [
        {
          "internalType": "uint256",
          "name": "",
          "type": "uint256"
        }
      ],
      "stateMutability": "view",
      "type": "function"
    },
    {
      "inputs": [
        {
          "internalType": "uint256",
          "name": "",
          "type": "uint256"
        }
      ],
      "name": "oracleData",
      "outputs": [
        {
          "internalType": "uint256",
          "name": "value",
          "type": "uint256"
        },
        {
          "internalType": "uint256",
          "name": "timestamp",
          "type": "uint256"
        }
      ],
      "stateMutability": "view",
      "type": "function"
    },
    {
      "inputs": [
        {
          "components": [
            {
              "internalType": "bytes32",
              "name": "queryId",
              "type": "bytes32"
            },
            {
              "components": [
                {
                  "internalType": "bytes",
                  "name": "value",
                  "type": "bytes"
                },
                {
                  "internalType": "uint256",
                  "name": "timestamp",
                  "type": "uint256"
                },
                {
                  "internalType": "uint256",
                  "name": "aggregatePower",
                  "type": "uint256"
                },
                {
                  "internalType": "uint256",
                  "name": "previousTimestamp",
                  "type": "uint256"
                },
                {
                  "internalType": "uint256",
                  "name": "nextTimestamp",
                  "type": "uint256"
                },
                {
                  "internalType": "uint256",
                  "name": "lastConsensusTimestamp",
                  "type": "uint256"
                }
              ],
              "internalType": "struct ReportData",
              "name": "report",
              "type": "tuple"
            },
            {
              "internalType": "uint256",
              "name": "attestationTimestamp",
              "type": "uint256"
            }
          ],
          "internalType": "struct OracleAttestationData",
          "name": "_attestData",
          "type": "tuple"
        },
        {
          "components": [
            {
              "internalType": "address",
              "name": "addr",
              "type": "address"
            },
            {
              "internalType": "uint256",
              "name": "power",
              "type": "uint256"
            }
          ],
          "internalType": "struct Validator[]",
          "name": "_currentValidatorSet",
          "type": "tuple[]"
        },
        {
          "components": [
            {
              "internalType": "uint8",
              "name": "v",
              "type": "uint8"
            },
            {
              "internalType": "bytes32",
              "name": "r",
              "type": "bytes32"
            },
            {
              "internalType": "bytes32",
              "name": "s",
              "type": "bytes32"
            }
          ],
          "internalType": "struct Signature[]",
          "name": "_sigs",
          "type": "tuple[]"
        }
      ],
      "name": "updateOracleData",
      "outputs": [],
      "stateMutability": "nonpayable",
      "type": "function"
    }
  ],
  "bytecode": "0x608060405234801561001057600080fd5b50604051610e57380380610e57833981810160405281019061003291906100db565b806000806101000a81548173ffffffffffffffffffffffffffffffffffffffff021916908373ffffffffffffffffffffffffffffffffffffffff16021790555050610108565b600080fd5b600073ffffffffffffffffffffffffffffffffffffffff82169050919050565b60006100a88261007d565b9050919050565b6100b88161009d565b81146100c357600080fd5b50565b6000815190506100d5816100af565b92915050565b6000602082840312156100f1576100f0610078565b5b60006100ff848285016100c6565b91505092915050565b610d40806101176000396000f3fe608060405234801561001057600080fd5b50600436106100575760003560e01c8063413a89b41461005c578063578855b21461007a5780636180801014610098578063aa4dea00146100b4578063bffe07bf146100e5575b600080fd5b610064610103565b604051610071919061032a565b60405180910390f35b610082610110565b60405161008f91906103c4565b60405180910390f35b6100b260048036038101906100ad91906104c8565b610134565b005b6100ce60048036038101906100c991906105a5565b610266565b6040516100dc9291906105d2565b60405180910390f35b6100ed61029a565b6040516100fa9190610639565b60405180910390f35b6000600180549050905090565b60008054906101000a900473ffffffffffffffffffffffffffffffffffffffff1681565b60008054906101000a900473ffffffffffffffffffffffffffffffffffffffff1673ffffffffffffffffffffffffffffffffffffffff16635e0d3b0f86868686866040518663ffffffff1660e01b8152600401610195959493929190610b8e565b60006040518083038186803b1580156101ad57600080fd5b505afa1580156101c1573d6000803e3d6000fd5b5050505060008580602001906101d79190610bed565b80600001906101e69190610c15565b8101906101f391906105a5565b9050600160405180604001604052808381526020018880602001906102189190610bed565b60200135815250908060018154018082558091505060019003906000526020600020906002020160009091909190915060008201518160000155602082015181600101555050505050505050565b6001818154811061027657600080fd5b90600052602060002090600202016000915090508060000154908060010154905082565b6102a26102f7565b60018080805490506102b49190610ca7565b815481106102c5576102c4610cdb565b5b906000526020600020906002020160405180604001604052908160008201548152602001600182015481525050905090565b604051806040016040528060008152602001600081525090565b6000819050919050565b61032481610311565b82525050565b600060208201905061033f600083018461031b565b92915050565b600073ffffffffffffffffffffffffffffffffffffffff82169050919050565b6000819050919050565b600061038a61038561038084610345565b610365565b610345565b9050919050565b600061039c8261036f565b9050919050565b60006103ae82610391565b9050919050565b6103be816103a3565b82525050565b60006020820190506103d960008301846103b5565b92915050565b600080fd5b600080fd5b600080fd5b600060608284031215610404576104036103e9565b5b81905092915050565b600080fd5b600080fd5b600080fd5b60008083601f8401126104325761043161040d565b5b8235905067ffffffffffffffff81111561044f5761044e610412565b5b60208301915083604082028301111561046b5761046a610417565b5b9250929050565b60008083601f8401126104885761048761040d565b5b8235905067ffffffffffffffff8111156104a5576104a4610412565b5b6020830191508360608202830111156104c1576104c0610417565b5b9250929050565b6000806000806000606086880312156104e4576104e36103df565b5b600086013567ffffffffffffffff811115610502576105016103e4565b5b61050e888289016103ee565b955050602086013567ffffffffffffffff81111561052f5761052e6103e4565b5b61053b8882890161041c565b9450945050604086013567ffffffffffffffff81111561055e5761055d6103e4565b5b61056a88828901610472565b92509250509295509295909350565b61058281610311565b811461058d57600080fd5b50565b60008135905061059f81610579565b92915050565b6000602082840312156105bb576105ba6103df565b5b60006105c984828501610590565b91505092915050565b60006040820190506105e7600083018561031b565b6105f4602083018461031b565b9392505050565b61060481610311565b82525050565b60408201600082015161062060008501826105fb565b50602082015161063360208501826105fb565b50505050565b600060408201905061064e600083018461060a565b92915050565b6000819050919050565b61066781610654565b811461067257600080fd5b50565b6000813590506106848161065e565b92915050565b60006106996020840184610675565b905092915050565b6106aa81610654565b82525050565b600080fd5b60008235600160c0038336030381126106d1576106d06106b0565b5b82810191505092915050565b600080fd5b600080fd5b60008083356001602003843603038112610704576107036106b0565b5b83810192508235915060208301925067ffffffffffffffff82111561072c5761072b6106dd565b5b600182023603831315610742576107416106e2565b5b509250929050565b600082825260208201905092915050565b82818337600083830152505050565b6000601f19601f8301169050919050565b6000610787838561074a565b935061079483858461075b565b61079d8361076a565b840190509392505050565b60006107b76020840184610590565b905092915050565b600060c083016107d260008401846106e7565b85830360008701526107e583828461077b565b925050506107f660208401846107a8565b61080360208601826105fb565b5061081160408401846107a8565b61081e60408601826105fb565b5061082c60608401846107a8565b61083960608601826105fb565b5061084760808401846107a8565b61085460808601826105fb565b5061086260a08401846107a8565b61086f60a08601826105fb565b508091505092915050565b60006060830161088d600084018461068a565b61089a60008601826106a1565b506108a860208401846106b5565b84820360208601526108ba82826107bf565b9150506108ca60408401846107a8565b6108d760408601826105fb565b508091505092915050565b600082825260208201905092915050565b6000819050919050565b600061090882610345565b9050919050565b610918816108fd565b811461092357600080fd5b50565b6000813590506109358161090f565b92915050565b600061094a6020840184610926565b905092915050565b61095b816108fd565b82525050565b60408201610972600083018361093b565b61097f6000850182610952565b5061098d60208301836107a8565b61099a60208501826105fb565b50505050565b60006109ac8383610961565b60408301905092915050565b600082905092915050565b6000604082019050919050565b60006109dc83856108e2565b93506109e7826108f3565b8060005b85811015610a20576109fd82846109b8565b610a0788826109a0565b9750610a12836109c3565b9250506001810190506109eb565b5085925050509392505050565b600082825260208201905092915050565b6000819050919050565b600060ff82169050919050565b610a5e81610a48565b8114610a6957600080fd5b50565b600081359050610a7b81610a55565b92915050565b6000610a906020840184610a6c565b905092915050565b610aa181610a48565b82525050565b60608201610ab86000830183610a81565b610ac56000850182610a98565b50610ad3602083018361068a565b610ae060208501826106a1565b50610aee604083018361068a565b610afb60408501826106a1565b50505050565b6000610b0d8383610aa7565b60608301905092915050565b600082905092915050565b6000606082019050919050565b6000610b3d8385610a2d565b9350610b4882610a3e565b8060005b85811015610b8157610b5e8284610b19565b610b688882610b01565b9750610b7383610b24565b925050600181019050610b4c565b5085925050509392505050565b60006060820190508181036000830152610ba8818861087a565b90508181036020830152610bbd8186886109d0565b90508181036040830152610bd2818486610b31565b90509695505050505050565b600080fd5b600080fd5b600080fd5b60008235600160c003833603038112610c0957610c08610bde565b5b80830191505092915050565b60008083356001602003843603038112610c3257610c31610bde565b5b80840192508235915067ffffffffffffffff821115610c5457610c53610be3565b5b602083019250600182023603831315610c7057610c6f610be8565b5b509250929050565b7f4e487b7100000000000000000000000000000000000000000000000000000000600052601160045260246000fd5b6000610cb282610311565b9150610cbd83610311565b9250828203905081811115610cd557610cd4610c78565b5b92915050565b7f4e487b7100000000000000000000000000000000000000000000000000000000600052603260045260246000fdfea2646970667358221220174690d1e38629ed07a1b806259cb4e0a0ec3625491143806f80de1564fa8e6464736f6c63430008130033",
  "linkReferences": {},
  "deployedLinkReferences": {}
}