{
  "_format": "hh-sol-artifact-1",
  "contractName": "YoloTellorUser",
  "sourceName": "contracts/examples/YoloTellorUser.sol",
  "abi": [
    {
      "inputs": [
        {
          "internalType": "address",
          "name": "_dataBridge",
          "type": "address"
        },
        {
          "internalType": "bytes32",
          "name": "_queryId",
          "type": "bytes32"
        }
      ],
      "stateMutability": "nonpayable",
      "type": "constructor"
    },
    {
      "inputs": [],
      "name": "dataBridge",
      "outputs": [
        {
          "internalType": "contract ITellorDataBridge",
          "name": "",
          "type": "address"
        }
      ],
      "stateMutability": "view",
      "type": "function"
    },
    {
      "inputs": [],
      "name": "getCurrentData",
      "outputs": [
        {
          "components": [
            {
              "internalType": "uint256",
              "name": "value",
              "type": "uint256"
            },
            {
              "internalType": "uint256",
              "name": "timestamp",
              "type": "uint256"
            }
          ],
          "internalType": "struct YoloTellorUser.OracleData",
          "name": "",
          "type": "tuple"
        }
      ],
      "stateMutability": "view",
      "type": "function"
    },
    {
      "inputs": [],
      "name": "getValueCount",
      "outputs": [
        {
          "internalType": "uint256",
          "name": "",
          "type": "uint256"
        }
      ],
      "stateMutability": "view",
      "type": "function"
    },
    {
      "inputs": [
        {
          "internalType": "uint256",
          "name": "",
          "type": "uint256"
        }
      ],
      "name": "oracleData",
      "outputs": [
        {
          "internalType": "uint256",
          "name": "value",
          "type": "uint256"
        },
        {
          "internalType": "uint256",
          "name": "timestamp",
          "type": "uint256"
        }
      ],
      "stateMutability": "view",
      "type": "function"
    },
    {
      "inputs": [],
      "name": "queryId",
      "outputs": [
        {
          "internalType": "bytes32",
          "name": "",
          "type": "bytes32"
        }
      ],
      "stateMutability": "view",
      "type": "function"
    },
    {
      "inputs": [
        {
          "components": [
            {
              "internalType": "bytes32",
              "name": "queryId",
              "type": "bytes32"
            },
            {
              "components": [
                {
                  "internalType": "bytes",
                  "name": "value",
                  "type": "bytes"
                },
                {
                  "internalType": "uint256",
                  "name": "timestamp",
                  "type": "uint256"
                },
                {
                  "internalType": "uint256",
                  "name": "aggregatePower",
                  "type": "uint256"
                },
                {
                  "internalType": "uint256",
                  "name": "previousTimestamp",
                  "type": "uint256"
                },
                {
                  "internalType": "uint256",
                  "name": "nextTimestamp",
                  "type": "uint256"
                },
                {
                  "internalType": "uint256",
                  "name": "lastConsensusTimestamp",
                  "type": "uint256"
                }
              ],
              "internalType": "struct ReportData",
              "name": "report",
              "type": "tuple"
            },
            {
              "internalType": "uint256",
              "name": "attestationTimestamp",
              "type": "uint256"
            }
          ],
          "internalType": "struct OracleAttestationData",
          "name": "_attestData",
          "type": "tuple"
        },
        {
          "components": [
            {
              "internalType": "address",
              "name": "addr",
              "type": "address"
            },
            {
              "internalType": "uint256",
              "name": "power",
              "type": "uint256"
            }
          ],
          "internalType": "struct Validator[]",
          "name": "_currentValidatorSet",
          "type": "tuple[]"
        },
        {
          "components": [
            {
              "internalType": "uint8",
              "name": "v",
              "type": "uint8"
            },
            {
              "internalType": "bytes32",
              "name": "r",
              "type": "bytes32"
            },
            {
              "internalType": "bytes32",
              "name": "s",
              "type": "bytes32"
            }
          ],
          "internalType": "struct Signature[]",
          "name": "_sigs",
          "type": "tuple[]"
        }
      ],
      "name": "updateOracleData",
      "outputs": [],
      "stateMutability": "nonpayable",
      "type": "function"
    }
  ],
  "bytecode": "0x60806040523480156200001157600080fd5b5060405162000fe238038062000fe283398181016040528101906200003791906200012b565b816000806101000a81548173ffffffffffffffffffffffffffffffffffffffff021916908373ffffffffffffffffffffffffffffffffffffffff16021790555080600181905550505062000172565b600080fd5b600073ffffffffffffffffffffffffffffffffffffffff82169050919050565b6000620000b8826200008b565b9050919050565b620000ca81620000ab565b8114620000d657600080fd5b50565b600081519050620000ea81620000bf565b92915050565b6000819050919050565b6200010581620000f0565b81146200011157600080fd5b50565b6000815190506200012581620000fa565b92915050565b6000806040838503121562000145576200014462000086565b5b60006200015585828601620000d9565b9250506020620001688582860162000114565b9150509250929050565b610e6080620001826000396000f3fe608060405234801561001057600080fd5b50600436106100625760003560e01c80633f1be4d414610067578063413a89b414610085578063578855b2146100a357806361808010146100c1578063770b5414146100dd578063aa4dea00146100fb575b600080fd5b61006f61012c565b60405161007c91906103a3565b60405180910390f35b61008d610132565b60405161009a91906103d7565b60405180910390f35b6100ab61013f565b6040516100b89190610471565b60405180910390f35b6100db60048036038101906100d69190610575565b610163565b005b6100e56102dd565b6040516100f29190610664565b60405180910390f35b610115600480360381019061011091906106ab565b61033c565b6040516101239291906106d8565b60405180910390f35b60015481565b6000600280549050905090565b60008054906101000a900473ffffffffffffffffffffffffffffffffffffffff1681565b60008054906101000a900473ffffffffffffffffffffffffffffffffffffffff1673ffffffffffffffffffffffffffffffffffffffff16635e0d3b0f86868686866040518663ffffffff1660e01b81526004016101c4959493929190610c31565b60006040518083038186803b1580156101dc57600080fd5b505afa1580156101f0573d6000803e3d6000fd5b5050505084600001356001541461023c576040517f08c379a000000000000000000000000000000000000000000000000000000000815260040161023390610cde565b60405180910390fd5b600085806020019061024e9190610d0d565b806000019061025d9190610d35565b81019061026a91906106ab565b90506002604051806040016040528083815260200188806020019061028f9190610d0d565b60200135815250908060018154018082558091505060019003906000526020600020906002020160009091909190915060008201518160000155602082015181600101555050505050505050565b6102e5610370565b600260016002805490506102f99190610dc7565b8154811061030a57610309610dfb565b5b906000526020600020906002020160405180604001604052908160008201548152602001600182015481525050905090565b6002818154811061034c57600080fd5b90600052602060002090600202016000915090508060000154908060010154905082565b604051806040016040528060008152602001600081525090565b6000819050919050565b61039d8161038a565b82525050565b60006020820190506103b86000830184610394565b92915050565b6000819050919050565b6103d1816103be565b82525050565b60006020820190506103ec60008301846103c8565b92915050565b600073ffffffffffffffffffffffffffffffffffffffff82169050919050565b6000819050919050565b600061043761043261042d846103f2565b610412565b6103f2565b9050919050565b60006104498261041c565b9050919050565b600061045b8261043e565b9050919050565b61046b81610450565b82525050565b60006020820190506104866000830184610462565b92915050565b600080fd5b600080fd5b600080fd5b6000606082840312156104b1576104b0610496565b5b81905092915050565b600080fd5b600080fd5b600080fd5b60008083601f8401126104df576104de6104ba565b5b8235905067ffffffffffffffff8111156104fc576104fb6104bf565b5b602083019150836040820283011115610518576105176104c4565b5b9250929050565b60008083601f840112610535576105346104ba565b5b8235905067ffffffffffffffff811115610552576105516104bf565b5b60208301915083606082028301111561056e5761056d6104c4565b5b9250929050565b6000806000806000606086880312156105915761059061048c565b5b600086013567ffffffffffffffff8111156105af576105ae610491565b5b6105bb8882890161049b565b955050602086013567ffffffffffffffff8111156105dc576105db610491565b5b6105e8888289016104c9565b9450945050604086013567ffffffffffffffff81111561060b5761060a610491565b5b6106178882890161051f565b92509250509295509295909350565b61062f816103be565b82525050565b60408201600082015161064b6000850182610626565b50602082015161065e6020850182610626565b50505050565b60006040820190506106796000830184610635565b92915050565b610688816103be565b811461069357600080fd5b50565b6000813590506106a58161067f565b92915050565b6000602082840312156106c1576106c061048c565b5b60006106cf84828501610696565b91505092915050565b60006040820190506106ed60008301856103c8565b6106fa60208301846103c8565b9392505050565b61070a8161038a565b811461071557600080fd5b50565b60008135905061072781610701565b92915050565b600061073c6020840184610718565b905092915050565b61074d8161038a565b82525050565b600080fd5b60008235600160c00383360303811261077457610773610753565b5b82810191505092915050565b600080fd5b600080fd5b600080833560016020038436030381126107a7576107a6610753565b5b83810192508235915060208301925067ffffffffffffffff8211156107cf576107ce610780565b5b6001820236038313156107e5576107e4610785565b5b509250929050565b600082825260208201905092915050565b82818337600083830152505050565b6000601f19601f8301169050919050565b600061082a83856107ed565b93506108378385846107fe565b6108408361080d565b840190509392505050565b600061085a6020840184610696565b905092915050565b600060c08301610875600084018461078a565b858303600087015261088883828461081e565b92505050610899602084018461084b565b6108a66020860182610626565b506108b4604084018461084b565b6108c16040860182610626565b506108cf606084018461084b565b6108dc6060860182610626565b506108ea608084018461084b565b6108f76080860182610626565b5061090560a084018461084b565b61091260a0860182610626565b508091505092915050565b600060608301610930600084018461072d565b61093d6000860182610744565b5061094b6020840184610758565b848203602086015261095d8282610862565b91505061096d604084018461084b565b61097a6040860182610626565b508091505092915050565b600082825260208201905092915050565b6000819050919050565b60006109ab826103f2565b9050919050565b6109bb816109a0565b81146109c657600080fd5b50565b6000813590506109d8816109b2565b92915050565b60006109ed60208401846109c9565b905092915050565b6109fe816109a0565b82525050565b60408201610a1560008301836109de565b610a2260008501826109f5565b50610a30602083018361084b565b610a3d6020850182610626565b50505050565b6000610a4f8383610a04565b60408301905092915050565b600082905092915050565b6000604082019050919050565b6000610a7f8385610985565b9350610a8a82610996565b8060005b85811015610ac357610aa08284610a5b565b610aaa8882610a43565b9750610ab583610a66565b925050600181019050610a8e565b5085925050509392505050565b600082825260208201905092915050565b6000819050919050565b600060ff82169050919050565b610b0181610aeb565b8114610b0c57600080fd5b50565b600081359050610b1e81610af8565b92915050565b6000610b336020840184610b0f565b905092915050565b610b4481610aeb565b82525050565b60608201610b5b6000830183610b24565b610b686000850182610b3b565b50610b76602083018361072d565b610b836020850182610744565b50610b91604083018361072d565b610b9e6040850182610744565b50505050565b6000610bb08383610b4a565b60608301905092915050565b600082905092915050565b6000606082019050919050565b6000610be08385610ad0565b9350610beb82610ae1565b8060005b85811015610c2457610c018284610bbc565b610c0b8882610ba4565b9750610c1683610bc7565b925050600181019050610bef565b5085925050509392505050565b60006060820190508181036000830152610c4b818861091d565b90508181036020830152610c60818688610a73565b90508181036040830152610c75818486610bd4565b90509695505050505050565b600082825260208201905092915050565b7f496e76616c696420717565727949640000000000000000000000000000000000600082015250565b6000610cc8600f83610c81565b9150610cd382610c92565b602082019050919050565b60006020820190508181036000830152610cf781610cbb565b9050919050565b600080fd5b600080fd5b600080fd5b60008235600160c003833603038112610d2957610d28610cfe565b5b80830191505092915050565b60008083356001602003843603038112610d5257610d51610cfe565b5b80840192508235915067ffffffffffffffff821115610d7457610d73610d03565b5b602083019250600182023603831315610d9057610d8f610d08565b5b509250929050565b7f4e487b7100000000000000000000000000000000000000000000000000000000600052601160045260246000fd5b6000610dd2826103be565b9150610ddd836103be565b9250828203905081811115610df557610df4610d98565b5b92915050565b7f4e487b7100000000000000000000000000000000000000000000000000000000600052603260045260246000fdfea26469706673582212206730b1a15e2a445e71bcab434786396948d6bbd4a1f58f8c658833ed2c988e7264736f6c63430008130033",
  "linkReferences": {},
  "deployedLinkReferences": {}
}